:106000000020001015610000FD600000016100002B
:106010000000000000000000000000000000000080
:10602000000000000000000000000000056100000A
:106030000000000000000000096100000D61000088
:106040006D0201001161000011610000116100008A
:106050001161000011610000116100001161000078
:10606000116100001161000000000000000000004C
:10607000000000000000000011610000116100003C
:106080001161000011610000117100001161000038
:1060900011610000D9730000000000000000000042
:1060A0001161000011610000116100001161000028
:1060B00000000000000000000000000000000000E0
:1060C00010450100000000105401000010450100BF
:1060D00000000020000000001045010000400020EA
:1060E00000000000540100106C14000000000020AB
:1060F000000000000040002000000000FEE7C04655
:10610000FEE7C046FEE7C046FEE7C046FEE7C046E3
:10611000FEE7C046C0211E4A0905136870B50B434F
:1061200013601C4D1C4AAA420ED2146850680C32EF
:10613000131F196800230029F5D01E591E5004337F
:106140009942FAD8AA42F0D3144B9A4212D2D143C0
:106150000024C918C9080131C900511850681568D0
:106160000023002803D05C5104339842FBD8083246
:106170008A42F3D10A4B0B4A1B681B6919681160EC
:106180005A68094B1A600AF00BF80AF070FCFEE737
:1061900080800440E4600000C0600000FC600000FB
:1061A000F81FFF1F680C0010640C001010B50023CE
:1061B000002A04D01C585C5004339A42FAD810BD0F
:1061C00000230022002903D01A5004339942FBD83F
:1061D0007047C046FFFFFFFFFFFFFFFFFFFFFFFF0E
:1061E000FFFFFFFFFFFFFFFFFFFFFFFFFFFFFFFFBF
:1061F000FFFFFFFFFFFFFFFFFFFFFFFFFFFFFFFFAF
:10620000FFFFFFFFFFFFFFFFFFFFFFFFFFFFFFFF9E
:10621000FFFFFFFFFFFFFFFFFFFFFFFFFFFFFFFF8E
:10622000FFFFFFFFFFFFFFFFFFFFFFFFFFFFFFFF7E
:10623000FFFFFFFFFFFFFFFFFFFFFFFFFFFFFFFF6E
:10624000FFFFFFFFFFFFFFFFFFFFFFFFFFFFFFFF5E
:10625000FFFFFFFFFFFFFFFFFFFFFFFFFFFFFFFF4E
:10626000FFFFFFFFFFFFFFFFFFFFFFFFFFFFFFFF3E
:10627000FFFFFFFFFFFFFFFFFFFFFFFFFFFFFFFF2E
:10628000FFFFFFFFFFFFFFFFFFFFFFFFFFFFFFFF1E
:10629000FFFFFFFFFFFFFFFFFFFFFFFFFFFFFFFF0E
:1062A000FFFFFFFFFFFFFFFFFFFFFFFFFFFFFFFFFE
:1062B000FFFFFFFFFFFFFFFFFFFFFFFFFFFFFFFFEE
:1062C000FFFFFFFFFFFFFFFFFFFFFFFFFFFFFFFFDE
:1062D000FFFFFFFFFFFFFFFFFFFFFFFFFFFFFFFFCE
:1062E000FFFFFFFFFFFFFFFFFFFFFFFFFFFFFFFFBE
:1062F000FFFFFFFFFFFFFFFFFFFFFFFFFFFFFFFFAE
:1063000010B586B004F000FA6B46041C981D02F02C
:106310003BFE0E236B44181C02F042FE0A236B4422
:10632000181C02F049FE12236B44181C02F050FEA8
:10633000211C68462131062204F0D4FA6B46201C49
:10634000991D2730042204F0D1FA0E23201C6B443F
:10635000191C2B30042204F0C9FA0A23201C6B44B8
:10636000191C2F30042204F0C1FA1223201C6B44A4
:10637000191C0422683004F0B9FA6623E35C69460C
:106380005A1E93416A4601330020937503F008FFBB
:1063900006B010BD7047C04670B50F25122400230B
:1063A00086B06D446C440A212A1C2380061C03F02D
:1063B0000BFE2B78172B37D0222B0FD02388002BE6
:1063C0000AD02A492A4A2B480AF014FB2A4A238871
:1063D00011688C466344136006B070BD221C301CEB
:1063E000092103F0F1FD80232288DB009A4239D98C
:1063F00023801E48C2680169511A4268521A9A42A3
:10640000EADB802204AB0093301C1949D20005ABB3
:1064100003F06CFC194A83B2116800048C46000C2E
:10642000604423801060CAE7221C301C092103F05D
:10643000CBFD80232288DB009A420FD923800B48B2
:10644000C2680169511A4268521A9A42C4DB80221A
:10645000301C0749D20003F0C9FADBE7002ABBD0A1
:10646000131CECE7002AB7D0131CC2E7400B001046
:1064700070100010008000406401001058010010EE
:10648000F0B55F46564644464D46F0B491B0071C01
:1064900004F03AF9A44C061CE26823699A4203D03E
:1064A000A24B1D68012D06D911B03CBC90469946FF
:1064B000A246AB46F0BD33239846804443461B7C3E
:1064C000191C181C07934B1E9941E3682269C9B235
:1064D0009B1A98420BDC002900D181E006239C46E0
:1064E000043B0293002305909946042009E007230A
:1064F0009C46043B02938023DB0005930123052087
:10650000994642464346D27B9B7B120213430DD0F1
:1065100002231943864B1B78002B5DD143465B7DDC
:106520000493002B54D06346069307E04B46029336
:1065300043465B7D0493002B48D0069004230B4315
:106540000893A368012B56D0069B089A0293134028
:10655000DBB29342A8D0012D06D1E36822699B1AD1
:10656000744A12689A429FD10CAA94460B23634442
:106570001A1C381C0A2103F027FD0CABDB7A222BF6
:1065800002D0172B00D08FE76B4D211C2A1C059BD6
:106590006A480AF04EFA6A4A83B2994600041368C0
:1065A000040CE31813600022664B1A600CABDB7A14
:1065B000222B00D1A2E0172B00D191E00023624AE8
:1065C0001360624A13605A4A13706DE70029C2D003
:1065D0000891029B0A1CBAE74B46844602939DE74A
:1065E00006239C46043B02938023DB000593002393
:1065F0000420994685E7E368049822699B1A021EE5
:106600009A42A1D81B1A01330B93002B9CD0442330
:106610009C46B444634620680C93824623696068B4
:106620009C460138814662440A930D9253464A467D
:106630000020AA46B146BB46161C1D1C03900991BA
:10664000039A0A9B9446321C63441A40A95C442076
:106650004A46125C91422ED103990D9A8C466244AF
:10666000101C0C9AD71A099A944605E01A1C32405D
:10667000A95CFA5C91421CD101339842F6D104988E
:1066800061468446039B4E4663441A1C01235546CB
:106690005F460B4219D143469B7DD3180593E368AF
:1066A00022699B1A059A9A4200DD4DE7029B0693E8
:1066B0004AE763460993039B0B9A01330393934282
:1066C000BED14E4655465F463EE702990B42E2D1A7
:1066D00043469B7D9A18079B9342E7DD0592DEE7D0
:1066E000381C291C4A4603F09DF8844200D0DBE6A2
:1066F000174B1A68944664441C605FE7311C0432EF
:1067000035310FA80AF0BCF943461A7A5B7A381C77
:106710001B0213430093291C4A460FAB03F030FAC7
:10672000844200D0C0E6E3E7540B0010780100106B
:106730009401001070010010700C001000800040E7
:106740007C010010740100109801001088010010F5
:1067500054010010F0B55F46564644464D46F0B42D
:1067600089B0041C03F0D0FF061C03F0CDFF06AB7C
:106770009A1C071C0A21201C03F026FCB24B1B6844
:10678000042B6ED8B14A9B00D3589F460238019023
:106790000490D86881464D461869281A019D401B0F
:1067A0008346022800D8FFE018698446586865448B
:1067B0000138AA46814645469F20285C5D460190E7
:1067C00018685544844650460395023002250590CA
:1067D00050466D422D1A9A4605984B4605928946B9
:1067E0006246B4464646A04602950299019C8B46F5
:1067F000811E1940515C8344A14200D00EE3411E2A
:106800001940545CA021715C8C4200D006E3191C35
:106810000140545CA121715C8C4200D0FEE20498DE
:10682000664603305844444649465346059A002874
:1068300000D1B9E0864DA9462D68AC4601256544D6
:10684000854200D0B3E004217F481560016000203C
:106850008049DA68086049461B690D60D31A7E4A90
:106860001360321C33325378012B00D17DE0002BB2
:1068700014D0022B04D106AB9B78222B00D10AE264
:10688000002301205370002109F0CAFC06AB9B785D
:10689000222B63D8714A9B00D3589F4606AB9B7846
:1068A000222B00D1F5E1172BF2D1163B53700120BA
:1068B0000121523709F0B4FCBB7A002BE6D0332318
:1068C000F35C022B00D1ECE20122654B1A7006AB9F
:1068D0009B78DDE7624D2B78002B00D1C6E103F0F9
:1068E00013FF002399464A4606AB5C309A80061C8B
:1068F0000BF05AFF06ABDF1C80460A21201C3A1C15
:1069000003F062FB3B78172B28D1092107AA201C32
:1069100003F05AFB534A06AB9B881188524F9942A9
:1069200000D1CBE2494613803960424669468A80ED
:106930008A8892469A4211D84C4B201C191C9946C1
:1069400003F054F806AB80B29880824500D1BAE2D9
:10695000201C02F0EFFE00233B602B7009B03CBC12
:1069600090469946A246AB46F0BD06AB9B78172BE6
:1069700000D16AE1002501205570002109F050FC8A
:106980003B4B1D6006AB9B7882E703F0BDFE3949A7
:1069900080460B78022B00D190E1374B374A9D6837
:1069A0001068012D00D1F1E6294A12689446DA6890
:1069B0001B69D31A9C4500DB53E7274A0023224872
:1069C0001360244A036013600B704AE729490B786F
:1069D000022B00D129E2284BDA681869121A1C48E8
:1069E0000068824200DD5FE11B4A10688446D86877
:1069F0001B69C31A9C4506D0002313481360154A2F
:106A0000036013600B701E4D2B78002BA6D028E777
:106A100003F07AFE194A13689946174B99680129C1
:106A200000D1B6E100210A4A1160DA681969521AE8
:106A300014490A60DA681B69D31A074A11688B4245
:106A400000D10EE70B49B9E7780100104838010082
:106A50005C01001080010010680100105C3801002A
:106A6000B10100106C010010AC010010701000109A
:106A7000600100109D010010540B00107401001003
:106A80006C0C00107001001003F03EFED8498446E3
:106A90000B78022B00D111E1D64BD74A9D681068C4
:106AA000012D00D080E7013801900390D86881461D
:106AB0004D461869281A019D401B8246012800D8BE
:106AC00072E7281C1D699346A84640440190586807
:106AD000013880469F20814660464D46405D019DBD
:106AE00002901868013581465046013804909A4654
:106AF0004A4643460020A046894605950199029CD6
:106B000009181940515CA14200D0E6E00599A02582
:106B100009181940545C6146495D8C4200D0DCE0A4
:106B2000039D4446AC460225A846C44460444946F9
:106B300053465A46002800D136E7B04DA9462D6885
:106B4000AC4601256544854200D030E70323AC49BB
:106B50000B600021AB4B19604B461D60156080E651
:106B600006AB9978A24B99461B789C46022B00D124
:106B7000CFE0A048C36805695B1BA34D2A68934218
:106B800000D1BEE00023984642469E4B1A60434621
:106B90004A461370C36802699B1A2B60172900D1FB
:106BA0005FE6222900D15CE600F0A4FC43462B609E
:106BB00057E603F0A9FD3323C35C032B00D9CDE6D0
:106BC000201C02F0B7FD201C02F09EFCC6E603F07C
:106BD0009BFD3323C35C022B00D1A7E0032B1CD009
:106BE000002B00D0BAE618E003F08EFD011C051C56
:106BF000061C353107A8042209F042FF3323EB5C61
:106C00003336012B00D1C0E0002B00D1ADE0022BC8
:106C100000D192E0032B00D0A0E6201C02F074FC0F
:106C20009CE603F071FD3323C35C022B5ED9032B7A
:106C300000D093E63330C279837912021A43201CC4
:106C40000221012302F08AFB88E603F05DFD6F4B11
:106C50001A78002A03D000226D491A700A60332383
:106C6000C35C022BD6D8002B00D033E6694A1378D8
:106C7000002B2AD13330C37A817A1B020B4301D017
:106C800001231370201CFFF787FB201CFFF7F8FB84
:106C900064E6203B537003F037FD3323C35C022BC3
:106CA000BBD9032BEED059E60020554A554D106054
:106CB000554A286010600870844698E60023504AC0
:106CC0001360514A13600B70CBE5022BDAD100231D
:106CD000201C137002F02EFDD4E704990130884285
:106CE00000D00BE74446494653465DE63330C2794F
:106CF000837912021A43201C0121012302F02EFB8A
:106D00002CE66346002B00D0ABE54A4601331370F6
:106D1000A7E53B4A013B136000234A461370354AFE
:106D2000D36812699B1A384A13609AE5314BDA68C6
:106D30001B699A4200D070E710E62E4BDA681B6997
:106D40009A4200D1B3E0314D2B78002B09D1727AF1
:106D5000337A12021A43201C07A902F075FC0123A2
:106D60002B7001222C4B1A60F8E5284D2B78002B54
:106D700000D0F3E5727A337A12021A43201C07A975
:106D800002F062FC01232B70E8E5201C02F0F4FB0A
:106D9000E4E5D9681D69491B4D46491B8C4600D165
:106DA00040E61D681969AB465D684944013D0291A2
:106DB000019529405D46695C9F25405D8246002023
:106DC0008046514558D149460C4801314144016043
:106DD000002900D129E602231160094A136000232B
:106DE000094A1360074A13600122014B1A7038E503
:106DF0009D010010540B0010740100105C01001084
:106E0000780100108001001068010010A40100103A
:106E1000A00100109C0100106001001003990130D6
:106E2000884200D0E1E466465CE7002398462C4A9D
:106E3000201C136042462B4B0A701A602A4B1A60C2
:106E400002F078FC294800F055FB294D281C00F081
:106E500051FB291C274A0D23274809F0CBFD291C8B
:106E6000264A0723244809F0C5FD4346244D201C2B
:106E70002B7002F049FBC7E58A45A4D0101C002105
:106E80006246844601318846914200D1CAE50298A3
:106E9000019D081828405D46285C5045F2D16246A5
:106EA00091E7184B1B68002B00D0EFE40CE5201C89
:106EB00002F062FB0022134B1A604FE53A68042A85
:106EC00000D945E531E56A464346301C9380494682
:106ED00052460AF069FC002800D13CE538E5C0467E
:106EE000780100106801001074010010540B0010AC
:106EF000400B0010E838010000800040F838010025
:106F00006C0C00106001001000B58BB0012816D089
:106F1000402307913E20FA2106930A4B05908900F1
:106F20001868089209F04EF8074B099001A905A8C6
:106F30009847019843425841C0B20BB000BD80232E
:106F40009B00E6E770140010F11FFF1F00B58BB027
:106F5000012816D0402307913D20FA2106930A4BC1
:106F6000059089001868089209F02CF8074B0990E1
:106F700001A905A89847019843425841C0B20BB0F7
:106F800000BD80239B00E6E770140010F11FFF1F77
:106F9000A0230022DB059A707047C046A02301227F
:106FA000DB059A707047C04608B5031C0A1C0248EE
:106FB000191C09F093FB08BD0000044010B582B015
:106FC0006B46DC1D211C0122024809F087FB20785A
:106FD00002B010BD0000044008B5031C0A1C0248A2
:106FE000191C09F035FB08BD0000044000B583B052
:106FF0006B46D91D08700122024809F029FB03B035
:1070000000BDC0460000044010B51E4C0021201CED
:107010000622822309F058FA201C0021082281232D
:1070200009F052FA201C00210922812309F04CFAB0
:10703000201C00210222102309F046FAA0228023FE
:107040000421D2059B01D0580F4C01438020D15020
:10705000D158C0030143D150201C09F0D9FBFF22B5
:107060002368201C9343F83A13432360012109F05D
:1070700095FB201C054909F099FB02236268134324
:10708000636010BD004004400000044080969800FA
:1070900030B585B0102216496846A02409F0F0FCEE
:1070A00001250023FA20E405A5708000A37500F0F7
:1070B00089F910481049A57503F034F80F481049B4
:1070C00003F042F80F48104903F054F801206946D4
:1070D00003F088F9431C00D1FEE70C4800F072F978
:1070E000D8200321400101F0ADFF05B030BDC046FE
:1070F00000390100916F00009D6F0000BD6F00001E
:10710000ED6F0000A96F0000D96F0000102700008C
:10711000F0B5474680B403F0F7FA041C03F0F4FA24
:107120000222794B061C19680A4200D01A60774D7A
:10713000774A2B683334581C13782860002B05D10C
:10714000E17BA77B09023943884630D1714B724FEE
:107150009C461B78002B26D13968637B227B1B025F
:1071600013438B4203D8002362463B6013706B4F7E
:107170003B78002B60D16A496A4A0B78012B00D119
:1071800072E01368F427FF37BB4203D902230B7068
:1071900000231360FA21890008F014FF0F1E19D094
:1071A00004BC9046F0BD3B68591C3960D5E75E4F82
:1071B000BC466146FF6809697F1A6FD05B498C46FF
:1071C0000968B94200D188E0634600221F60584B2D
:1071D0001A60BBE7002009F035F82F60554D523694
:1071E0002B6801332B60337D002B5AD1737D002B2C
:1071F0005CD151490B78012B5ED0E37AA27A1B0255
:10720000134307D04D4A1068834203D802230B7002
:10721000002313604A4B1B78002B29D128683C219E
:1072200008F0D0FE0029BBD12960737D002BB7D0B8
:107230000122444B1A70B3E7434B984642461B6801
:107240000133136009F020F8002816D000234246CD
:10725000136001223B703D4B1A60314928680B785E
:10726000304A012B00D08CE713680133136089E7A3
:10727000374A136801331360D0E743461A68354B29
:107280009A42EAD903F044FA03F01CFBBFF34F8F94
:10729000314A324BDA60BFF34F8FFEE7234B9C46F7
:1072A00092E701F069FE737D002BA2D000F0B0FFE1
:1072B00021490B78012BA0D1294B1A68294B18685A
:1072C0009C46824214D028480768284863461A60C2
:1072D00000221A4B07601A608FE7154F3968013199
:1072E0003960414500D231E701213B6011702DE743
:1072F0001D4807681D4803689F42E7D10F4A13687D
:107300000133136079E7C04600400140A801001036
:1073100094010010A4010010A0010010B0010010A1
:107320009D01001080010010540B00109801001006
:10733000880100108C0100109C01001084010010D5
:10734000B10100104C0100109001001000E100E0BC
:10735000AC010010871300000400FA0500ED00E006
:10736000580100103C0B001054010010380B0010A5
:1073700038B5124C201C09F0A3FA09F093F8051C4B
:10738000201C09F0BBFA0823FA216269281C134368
:107390006361890008F016FE1023E0616269C02174
:1073A00013436361012362684900134380226360D1
:1073B000034BD2025A501A6038BDC046004001400B
:1073C00000E100E082B00190019B5A1E0192002B67
:1073D000FAD102B07047C04608B503480349044AD1
:1073E00009F02EFB08BDC04600800040540B001081
:1073F000400B0010F8B5041C63780078A1781B02DC
:10740000034309041A1C0B1CE178134309061943B2
:10741000364809F0B2FA2379072B57D0082B3CD114
:107420001F200F211B260B2507270322A379012BE1
:1074300028D0022B24D163793A1C012B27D10A1CB6
:107440002A4D2B48EA6000210722812309F03CF8ED
:10745000812327480021112209F036F8E379012B16
:107460003BD0002B29D0022B1DD0032B07D1C222E9
:107470002B6993432B613123EA6C1343EB64F8BD12
:107480000123A3716379301C291C012BD7D0002B59
:10749000D6D0022B04D1021CD2E708232371BFE708
:1074A00000236371CCE7112280231148002109F0E9
:1074B0000BF8A0230022DB055A74C2222B699343E8
:1074C0002B61EB6C913A9343EB64D8E71E200E21BD
:1074D0001A260A2506270222A8E73122EB6C9343DD
:1074E000EB64C0232A6913432B61C8E70080004086
:1074F0000040044000230361C360704708B5021CCC
:107500000B1C0248024909F094FA08BD00800040B3
:10751000540B001008B5021C0B1C0248024909F06C
:1075200069FA08BD00800040400B0010F8B503F078
:10753000EBF8041C514809F0EDF94A23E05C4A34A9
:107540006378A1781B02034309041A1C0B1CE17821
:10755000134309061943494809F00FFA2379072B09
:1075600000D17BE0082B60D11F200F211B260B25AB
:1075700007270322A379012B4CD0022B48D1637932
:107580003A1C012B4BD10A1C3C4D3D48EA600021BE
:107590000722812308F098FF812339480021112216
:1075A00008F092FFE379012B5FD0002B4DD0022B26
:1075B00041D0032B07D1C2222B6993432B61312386
:1075C000EA6C1343EB64C1232C4C2E49A360413B6E
:1075D000236380230122DB002B4808F07BFF8023FC
:1075E0002A490122DB002A4808F074FF0523C5213F
:1075F000626889001343274A63605058264B034052
:107600008020C0010343535080239B031360F8BDC7
:107610000123A3716379301C291C012BB3D0002BEB
:10762000B2D0022B04D1021CAEE7082323719BE7E2
:1076300000236371A8E7112280231148002108F07C
:1076400043FFA0230022DB055A74C2222B69934317
:107650002B61EB6C913A9343EB64B4E71E200E214F
:107660001A260A250627022284E73122EB6C93436F
:10767000EB64C0232A6913432B61A4E70080004018
:1076800000400440B4050010540B0010B401001079
:10769000400B001000E100E0FF00FFFFF0B54D4699
:1076A00044465F465646F0B40D1C041C95B002914A
:1076B000079200210422049009F0E6F92B781A02BF
:1076C0006B78D3182380AA781302EA78D21893B281
:1076D000120401D500F082FC5A040499120FCA70FA
:1076E0005A0501D501220A719A0502D50122049991
:1076F0004A71DA0502D5012204998A711A0602D567
:1077000001220499CA7102990F22081C041C049DCD
:1077100013402B720A794B791202D21892B26A8105
:107720008B791902C379CB189BB2AB81017A08021D
:10773000617A4118E981A17A0802E17A4118298227
:10774000211C0C3103910021069108A90591002A02
:1077500000D19CE000239B4600223024039B019231
:10776000904691460599A24661E0041C3F26B44329
:10777000C02C00D12EE101239C46E144002D66D0AF
:107780005346013B5B1B98B282461B0400D546E181
:107790004346002B00D1A9445C465E46101D814241
:1077A0006441081D82427641301C20430924A446CE
:1077B000AC45A4416B1E64429BB2044200D11BE164
:1077C000101C03240843044200D015E1281F80B296
:1077D000800801308700BFB2022B00D808E19C4628
:1077E00000260024031C905901348851A0B20436AD
:1077F0009842F8D36346D81BCC19D61980B2BD4243
:1078000000D1E5E035782570002800D1E0E07578FA
:107810006570012800D1DBE0B0780133A070C81892
:10782000D3182E220270019A411C01320192444663
:1078300018785A1C85B2002C97D0041C3F26B443FC
:10784000C02C00D1C9E001239846002D98D1019A9F
:107850000B1C002A02D12E3201330A705A461A70CC
:107860004B46013300D1DAE0039B4B4404330393CE
:10787000002B00D1D3E0069B01339BB206931A1C68
:10788000049B5B89934200D966E7049B9B89002295
:10789000069208AA0592002B00D121E300239B4603
:1078A00000223024039B0192904691460599A246FE
:1078B0005FE0041C3F26B443C02C00D1BAE0012392
:1078C0009C46E144002D63D05346013B5B1B98B2BC
:1078D00082461B0400D5A2E04346002B00D1A944F8
:1078E0005C465E46101D81426441081D824276411D
:1078F000301C20430924A446AC45A4416B1E6442BD
:107900009BB2044200D1A7E0101C032408430442A8
:1079100000D0A1E0281F80B2800801308700BFB2EC
:10792000022B00D894E09C4600260024031C9059AA
:1079300001348851A0B204369842F8D36346D81B6C
:10794000CC19D61980B2BD4200D171E035782570CE
:1079500000286DD075786570012869D0B078013342
:10796000A070C818D3182E220270019A411C01324F
:107970000192444618785A1C85B2002C99D0041CF8
:107980003F26B443C02C58D001239846002D9BD1EC
:10799000019A0B1C002A02D12E3201330A705A467A
:1079A0001A704B4601333AD00A22039B94464B444B
:1079B000191C8C4462461B7803924A781B029B1860
:1079C0009BB20F2B00D981E2B54A9B00D3589F464A
:1079D000013324E702229446E1443F225B781040C1
:1079E0000002C018029B9C466044421C05782AE7AE
:1079F000181C161C0C1C05E700200133145C0C54E9
:107A000001309842FAD10AE70A1C8B7A0B32D3185C
:107A10001A7801329B180393002B00D056E2FF2006
:107A200040B215B03CBC90469946A246AB46F0BD6C
:107A3000013396E702229446E1443F225B781040EE
:107A40000002C018029B9C466044421C05789BE7DC
:107A5000181C161C0C1C79E700200133145C0C5414
:107A600001309842FAD17CE7002230200C3101929B
:107A7000904691460B1C0391059A844660E0051CD4
:107A80003F26B543C02D00D152E201239A46D1448E
:107A9000002C65D06346013B1B1B98B284461B0437
:107AA000BDD44346002B00D1A1445D465E46081D6F
:107AB00082426D41101D81427641301C28430925C8
:107AC000AA46A245AD41631E6D429BB2054200D15C
:107AD00048E2081C03251043054200D042E2251F5E
:107AE000ADB2AD080135AF00BFB2022B00D835E210
:107AF0009A46002600202B1C8D590130955185B2E5
:107B000004369D42F8D35346D81BD519CE1980B2FE
:107B1000BC4200D1ECE134782C70002800D1E7E1C0
:107B200074786C70012800D1E2E1B0780133A8705C
:107B3000D018CB182E2101700199421C01310191FE
:107B400045461878591C84B2002D98D0051C3F2654
:107B5000B543C02D00D1EEE101239846002C99D108
:107B60000199131C002900D134E25B4613704B4687
:107B7000013300D153E7039B4B4403934CE70022AE
:107B80003020039B0192904691460599844661E01E
:107B9000051C3F26B543C02D00D1ADE101239A4617
:107BA000D144002C66D06346013B1B1B98B284462F
:107BB0001B0400D533E74346002B00D1A1445D46AA
:107BC0005E46101D81426D41081D82427641301C87
:107BD00028430925AA46A245AD41631E6D429BB2CA
:107BE000054200D1C6E1101C03250843054200D020
:107BF000C0E1251FADB2AD080135AF00BFB2022B09
:107C000000D8A3E19A46002600202B1C955901308C
:107C10008D5185B204369D42F8D35346D81BCD19F9
:107C2000D61980B2BC4200D164E134782C700028AF
:107C300000D15FE174786C70012800D15AE1B0780E
:107C40000133A870C818D3182E220270019A411C63
:107C500001320192454618785A1C84B2002D97D003
:107C6000051C3F26B543C02D00D148E101239846AD
:107C7000002C98D1019A0B1C002A00D1A6E15A468B
:107C80001A704B46013300D1C9E600223020039B15
:107C900001924B44904691460393059A844663E0D3
:107CA00010390100041C3F26B443C02C00D173E1FD
:107CB00001239A46D144002D66D06346013B5B1BED
:107CC00098B284461B0400D5A9E64346002B00D198
:107CD000A9445C465E46081D82426441101D8142F3
:107CE0007641301C20430924A246AA45A4416B1EBC
:107CF00064429BB2044200D160E1081C032410439B
:107D0000044200D05AE12C1FA4B2A4080134A700F9
:107D1000BFB2022B00D84DE19A4600260020231C5A
:107D20008C590130945184B20436A342F8D853469A
:107D3000D81BD419CE1980B2AF4200D12AE13578D0
:107D40002570002800D125E175786570012800D1E3
:107D500020E1B0780133A070D018CB182E2101702B
:107D60000199421C0131019144461878591C85B291
:107D7000002C97D0041C3F26B443C02C00D10EE148
:107D800001239846002D98D10199131C002902D196
:107D90002E31013311705A461A704B46013300D10F
:107DA0003DE6039B4B441433039335E60022302019
:107DB000039B019290469146059984465EE0051C1E
:107DC0003F26B543C02D00D1A4E001239A46D144FB
:107DD000002C62D06346013B1B1B98B284461B04F7
:107DE00000D51CE64346002B00D1A1445D465E460B
:107DF000101D81426D41081D82427641301C28438E
:107E00000925AA46A245AD41631E6D429BB20542BB
:107E100000D1B7E0101C03250843054200D0B1E0B3
:107E2000251FADB2AD080135AF00BFB2022B00D89F
:107E300090E09A46002600202B1C955901308D5168
:107E400085B20436AB42F8D85346D81BCD19D619A3
:107E500080B2BC424AD034782C70002846D0747866
:107E60006C70012842D0B0780133A870C818D318BC
:107E70002E220270019A411C013201924546187867
:107E80005A1C84B2002D9AD0051C3F26B543C02D44
:107E900043D001239846002C9CD1019A0B1C002A48
:107EA00002D12E3201330A705A461A704B46013302
:107EB00000D060E6B3E58B7A079A1370CB7A5370E3
:107EC0000B7B93704B7B0E31D3700391069B013378
:107ED0009BB206931A1C049B9B89934200D9DFE452
:107EE000049B1B7A58425841C0B299E50133BDE763
:107EF00001331DE60133A5E602229046C1443F222C
:107F00005B7810400002C018029B98464044421C17
:107F10000478ABE602229046C1443F225B781040D1
:107F20000002C018029B98464044421C0478B0E707
:107F300002218846C1443F215B7808400002C018F6
:107F4000029B98464044411C047805E6181C161C08
:107F50000D1C6AE6181C161C0D1C7CE7181C0E1C58
:107F6000151CD8E5002001330C5C145401309842F4
:107F7000FAD1DDE500200133145C0C540130984245
:107F8000FAD15FE600200133145C0C5401309842B2
:107F9000FAD16BE70133DFE602218846C1443F2175
:107FA0005B7808400002C018029B98464044411C80
:107FB0000578E5E6181C0E1C141CC0E600200133F1
:107FC0000C5C145401309842FAD1C5E62E320133CC
:107FD0000A7054E62E3101321970C6E50122049967
:107FE0008A70FFF779FBC046034B044A1870044BB4
:107FF0001960044B1A807047680B001022110000B2
:10800000700B0010740B0010F0B544465F464D46EF
:108010005646F0B4784B834698461878C2239B00A6
:108020009C46400193B060440C1C029200F0DCFFBF
:10803000051E60D04346187882239B009C46400171
:10804000604400F0D1FFC3064AD4030700D5BCE06A
:108050004346187801F0CEF80024051E1ED0434692
:108060001C78664B021C9A46196880235B00984274
:1080700020D802A884460A23634492B20093201CAD
:1080800005AB01F033FE534685B2196806A8029A83
:10809000FFF704FB041E012C00D1A1E0584B1A6825
:1080A000022A09D860B213B03CBC90469946A24659
:1080B000AB46F0BD1A1CDCE70021524A1960137868
:1080C000012B00D991E001331370434618784B4BD4
:1080D0002A1C1968352300935B4601F051FDE1E746
:1080E0004346187882239B009C464001604410213F
:1080F00000F0A8FFACE7434602211878424A01236A
:1081000001F02CF93D4B414A9A461B6806A8994656
:1081100049461388CD7001339BB213801A0A4B7005
:1081200001230A708B704B710D718D71CD710D72C1
:108130004D728D72CD72211C0AF014FB06A80AF054
:1081400033FB4E4683B20C36039306AD281C2E211A
:108150000AF0DCFA041E16D0431B9CB2771C337065
:10816000002C1ED09BB21E1C291C1A1C381C0AF0A5
:1081700045FB331CE4430133ED18039BBE19E018A3
:1081800083B20393E2E7039A771C3270002A08D087
:10819000291C039D381C2A1C0AF030FB7819471C47
:1081A0000470012300227B70FB7043463A701878FC
:1081B0005346BA7019684B460437FA1A352392B2FF
:1081C00000935B4601F0DCFC34E7434618788223D9
:1081D0009B009C4640016044082100F033FF37E7D4
:1081E0004346187801F090F958E743461878117023
:1081F000FF2401F089F955E7680B0010700B00109F
:108200006C0B0010B4090010611E0000740B00100C
:10821000024A1368013313607047C0466C0B0010AC
:10822000F02008B500010849042200F077FFA020E3
:108230000649C000042200F071FF8020044940007C
:10824000042200F06BFF08BDC8090010B809001037
:10825000C409001008B58021002000F0F3FE0020C2
:1082600000F0C2FE902003490001062200F056FFF4
:1082700008BDC046780B001008B58021002000F032
:10828000E1FE002000F0B0FEF0200C4900010422C5
:1082900000F044FFA0200A49C000042200F03EFF85
:1082A000802008494000042200F038FF9020064951
:1082B0000001062200F032FF08BDC046C8090010C8
:1082C000B8090010C4090010780B001070B5094BF4
:1082D000094D0A4C2B600A4B0A4E23600A4B1E6064
:1082E000002800D02860002900D02160002A00D09A
:1082F0001A6070BD2182000004010010000100100E
:10830000798200005582000008010010902030B5ED
:1083100083B000016946062200F0C4FE01222C4B06
:108320002C491B681A705A7005329A700022DA7054
:1083300009681A81080E1871080C5871080A98719A
:108340008020D971002198722348D972047819735A
:1083500059739973D973197459749974D9741975B7
:1083600059759975D975197659769976D9761C7794
:1083700044785C7784789C77C478DC77202405790E
:108380001D55447921201C540130195401301954D1
:108390005A629A62DA621A635A639A63DA631A64F7
:1083A0005A649A64DA641A655A659A65DA651A66D7
:1083B0005A669A66181C1A1C00216C32EC3002C2F4
:1083C0008242FCD1EC220549995003B030BDC04631
:1083D000880B0010800B0010780B00106382536331
:1083E000F0B55F46564644464D46F0B48BB0FFF7B5
:1083F0008DFF674B352218689B46F0233D21FA24F8
:10840000C254EF3BBC328354013283540132815455
:108410003639013281545F49013283540A78F53389
:10842000C2544A780133C2548A780133C254CA789C
:108430000133C2540B79035502934B79FB21EE3C77
:1084400043540131445400249C46534B01311E785F
:108450004454002E00D184E0EB3944184F1CE8341A
:1084600011398DB226715E5DB9B2002EF5D18E1D27
:10847000B6B2741BE31FCC1D9A46A3B2013403931A
:10848000A3B201340493A3B201340593A3B201341F
:108490000693A3B2013407930F1CA3B2013499468B
:1084A000A3B29846063502340E37EDB2BFB2A4B27D
:1084B0006346401800933949029BEC3008F0D4FB26
:1084C0005B4619685346CB18E8331D7137230622E3
:1084D00001208E19E8363371039BCF19CB18E8338E
:1084E0001A71049BE837CB18E8331871059B0230EA
:1084F000CB18E8331871069BCB18E8331A71079B29
:108500000932CB18E8331A714B46CB18E8332B32BB
:108510001A714346CB18E83301321A71FF233B71BD
:108520003823FF339C4209D89C22002052000B19AB
:108530000134E833A4B218719442F8D101235B42AC
:108540000993174B8922187843239200009309ABB3
:1085500001F016FB0BB03CBC90469946A246AB46D8
:10856000F0BD1F239846013B9946013B0793013B11
:108570000693013B0593013B0493013B0393083BA6
:108580002027212406259A461826122190E7C04666
:10859000880B0010780B0010100100108C390100BE
:1085A0008C0B0010F0B55F4656464D464446F0B47D
:1085B00091B0FFF7ABFEE54B1B78033B012B00D8D6
:1085C00093E10123FF245B420F93E14B9846186827
:1085D0000FAB0D933522F0230321FA25C254EF3B54
:1085E000BC328354013281543A31013281543639DC
:1085F00001328154D749013283540A78F533C25489
:108600004A780133C2548A780133C254CA7801339C
:10861000C2540B7943550C9349798C46FB2165462E
:108620004554FF2C00D11CE12323182612211125CB
:10863000122410279A46013B0B93013B9946013BBC
:108640000A93013B0993013B0893013B0793013BCC
:108650000693013B0593013B0493013B03930C23D9
:10866000C719E8373B7100234719E8373B71BA4F08
:108670003B78002B00D156E10519E8352B717E7847
:10868000611C002E00D157E14118E8310E71BE780F
:10869000A51C002E00D14AE14519E8352E71FE785F
:1086A000E11C002E00D145E14118E8310E713E7900
:1086B000251D002E00D144E14519E8352E717E7943
:1086C000611D002E00D13FE14118E8310E71BE79E5
:1086D000A51D002E00D131E14519E8352E71072581
:1086E000E11D0F1CAB1DCC1D9A46A3B201340393B0
:1086F000A3B201340493A3B201340593A3B20134AD
:108700000693A3B201340793A3B201340893A3B232
:1087100001348E1D0993A3B20134B6B20A93103707
:10872000A3B2751B99460234BBB2073D0B93A4B2AA
:1087300063464018009389490C9BEC3008F094FA8A
:108740004346196853464D19E8352B7137230822E3
:1087500003208E19E8363371039B9C26CB18E8332F
:108760001A71049B073ACB18E8331A71059B05323E
:10877000CB18E8331871069B7600CB18E8331A71D2
:10878000079B0932CB18E8331A71089B2B32CB18A0
:10879000E8331A71099B0132CB18E8331A710A9B2E
:1087A0001C3ACB18E8331A714B46CB18E833023227
:1087B0001A710B9B361BCF18FF23E8373B71231C24
:1087C000EC33CA1852420240B24200D9321C002A8D
:1087D00012D000250819E8300571601C012A00D16B
:1087E0009FE00818E8300571A01C032A00D098E02B
:1087F0000818E83005710334B61A301F80080130BC
:108800008500D218AC46002300278A1801330025C2
:1088100080C28342FAD36444B44512D038220B1983
:10882000E8331D71FF32631C93420ADCCB18E83336
:108830001D719C2302345B009C4202D00C19E83469
:108840002571474B892218784323920000930D9B92
:1088500001F096F911B03CBC90469946A246AB4651
:10886000F0BD3225FE26013145542E3D01314554DF
:108870003C492F230F789A4687554E78013B065581
:108880008E7801340655CC780221FF3144543624C9
:10889000013144540421FF3145543349CE340D781D
:1088A0002426055506244D78FF3405558D7801346E
:1088B0000555CC7808210B93013B9946013B0A935F
:1088C000013B0993013B0893013B0793013B06934E
:1088D000013B0593013BFF310493013B4454039357
:1088E000E9391D251E241C27B9E6194B186898463E
:1088F00000238372C3721B4B1A7802735A78427337
:108900009A788273DB78C3730FAB191C0D93164BE7
:108910001A780A705A784A709A788A70DC78CC7023
:1089200058E6041C68E7062354469A4600E7291CCB
:108930000225D6E60325D4E60125D2E6291C062524
:10894000CFE6291C0425CCE60525CAE6B5090010AA
:10895000880B0010780B0010100100108C390100FA
:108960008C0B0010C8090010840B001070B584B087
:10897000FFF7CCFC3A4B002219683520F023F22493
:108980003D258A72CA72C854EF3BBC300B54ED3897
:10899000085501340D55363D01340D5501340B5544
:1089A000304B01341D780D555D7801340D559D789F
:1089B00001340D55DD7801340D551D7901340D5507
:1089C0005C79FB23CC5432240133CC540133C8549A
:1089D000254BCC341D780D555D7801340D5580251F
:1089E0009E786D004E55DD780223FF33CD54362539
:1089F0000133CD540423FF33C8541C4B01301D7880
:108A0000FF300D5406205D78FF300D549D78013005
:108A10000D54D8780823FF33C8540133CC540A23AB
:108A2000FF33CA540133CA540C23FF33CA5489227A
:108A30000B1C9200881800220D33FF3304C38342BD
:108A4000FCD101235B420393094B8922187843230D
:108A50009200009303AB01F093F804B070BDC046E0
:108A6000880B0010780B0010C8090010840B001050
:108A70008C0B0010F0B54D4644465F465646002329
:108A8000F0B4C14C89B0E3560525062B07D1281C4C
:108A900009B03CBC90469946A246AB46F0BDC22305
:108AA0009B009C46B94D28784001604400F09CFA38
:108AB000222805D0287802214422002300F04EFC11
:108AC000287800F097FB021E2DD12378042B00D9C3
:108AD00007E1AF4A9B00D3589F460022AD4B0125CA
:108AE0001A60FFF77DFC01232370D0E7AA4B1B68B7
:108AF0005A1C51D0A94E5B08326804259342C6D255
:108B0000A44B1A68A64B1A60A64A13680133136077
:108B1000FFF748FD0A210023A34A33601160A34AEE
:108B200025701370B3E702AB9C460E26A04F664437
:108B30002878009606AB396801F0D8F83388432BC3
:108B40002CD02378042B00D9CBE09A4A9B00D35831
:108B50009F460023954DEB56012B00DCB1E0FFF75B
:108B60003FFC0123237000230A218C4A2B701360E1
:108B70008D4A012511608AE700238C4DEB56012BAD
:108B800000DCB0E000230A21844A2B701360864A7F
:108B90002370116000257AE7042578E73B68864A50
:108BA0001E7F11788E4290D15E7F51788E428CD19B
:108BB0009E7F91788E4288D1DE7FD1788E4284D19B
:108BC00020215E5C11798E4200D07EE7212152790E
:108BD000595C914200D078E71A1C9C46774B0026DE
:108BE0009946774B80B298466B4B84449A467548B9
:108BF000F032944510D91378062B00D11DE100D82E
:108C0000EEE0352B00D12DE100D801E1362B00D16B
:108C10002FE1FF2B00D028E12378042B61D86A4A8A
:108C20009B00D3589F46022EA6D13A68594B117C1F
:108C300001251970517C5970917C9970D27CDA7041
:108C4000FFF7B0FC267022E7052E55D0062E00D087
:108C50007FE700230A21514A01251360524A11601F
:108C6000524A13700133237011E7052E1AD10023E5
:108C70004E4E4B4A3370474B10781978884203D1D7
:108C800050785978884275D0504B03251B68984717
:108C900000230A21414A33701360434A03331160B1
:108CA0002370F4E6062E00D053E700230A213B4A46
:108CB000042513603C4A11603C4A13700133237051
:108CC000E5E6364C384E236832689A4209D2FFF7FF
:108CD00069FC0023236023680A3333602B78013357
:108CE0002B700125D3E62D4C2F4E236832689A4213
:108CF000F7D2FFF775FBECE7D820400100F074F9DC
:108D0000061CD8200321400100F09CF9304B287844
:108D10003049009311221F4B00F032FF051CD82070
:108D2000311C400100F08EF90D3514D0FFF71EFE06
:108D30001A4A116813685B1A012BFBD900251560CC
:108D40000A22194B1A60194B1D70234B1B68984758
:108D5000257001359BE6214B01251B6898470023B0
:108D60000A210E4A1360104A1160104A137003332F
:108D700023708CE690789978884285D1D278DB7818
:108D80009A4281D1042583E7B50900108C0B0010AD
:108D900050390100C80900100C010010BC09001076
:108DA000C0090010800B0010FC000010D00900105A
:108DB000880B001064390100780B0010CC090010FA
:108DC000840B0010B8090010783901000001001070
:108DD000881300009C3901000801001004010010F4
:108DE000012B53D0002B4FD0032B3ED153789178D9
:108DF00003932B4B1970D17859701179997051796F
:108E00008B465946D970039B9B465A440232F0E682
:108E1000332B2AD1514693780B601B029B46D378A3
:108E200051795B441B029B46137906325B448B46A7
:108E300051461B025B440B60DBE6917853788B460E
:108E4000039349465B460B70D3789B464B46594685
:108E5000597013799B464B465946997053799B46F6
:108E60004B46CEE796780332C3E6931C52789A18A5
:108E7000BFE6414693780B70D3784B7013798B70B3
:108E800053790632CB70B4E60132B2E693780370C0
:108E9000D37843701379837053790632C370A8E690
:108EA000C409001070B5061C90200023294C82B024
:108EB00006220D1C0001211C019300F0F3F86278DA
:108EC00023781343A2781343E278134322791343A0
:108ED0006279134319D101F017FC2123C35C211CD3
:108EE00023702223C35C062263702323C35CA37018
:108EF0002423C35CE3702523C35C23712623C35C56
:108F000090200001637100F009F9F020124B134A20
:108F10001E70134B01A91D60124B00011A60042240
:108F200000F0FCF8F02001A90001042200F0F6F89E
:108F3000802001A94000042200F0F0F800230A215B
:108F4000094A1360094A1160094A1370094A1370EB
:108F500002B070BD780B00108C0B001078563412E4
:108F6000880B0010800B0010BC090010FC000010E2
:108F7000D0090010B5090010024A136801331360CC
:108F80007047C046BC090010044B1A7802705A782A
:108F900042709A788270DB78C3707047C8090010FD
:108FA000044B1A7802705A7842709A788270DB7893
:108FB000C3707047C4090010044B1A7802705A78C5
:108FC00042709A788270DB78C3707047B8090010DD
:108FD000044B1A7802705A7842709A788270DB7863
:108FE000C3707047CC09001030B5154C83B0A3682E
:108FF000051C984723699847236A002B14D0636A9D
:10900000002B11D001A82A0C02702A0A4270857028
:1090100003219847A3699847051C63699847E3684B
:109020009847281C03B030BD2802E369000E98471A
:109030002804E369000E9847E8B2E3699847E9E736
:109040001C010010F0B5164C83B0A368051C0F1C62
:109050009847236998470420636A2843061C002B1D
:109060000ED001A82A0C2D0A027045708670C770B8
:109070000421984763699847E368984703B0F0BDB7
:109080002802E369000E98472804E369000E984718
:10909000F0B2E3699847381CE3699847EAE7C046AD
:1090A0001C010010F0B51C4D83B0AB68071C0C1CF4
:1090B000161C98472B6998472B6A002B14D06B6AB3
:1090C000002B11D001A83A0C02703A0A4270877046
:1090D00003219847201C311C2B6A98476B699847DD
:1090E000EB68984703B0F0BD3802000EEB69984773
:1090F0003804000EEB699847F8B2EB699847002EE8
:10910000ECD0013EB6B20136A619AB699847207083
:109110000134B442F9D1E1E71C010010F0B5474633
:1091200080B41F4C84B0A368061C0D1C171C984704
:10913000236998470420636A30438046002B14D08B
:1091400003A8320C02704246360A46708270032130
:109150009847281C391C636A984763699847E368F5
:10916000984704B004BC9046F0BD3002000EE3699D
:1091700098473004000EE369984743466A46D37126
:10918000D079E3699847002FE7D07E1EB6B201364A
:10919000AE192878E36901359847B542F9D1DCE783
:1091A0001C010010F8B58023400108309B01C7184E
:1091B0000133FF33C618002501E0A54217D0381C43
:1091C000FFF712FF000284B2301CFFF70DFF2418D6
:1091D000A4B2002CF1D0381CFFF706FF000285B2C4
:1091E000301CFFF701FF2D18ADB2A542E7D1281CB6
:1091F000F8BDC046F8B59823400108309B01C71858
:109200000133FF33C618002501E0A54217D0381CF2
:10921000FFF7EAFE000284B2301CFFF7E5FE2418D7
:10922000A4B2002CF1D0381CFFF7DEFE000285B29C
:10923000301CFFF7D9FE2D18ADB2A542E7D1281C8E
:10924000F8BDC046F8B54F464646C0B4002A2BD0FC
:10925000830099465D1C9023ED009B01EE18301CA5
:10926000141C0F1CFFF7C0FE94239B019C468046F4
:109270006544281CFFF7B8FE43461B02181883B24A
:109280004A469846901C1B02221CC00044441818F1
:10929000391CA4B2FFF742FF210A301CFFF7D2FEAF
:1092A000E1B2281CFFF7CEFE0CBC90469946F8BDF3
:1092B000F8B54F464646C0B4002A2BD083009946E5
:1092C0005D1CA023ED009B01EE18301C141C0F1C2C
:1092D000FFF78AFEA4239B019C4680466544281C18
:1092E000FFF782FE43461B02181883B24A4698468F
:1092F000D01C1B02221CC00044441818391CA4B204
:10930000FFF7D0FE210A301CFFF79CFEE1B2281CBB
:10931000FFF798FE0CBC90469946F8BDF8B5A0231F
:1093200045019B010835EE18301C0F1CFFF75CFE51
:10933000A4239B019C466544041C281CFFF754FE93
:10934000240238180419A4B2301C210AFFF77AFE4F
:10935000281CE1B2FFF776FEF8BDC046F0B55F46C7
:1093600056464D464446F0B4804685B08A469146FE
:109370001F1C082800D9B6E00B1C013BDBB2032BF5
:1093800000D9AEE001229A40131C0B221A4200D1F0
:10939000A7E006233B4200D09AE0002F0BD0012922
:1093A00000D191E0022906D1BB0600D495E07BB242
:1093B000FA20002B76DAFBB2019343465E010836B1
:1093C000741CFF34201C1021FFF73CFE201CFFF70B
:1093D0000BFE0028FAD180239B00051C1F21F018EA
:1093E000FFF730FE424601239340DB439BB21A1C39
:1093F00002933E4B41469B461B8813405A461380BE
:1094000043463B4A5B00D55203930023394A5354E9
:10941000C0239B00F518281CFFF7E6FD0028FAD1B1
:109420000F230199301C994353461943FFF70AFE55
:109430004B46002B3ED08023DB00F0184B46190A28
:10944000FFF700FEA023DB00F0186A464B461371BD
:109450001179FFF7F7FD201C0121FFF7F3FD201C18
:10946000FFF7C2FD0028FAD101221740424697407B
:10947000214B41461A8817431F805B46029A1B887E
:1094800013405A4613801A4B039A98520023194AE4
:109490005354281CFFF7A8FD0028FAD06A4643461B
:1094A0001371107940B205B03CBC90469946A24673
:1094B000AB46F0BD114A12491388994601339BB25D
:1094C0008B4207D01380B6E721233B4200D072E7DE
:1094D000FA20E7E70B4B1380ADE7FB0600D566E704
:1094E00069E7FB20DEE7FF20DCE7C046D409001077
:1094F000E0090010D8090010D2090010180100106E
:10950000F0FF000000C0FFFFF8B508282BD8440189
:109510000834661CFF36071C1021301C251CFFF781
:1095200091FD301CFFF760FD041EFAD180239B00E3
:10953000E8181F21FFF786FD0122BA400B490B886E
:1095400093430B800A4B7A00D4520022094BDA5520
:10955000C0239B00EC18201CFFF746FD0028FAD121
:10956000013040B2F8BDFF20FBE7C046D40900102F
:10957000E0090010D8090010F0B5474680B408286B
:1095800059D8470108378046381CFFF72DFD0F23B7
:10959000184001284BD1C0239B00FD18281CFFF761
:1095A00023FD132845D17C1CFF34201C0221FFF72A
:1095B00049FD201CFFF718FD0028FAD1281CFFF7F1
:1095C00013FD142809D0201CFFF70EFD002809D038
:1095D000281CFFF709FD1428F5D1133840B204BC4C
:1095E0009046F0BD201C1021FFF72CFD201CFFF73A
:1095F000FBFC061EFAD180239B00F8181F21FFF701
:1096000021FD434601229A400C490B8893430B806D
:1096100043465A000A4B4146D6520022094B5A543F
:10962000281CFFF7E1FC0028FAD1FC30D6E7FB202C
:10963000D4E7FD20D2E7FF20D0E7C046D4090010D0
:10964000E0090010D8090010F0B54746161C80B498
:109650008846071E082F62D844010834201CFFF7F3
:10966000C3FC0F231840012857D1C0239B00E518E5
:10967000281CFFF7B9FC132853D1434642461978FA
:1096800052780B029B18424692781B029B180139B4
:109690001B02CB18033348D8002E44D0C0231B0133
:1096A000E01804224146FFF739FD80235B01310AAF
:1096B000E018FFF7C7FC8823F1B25B01661CE018D5
:1096C000FF36FFF7BFFC301C0421FFF7BBFC301C4A
:1096D000FFF78AFC0028FAD1154B1B883B411F1C61
:1096E000FB071CD480239B009C460826644404E0AE
:1096F000201CFFF779FC064209D1281CFFF774FCF7
:109700001728F5D1163840B204BC9046F0BD201C95
:109710000821FFF797FCF320F5E7FB20F3E7FF2094
:10972000F1E7FD20EFE7F520EDE7F420EBE7C04699
:10973000D2090010F0B557464E464546E0B4082819
:1097400066D8440108348046201CFFF74DFC0F23E7
:10975000184001285AD1651CFF35281C0821FFF745
:1097600071FC281CFFF740FC0028FAD10122414679
:10977000131C8B40DB439BB29946264B49469A46C5
:109780001B880B4051460B804146234B1B880B41E5
:109790001A423DD1C0239B00E618013BFF3B9C468B
:1097A0000827644404E0201CFFF71EFC07420BD18D
:1097B000301CFFF719FC0028F5D1013040B21CBC69
:1097C00090469946A246F0BD281C1021FFF73AFCAE
:1097D000281CFFF709FC071EFAD11F21201CFFF7E8
:1097E00031FC53464A461B8841461340524613807B
:1097F00043465A00094BD7520022094B5A54301C99
:10980000FFF7F2FB0028FAD1F330D7E7FB20D5E7CA
:10981000FF20D3E7D4090010D2090010E00900109E
:10982000D8090010F0B54D4644465F465646F0B4A0
:1098300083B0051C0191141C082868D80823984699
:10984000400180444046FFF7CFFB0F23184001281A
:1098500000D0BDE0002C00D1BDE0C027BF004744D0
:10986000381CFFF7C1FB172802D01C2800D0A1E04C
:109870005A4B01269B461B882B411E423CD1F820A7
:1098800040014044FFF7B0FB800280B2061CA042BA
:1098900000D9261C0123AB409946514BB6B29A46DB
:1098A000281CFFF77FFC041C381CFFF79DFB1728C2
:1098B00001D01C285BD153464A461B8813422FD047
:1098C000A64224D844460134281C0199321CFF3496
:1098D000FFF7B8FC201C2021FFF7B4FB201CFFF78A
:1098E00083FB0028FAD15B464A461B88301C1A438A
:1098F000131C5A4613800CE080239B004344181C21
:109900009946FFF771FBC30657D403070BD4012018
:10991000404203B03CBC90469946A246AB46F0BDDF
:10992000B442BDD3CEE746460136FF36301C102187
:10993000FFF788FB301CFFF757FB041EFAD148469F
:109940001F21FFF77FFB01225B46AA401B88934340
:109950005A461380234B6A00D4520022224B5A5598
:10996000381CFFF741FB0028FAD10D38D1E74346F8
:109970005E1CFF36301C1021FFF764FB301CFFF724
:1099800033FB041EFAD18020800040441F21FFF7E2
:1099900059FB5B464A461B8893435A461380114B3A
:1099A0006A00D4520022104B5A55381CFFF71CFB9A
:1099B0000028FAD107204042ABE748461021FFF7C4
:1099C00041FB5B46AE405A461B88B343138056E7C3
:1099D000052040429DE70E2040429AE7D40900103E
:1099E000D2090010E0090010D8090010F0B55F4658
:1099F0004D4656464446F0B485B0051E0291934646
:109A0000082D64D846010836301CFFF7EDFA0F2701
:109A10000740012F00D0A5E05B46002B00D1A4E059
:109A2000F0235B01F018FFF7DFFAC0239B00994693
:109A3000F8235B019C46B444634601934C4BAF4012
:109A40009A460390B144281CFFF7D4FB041C4846F7
:109A5000FFF7CAFA17280DD01C283BD1002C0FD1D4
:109A6000281CFFF79FFB80460198FFF7BDFA800294
:109A7000804553D053461B883B4225D0002C26D02E
:109A8000039B9B029BB21A1C5B4500D95A4693B2BA
:109A9000A34200D9221C94B20136281C0299221C30
:109AA000FF36FFF705FC301C4021FFF7CBFA301CD6
:109AB000FFF79AFA0028FAD1201C05B03CBC90466A
:109AC0009946A246AB46F0BD002CBCD0D8E7012099
:109AD0004042F2E7731CFF33181C10219846FFF731
:109AE000B1FA4046FFF780FA041EFAD180239B00AA
:109AF000F0181F21FFF7A6FA1E4A1388BB431380F4
:109B00001D4B6A00D45200221C4B5A554846FFF7A1
:109B10006BFA0028FAD107204042CEE7731CFF33CE
:109B2000181C10219846FFF78DFA4046FFF75CFAA3
:109B3000041EFAD180239B00F0181F21FFF782FA40
:109B40000C4A1388BB4313800B4B6A00D45200228B
:109B50000A4B5A554846FFF747FA0028FAD1072022
:109B60004042AAE705204042A7E70E204042A4E772
:109B7000D2090010D4090010E0090010D809001023
:109B8000F8B55F4656464D464446F0B41F1C0AAB36
:109B9000061C8B46141C1D88082800D98BE008225F
:109BA0009046430198444046FFF71EFA0F231840A1
:109BB000022802D0042800D08DE0002C00D18DE0D6
:109BC0003B68002B00D18CE0002D00D17DE0C0234C
:109BD0009B004344181C9946FFF706FADF232238FE
:109BE000184200D074E0C020000104224044391C17
:109BF000FFF794FA80204001290A4044FFF722FA37
:109C000088204001E9B24044FFF71CFAF8204001E7
:109C10004044FFF7E9F9800280B2051CA04240D819
:109C20000127314BB7409A46ADB2301CFFF7BAFA64
:109C3000041C4846FFF7D8F9002834D053461B8847
:109C40003B422BD0A54236D8301C59462A1CFFF780
:109C5000F9FA43465C1CFF34201C2021FFF7F2F97F
:109C6000201CFFF7C1F90028FAD153461B88334165
:109C70001E1CF3071FD48024A40044441026082788
:109C800001E007421AD1201CFFF7AEF90642F8D0D6
:109C9000201C1021FFF7D6F9281C06E0AC42C4D3E3
:109CA000D2E7251CBCE7042040423CBC90469946C4
:109CB000A246AB46F8BD01204042F6E7201C082131
:109CC000FFF7C0F90D204042EFE70B204042ECE7E0
:109CD00007204042E9E705204042E6E70E204042E7
:109CE000E3E70C204042E0E7D2090010F0B54D4612
:109CF0005F4656464446F0B487B0051E0291009276
:109D00000393082D32D80822934643019B445846BA
:109D1000FFF76AF90F2301900340022B02D0042BB6
:109D200000D0C7E0009B002B00D1C6E0674B9A46ED
:109D30006B00994653464A469B5A002B19D101267F
:109D4000C027634BAE409846BF005F44281CFFF716
:109D500051FA041C381CFFF747F9002800D186E0AF
:109D600043461B88334225D0002C03D101204042BA
:109D700045E000240023574E019A735507331340E2
:109D8000022B43D0042B18D153464A469B5A002B32
:109D900000D16FE05F460137FF37009A1C1C9342E9
:109DA00001D96B461C88A4B2281C0299221CFFF71B
:109DB0007FFA0CE0002CC9D0DCE7281C211C5F4690
:109DC000FFF7ACFA53464A4601379C52FF37381C1E
:109DD0004021FFF737F9381CFFF706F90028FAD1C0
:109DE0004A46534649469B5A52461B1B9BB2535206
:109DF000002B03D00123725D13437355201C07B061
:109E00003CBC90469946A246AB46F0BD53464A46F6
:109E10009B5A002BBED15F4604AC0137281C211C85
:109E20000822FF37FFF744FA381C4021FFF70AF9F0
:109E3000381CFFF7D9F80028FAD1039A237849464D
:109E4000137063785370A3789370E378D370237999
:109E500062791B02D318109A1380A379E2791B024E
:109E6000D31852469BB253528022725595E7042074
:109E70004042C4E75F4604AC0137281C211C022283
:109E8000FF37FFF715FA381C4021FFF7DBF8381CC5
:109E9000FFF7AAF80028FAD1237862781B02D318BA
:109EA000494652469BB253520B4A934208D88022ED
:109EB000725572E705204042A1E70E2040429EE71E
:109EC000281CFFF721FB054899E7C046E009001070
:109ED000D2090010D8090010EA05000017FCFFFFA6
:109EE00010B5082859D8072959D8324B89005B5832
:109EF000141C9F4611781F2951D82F4B40019C46B6
:109F00006044FFF79FF8012040B210BD2A4B40018A
:109F10009C466044FFF768F81F2318402070F62025
:109F2000F2E71378012B3CD0002B38D1013383406A
:109F3000181C224A1388834313800120E4E71F4B37
:109F40001B880341181C0123184010700120DBE717
:109F50001B4B40019C466044FFF746F8800220807E
:109F60000120D1E74001174BF4E711781F2916D8DB
:109F700082239B009C4640016044FFF763F8012068
:109F8000C2E782239B009C4640016044FFF72CF807
:109F90001F23184020700120B6E7FF20B4E7F62009
:109FA000B2E78340181C054A13881843108001202B
:109FB000AAE7C046B0390100082C0000D209001001
:109FC000081F0000081E000070B5082800D984E0B2
:109FD0000C2900D97FE0434B89005B58151C041CF9
:109FE0009F46201CFFF706F92880012040B270BD73
:109FF000C22340019B009C466044FEF7F5FF287099
:10A000000120F3E740010830FEF7EEFF0128E8D019
:10A01000354B6000C35A01202B80E7E74001083030
:10A02000FEF7E2FF0F231840012858D12F4B1B5D8C
:10A030002B70DBE740010830FEF7D6FF0F23984373
:10A0400028700120D2E74001294BD4E74001294B79
:10A05000D1E7902344015B010834E018FEF7C4FF08
:10A0600098235B01E018FEF7BFFF2870C0231B0197
:10A07000E018291C0422FFF715F80120B6E7440177
:10A080000834F3E7802340015B010830041CC0184A
:10A09000FEF7AAFF88235B01061CE018FEF7A4FF69
:10A0A0003602301828800120A0E740010830041C47
:10A0B000FEF79AFF0F231840012810D1BC239B0103
:10A0C000E018FEF791FF288001208FE7FFF76AF87C
:10A0D000288001208AE7FE2088E7FF2086E7FB2012
:10A0E00084E7C046D0390100E0090010D80900100B
:10A0F00008160000081500007047C0467047C046AB
:10A100007047C0467047C0460078C0B27047C0462E
:10A1100001707047002070477047C0467047C046C6
:10A120007047C046002805D0002903D0034B596171
:10A130001861704702490348F8E7C0461C01001047
:10A1400005A1000001A10000074B1A88920500D468
:10A15000FEE7002804D0002902D0D9619861704739
:10A1600002490348F9E7C0461C01001019A100008C
:10A1700015A10000074B1A88920500D4FEE70028BD
:10A1800004D0002902D0596218627047024903487E
:10A19000F9E7C0461C01001021A100001DA100002C
:10A1A00038B5052800D98DE0474B80001B580C1CA2
:10A1B0009F46D82009784001FEF744FFC8206188F7
:10A1C0004001090AFEF73EFFD020A1784001FEF7CA
:10A1D00039FF002040B238BDD8204001FEF704FF0F
:10A1E0002070C8204001FEF7FFFE051CD020400172
:10A1F000FEF7FAFE2D02281860800020EAE7902082
:10A2000006220001FEF78AFF211C80200E3140004B
:10A210000422FEF783FF211CA0200A31C000042283
:10A22000FEF77CFFF02004220001A11DFEF776FF5F
:10A23000A27C264B00201A70E27C5A70227D9A7014
:10A24000627DDA70A27D224B1A70C3E7902006224D
:10A250000001FEF727FF211C80200E314000042260
:10A26000FEF720FF211CA0200A31C0000422FEF7C7
:10A2700019FFF02004220001A11DFEF713FF134B6C
:10A2800000201A78A2745A78E2749A782275DB78E2
:10A2900063750F4B1B78A3759CE70C783A23221C3F
:10A2A0009A430FD10020FEF79FFE0443E1B2002045
:10A2B000FEF7C8FE00208DE70020FEF795FE207017
:10A2C000002087E7FF2085E7043A0100F409001029
:10A2D000F0090010F0B5051C902087B0000106229F
:10A2E0000C1C04A9FEF7DEFE802001A94000042218
:10A2F000FEF7D8FEA02002A9C0000422FEF7D2FE7D
:10A30000F0200422000103A9FEF7CCFE80210020EA
:10A31000FEF798FE0020FEF767FE902004A90001DA
:10A320000622FEF7FBFE802001A940000422FEF772
:10A33000F5FEA02002A9C0000422FEF7EFFEF020E7
:10A3400003A900010422FEF7E9FE002D20D06B785E
:10A350002A78D218AB78D218EB78D2182B79D21889
:10A360006B79D218AB79D218EB79D3185BB2102B7A
:10A3700035DC2F1C01260837F8235B019C46F000D2
:10A38000297860440135FEF75DFE0436BD42F3D105
:10A39000002C20D063782278D218A378D218E378E2
:10A3A000D2182379D2186379D218A379D218E37915
:10A3B000D3185BB2102B12DC261C01250836F023C3
:10A3C0005B019C46E800217860440134FEF73AFEC8
:10A3D0000435B442F3D1002040B207B0F0BDFF20F5
:10A3E000FAE7C04670B586B00F2866D8C24B800029
:10A3F0001B580C1C9F460B78012B00D142E1102109
:10A4000008201826382500226378012B00D16FE13F
:10A41000E378012B00D164E1A378012B00D0111C5B
:10A42000B8208001FEF70EFEB8208001FEF7DCFDAB
:10A430007F210140B8208001FEF704FEB820800192
:10A44000FEF7D2FD802149420843C1B2B820800105
:10A45000FEF7F8FD002040B206B070BDB8208001C4
:10A460000D78FEF7C1FD430627D53824A043C0B2BE
:10A47000012D00D10CE138210143B8208001FEF705
:10A48000E1FDB8208001FEF7AFFD7F210140B8203B
:10A490008001FEF7D7FDB8208001FEF7A5FD8021E1
:10A4A00049420843C1B2B8208001FEF7CBFDB82075
:10A4B0008001FEF799FD0442CCD1FF20CBE7B82004
:10A4C0008001FEF791FD30231840431E9841207013
:10A4D0000020C0E7B8208001FEF786FD0123184068
:10A4E00020700020B7E7902004A900010622FEF7A3
:10A4F000D9FD802001A940000422FEF7D3FDA02051
:10A5000002A9C0000422FEF7CDFDF020042203A919
:10A510000001FEF7C7FD80210020FEF793FD00201B
:10A52000FEF762FD902004A900010622FEF7F6FD69
:10A53000802001A940000422FEF7F0FDA02002A91E
:10A54000C0000422FEF7EAFDF02003A90001042266
:10A55000FEF7E4FD7EE7002900D1CBE00831201CA6
:10A56000FFF7B8FE77E7A8204001FEF73DFD051C88
:10A57000B8204001FEF738FDF02300022B40C01840
:10A580002080002067E70C88A820F02140012140AE
:10A59000FEF758FDB820210A4001FEF753FD0020C8
:10A5A00059E7B0200C884001E1B2FEF74BFDC02016
:10A5B000210A4001FEF746FD00204CE7B020400193
:10A5C000FEF712FD051CC0204001FEF70DFD000244
:10A5D0004519258000203EE7982009884001090A96
:10A5E000FEF730FDA02021784001FEF72BFD002072
:10A5F00031E798204001FEF7F7FC051CA020400140
:10A60000FEF7F2FC2D0228182080002023E7B82056
:10A610008001FEF7E9FC4306DB0F23703823184066
:10A6200020285BD0382859D000236370021C103AD0
:10A63000D2B20023102A07D8013393401A1C2F4BA3
:10A6400013405A1E9341DBB20838C0B2A3701828D9
:10A6500006D801231A1C8240101C294A104200D13E
:10A660000023E370F6E6274B00209A780A70DA7828
:10A670004A701A798A705A79CA709B790B710023D3
:10A680004B71E8E650214820582678254022BBE649
:10A6900030210143B8208001FEF7D4FCB8208001AE
:10A6A000FEF7A2FC7F210140B8208001FEF7CAFC22
:10A6B000B8208001FEF798FC802149420843C1B2CE
:10A6C000B8208001FEF7BEFCB8208001FEF78CFCAC
:10A6D0003023034200D0BDE6FF20BCE601236370B7
:10A6E000A4E7A378011C012B00D099E6311C97E662
:10A6F000291C95E6002132E71C3A01000101010006
:10A70000010001011C01001000487047F809001009
:10A71000F8B55F4656464D464446A223F0B40025A0
:10A72000584C19222380584B601D191C9B46A5705C
:10A73000E570257106F0A4F92023E554A0339C466A
:10A740006146A820993BE1540133E0541D3B9A46F1
:10A75000514664271E33E15401330122E7542E266B
:10A760006346393FE355A2552C23D136B046E05419
:10A770000133E1544146D03EA1554646302166544E
:10A78000013166546646013165540131625401312C
:10A790006554013166540131605451467138215479
:10A7A00038212E306054211CDD3839318446087040
:10A7B00013204870211C66463B3148700E70211CE6
:10A7C0003D314D700D70211C2B383F3108701B300E
:10A7D000487041216554211C41314D70432165541D
:10A7E000013163540131A277E57763540131635439
:10A7F0000131635400211B33E5540133E554231C1C
:10A80000884622494A3319805A804E2342460835E9
:10A81000E55401215E460133E254201C42460133D7
:10A82000E1541C3601338946E254311C0A2252306D
:10A8300006F026F9201C311C0A225C3006F020F9B3
:10A8400042466623201CE2540133E2540133E554AE
:10A850000133E5540133E5540021013332226C30D9
:10A86000E55406F011F94A469E23E2540133E754B9
:10A870000133E7540133E7543CBC90469946A24665
:10A88000AB46F8BDF80900105C3A010000C2FFFFBA
:10A8900010B50B4C0120211CA222FCF735FB2388AC
:10A8A000002B06D1FFF734FF0120211CA222FCF768
:10A8B0004DFB01232022A3770023E377A35410BD8F
:10A8C000F809001070B534250023054CA222665DFE
:10A8D000211C63550120FCF739FB665570BDC0464D
:10A8E000F809001008B506F0CBF808BD08B506F069
:10A8F000C7F808BD38B5154C051C201C291C0622BC
:10A90000213006F0BDF8201CA91D0422273006F0D6
:10A91000B7F8291C201C0E3104222B3006F0B0F8A9
:10A92000291C201C0A3104222F3006F0A9F8291C0A
:10A93000201C04221231683006F0A2F8AB7D013BE6
:10A940005A1E93416622A35438BDC046F809001030
:10A9500038B5144D0622291C2131041C06F090F84C
:10A96000291CA01D2731042206F08AF8291C201C6E
:10A970002B3104220E3006F083F8291C201C2F31C5
:10A9800004220A3006F07CF8291C201C04226831BD
:10A99000123006F075F86623EB5C5A1E93410133C2
:10A9A000A37538BDF8090010902008B503490001CF
:10A9B00021310622FEF7B2FB08BDC046F80900109F
:10A9C00010B5184C86B0211C68462131062206F0CD
:10A9D00057F86B46211C981D2731042206F050F8C9
:10A9E000211C0E202B316844042206F049F8211C5A
:10A9F0000A202F316844042206F042F8211C12205C
:10AA000004226831684406F03BF86623E35C69463B
:10AA10005A1E93416A46013300209375FFF7C0FB2D
:10AA200006B010BDF809001008B5011C0248062246
:10AA3000213006F025F808BDF8090010BFF34F8F4C
:10AA4000024A034BDA60BFF34F8FFEE70400FA05BA
:10AA500000ED00E0F0B55F4656464D464446F0B482
:10AA6000DFB0141C051C0F1CFFF74EFE0B2104AABF
:10AA7000061C281CFFF7A8FAA37902A962790989A4
:10AA80001B021343994206D05FB03CBC90469946E6
:10AA9000A246AB46F0BD02AA94460A236344009343
:10AAA000062205AB281C06A9FFF720F963785AB2E5
:10AAB000002A42DB21239846B04406A841460622DC
:10AAC00006F072FE0028DFD158235B426371AD337C
:10AAD000A07123714146062208A805F0D1FF02AB00
:10AAE0009C461E20A2226044311C05F0C9FF6378F9
:10AAF0005AB2002A6ADB32AE211C0722301C05F054
:10AB0000BFFF02AB9C46C72008A96044A82205F0FD
:10AB1000B7FFA378002B04D1381CFF21042205F0D5
:10AB2000B3FF7B793A791B0213430093281C311C35
:10AB3000AF223B1CFFF724F8A6E77F221A4002ABA6
:10AB40001B899846002BB5D04146043B9BB29B081D
:10AB500001339C469B009BB201399B46022932D9A6
:10AB600010021043110413060143194300238946C0
:10AB700006A80393494603685940039B02C001336A
:10AB800003939BB29C45F5D8D84593D006A9081CE1
:10AB90005B465844017851400170591C89B2884580
:10ABA00088D906A8844661440878023350409BB295
:10ABB0000870984500D87DE706A98C46634419784B
:10ABC0004A401A7076E700239B46DFE77F210B405F
:10ABD00019021A04194311431B06194332AE08AB7C
:10ABE0001A684A4004C39E42FAD185E7F0B55F4631
:10ABF00056464D464446F0B4744C051CA5440F1C03
:10AC0000141CFFF781FD0B2105AA061C281CFFF769
:10AC1000DBF9A37902A9627989891B02134399425E
:10AC200008D08D239B009D443CBC90469946A2468B
:10AC3000AB46F0BD02AA94460E2363440093B922AA
:10AC400006AB281C5DA9FFF751F863785AB2002AB9
:10AC500061DB21239846B0445DA84146062206F0F8
:10AC6000A3FD0028DDD102AB74209C46311CFF30CF
:10AC70006044523107F054FD81460028D1D102AB27
:10AC800084219C46FF316144301CA222FFF72EFE36
:10AC90000123B3774B464A46F3772023F254FFF75C
:10ACA00011FE58235B4263714B46A3715523414605
:10ACB0002371062207A805F0E3FE02AB9C461A208A
:10ACC000A2226044311C05F0DBFE627853B2002BF7
:10ACD0006CDB211C072231A805F0D2FE02AB9C469A
:10ACE000C32007A96044A82205F0CAFEA378002B60
:10ACF00004D1381CFF21042205F0C6FE7B793A7985
:10AD00001B021343009331A9AF223B1C281CFEF702
:10AD100037FFFFF793FE7F221A4002AB9B899846CC
:10AD2000002B96D04146043B9BB29B0801339C46C6
:10AD30009B009BB201399B46022934D91002104373
:10AD40001104130601431943002389465DA80393A8
:10AD5000494603685940039B02C0013303939BB2E9
:10AD60009C45F5D8D84500D173E75DA9081C5B4622
:10AD70005844017851400170591C89B2884500D867
:10AD800067E75DA8844661440878023350409BB26F
:10AD90000870984500D85CE75DA98C466344197833
:10ADA0004A401A7055E700239B46DEE77F231A408E
:10ADB00000231420142602A90918C95C02A85140D6
:10ADC0008019C1540133A82BF3D182E7CCFDFFFFDA
:10ADD000F0B54D4644465F465646F0B4BDB002ABB2
:10ADE0009C46092464440A21221C051CFFF7ECF848
:10ADF0002378002B14D0222B0BD102AB9C460A24C3
:10AE00006444281C0921221CFFF7DEF82388062B46
:10AE10000DD83DB03CBC90469946A246AB46F0BD2D
:10AE2000281C0221DB4A0023FEF798FAF1E708AB61
:10AE30000093072207AB281C0BA9FEF757FF24221B
:10AE400002AB9B181B78A52BE3D102AB04329B18F5
:10AE50001B78AA2BDDD1013A02AB9B181B78183A5C
:10AE60009343C02B00D1CEE000D8C1E0E02B00D14D
:10AE70005FE2F02B00D1E3E1D02BCAD1FFF744FC15
:10AE8000061CFFF741FC05AA071C0B21281CFFF735
:10AE90009BF80C9B02AA928903931B021B0C934202
:10AEA000B7D102AA94460E2328AC634400934F22E4
:10AEB00006AB281C211CFEF719FF272202AB9B18AA
:10AEC0001B78D12BA5D1023A02AB9B181A7853B24A
:10AED000002B00DA87E221239846B844201C414623
:10AEE000062206F061FC002893D102AB9C46391C77
:10AEF0009F205231604407F013FC041E00D088E705
:10AF00002136311C122211A805F0BAFDFFF7C0FC52
:10AF100011A91222301C05F0B3FDFFF7D3FC0BA9D9
:10AF2000072216A805F0ACFD02AB9C46572007A9E6
:10AF30006044062205F0A4FD02AB9C465D20AF21D3
:10AF400060446144042205F09BFD02AB9C466120F5
:10AF5000B32160446144022205F092FD02AB9C469D
:10AF60006320B52160446144322205F089FD16A9B1
:10AF70004522201CFBF7EAFF02AA94462923062259
:10AF80006344614628201A705C705523091809AF84
:10AF90000B70381C414605F073FD252202AB9B184F
:10AFA0001A7853B2002B00DAC4E20BA907220DA8CD
:10AFB00005F066FD02AB9C46332006226044391C36
:10AFC00005F05EFD262202AB9B181B78002B04D1F6
:10AFD00007A8FF21042205F057FD02AB1B8B0DA92A
:10AFE00000930D2207AB281CFEF7CAFDFFF726FDD4
:10AFF000A02B0ED0B02B00D00BE7281C07A90BAA62
:10B00000FFF728FD05E7281C07A90BAAFFF7EEFDAF
:10B01000FFE6FFF779FB09AF3A1C061C0B21281C41
:10B02000FEF7D2FF0C9B3A8803931B021B0C934242
:10B0300000D0EEE6272202AB9B181B785F33DBB211
:10B04000042B00D9E5E6544A9B00D35828AC9F4610
:10B050000DAB00930C2211AB281C211CFEF746FE01
:10B06000252202AB9B181A7853B2002B00DA52E269
:10B070002123F35C9C462378634500D9C9E622234B
:10B08000F75C6378BB4200D9C3E62323F05CA37866
:10B09000834200D9BDE62423F15CE3788B4200D9DA
:10B0A000B7E62523F25C2379934200D9B1E6262343
:10B0B000F35C994663794B4500D9AAE6A3796345C9
:10B0C00000D2A6E6E379BB4200D2A2E6277A874205
:10B0D00000D29EE6607A884200D29AE6A17A914236
:10B0E00000D296E6E27A4A4500D292E6B31C99462F
:10B0F00002AA944600222923904663440C321A7017
:10B10000424628215A7062465523521816AF1370D2
:10B1100049460322381C05F0B3FC02AB9C46311CA7
:10B1200053201E316044032205F0AAFC02AB9C466A
:10B13000311C562006222131604405F0A1FC252255
:10B1400002AB9B181A7853B2434500DA8FE10BA982
:10B150000722201C05F094FC02AB9C469F200C2289
:10B160006044391C05F08CFC262202AB9B181B782E
:10B17000002B04D107A8FF21042205F085FC02ABB7
:10B180001B8B281C0093211C132207ABFEF7F8FC35
:10B190003FE6C04696190000843A01000DAB0093CB
:10B1A000342211AB281C211CFEF7A0FD252202AB86
:10B1B0009B181A7853B2002B98DA7F231A40002389
:10B1C000388899B2814291D2E15C5140E154013317
:10B1D000F7E70DAB0093212211AB281C211CFEF7D1
:10B1E00085FD252202AB9B181A7853B2002B00DA9A
:10B1F00084E1201C07F0D8FA711D021C201C06F007
:10B20000D3FA002800D004E670E70DAB00930722C4
:10B2100011AB281C211CFEF769FD252202AB9B18EF
:10B220001A7853B2002B00DA98E1B31C201C191CC9
:10B230000322994606F0B8FA002800D0E9E557E75E
:10B24000FFF762FA06AE321C071C0B21281CFEF722
:10B25000BBFE0C9B328803931B021B0C934200D055
:10B26000D7E509AB28AC009317220DAB281C211C95
:10B27000FEF73CFD252202AB9B181B785AB2002A30
:10B2800000DABEE021239846B844201C414606223D
:10B2900006F08AFA002800D0BBE502AB9C46391CB8
:10B2A0009F205231604407F03BFA061E00D0B0E503
:10B2B000FFF72EFAFFF706FB02AA9446292306227F
:10B2C0006344614628201A705E705523091811AC3A
:10B2D0000B70201C414605F0D3FB252202AB9B18C6
:10B2E0001A7853B2002B00DA2EE116AF0BA9072211
:10B2F000381C05F0C5FB02AB9C4657200622604473
:10B30000211C05F0BDFB262202AB9B181B78002BED
:10B3100004D107A8FF21042205F0B6FB02AB1B8B6A
:10B32000391C00930D2207AB281CFEF729FCFFF700
:10B3300085FBFFF7E9F906AE321C071C0B21281C20
:10B34000FEF742FE0C9B328803931B021B0C9342B8
:10B3500000D05EE509AB28AC009317220DAB281C8A
:10B36000211CFEF7C3FC252202AB9B181B785AB2A6
:10B37000002A00DA8BE021239846B844201C41467D
:10B38000062206F011FA002800D042E502AB9C46E6
:10B39000391C9F205231604407F0C2F9061E00D0CC
:10B3A00037E502AA94462923062263445870614671
:10B3B00028201A705523091811AC0B70201C414627
:10B3C00005F05EFB252202AB9B181A7853B2002BC6
:10B3D0008BDA7F231A40331CE15C5140E154013386
:10B3E000062BF9D181E77F231A4002AB988900230D
:10B3F00003E0E15C5140E154013399B28842F8D84E
:10B4000069E57F21194033889C46002B00D139E73C
:10B410001A1F92B29208531C62469A46501E9B0015
:10B420009BB2022800D883E00802084380464246C7
:10B430000E04164308063043834600265846B200E1
:10B440009146A2580136424090464A464046A05096
:10B45000B2B25245F2D39C4500D113E7E01802780E
:10B4600001334A409BB202709C45F7D80AE77F231C
:10B4700013401A0219041A430A431B061343424697
:10B48000B9585940B95004320C2AF9D15FE67F21EE
:10B49000194033889C46002B00D16CE71A1F92B2EA
:10B4A0009208531C62469A46501E9B009BB202288B
:10B4B00022D908020843804642460E041643080675
:10B4C0003043834600265846B2009146A2580136C2
:10B4D000424090464A464046A050B2B25245F2D34E
:10B4E0009C4500D147E7E018027801334A409BB2FF
:10B4F00002706345F7D33EE70023F4E77F231A4049
:10B500000023388899B2814200D372E6E15C514051
:10B51000E1540133F6E77F231A400023388899B2BB
:10B52000814200D3A4E5E15C5140E1540133F6E7E8
:10B53000002393E77F231A40231CF95C5140F95400
:10B540000133062BF9D130E57F231A40331CE15C2F
:10B550005140E1540133062BF9D1C6E67F231A404E
:10B560000023388899B2884200D85EE6E15C5140F9
:10B57000E1540133F6E7C046002908D0002806D17F
:10B58000044B1A68002A02D1196040B27047FF20AC
:10B59000FBE7C0469C0A0010002807D17F23044A1D
:10B5A000194013781943117040B27047FF20FBE730
:10B5B000A00A0010002807D17F23044A19401378FD
:10B5C0008B43137040B27047FF20FBE7A00A0010C6
:10B5D00030B5814C83B02378002B0AD040251D4222
:10B5E0003FD120251D4249D110251D422BD11A07DC
:10B5F00001D103B030BD08251D4264D104251D4290
:10B600004CD101251D42F4D00521002001AAFEF7EE
:10B6100067FC1021019B194200D0BDE008211942AE
:10B62000E7D06B46DA1C117000200439FEF758FC95
:10B63000012223780020AB432370684B01211B6853
:10B6400052429847D5E701AA00200A21FEF7BCFC28
:10B65000FF23019A1340172B5BD023781A07C8D019
:10B66000C9E70020092101AAFEF7AEFC019B9BB2AD
:10B67000002B43D1237820251D42B5D001AA0020FC
:10B680000A21FEF7A1FCFF23019A13406AD01C2B6C
:10B6900002D10020FEF74EF82378A5E701AA00208A
:10B6A0000A21FEF791FCFF23019A1340172B3BD18F
:10B6B00023780020AB432370484B04211B680022F1
:10B6C000984723789DE701AA00200A21FEF77CFC19
:10B6D000FF23019A1340142B4FD0182B2ED0002B90
:10B6E0004ED00020052101AAFEF7FAFB019B2B4258
:10B6F00063D10020FEF71EF823787FE7237800202F
:10B70000AB432370354B40211B68002298472378B8
:10B71000B1E723780020AB432370304B10211B6826
:10B7200000229847237899E70020052101AAFEF717
:10B73000D7FB019B1B0706D4237862E70020FDF7A7
:10B74000E3FE23785AE70020FDF7DEFE0D22237882
:10B750000020AB432370214B04211B6852429847C1
:10B7600023784EE723780020AB4323701B4B202126
:10B770001B6800229847237836E70020FDF7C4FEB7
:10B7800008222378002093432370144B08211B6860
:10B7900000229847237831E76B46DA1C11700020AD
:10B7A0000C39FEF79DFB23780020AB4323700B4B35
:10B7B00001211B68002298471BE70020FDF7A4FE2B
:10B7C0000D2223780020AB432370044B08211B6813
:10B7D000524298478DE7C046A00A00109C0A00100C
:10B7E000F0B54F464646C0B485B0041C894606F005
:10B7F000DBFF0738082848D8211C684606F0B2FF4E
:10B80000234B6846191C984607F024F8051E3CD0C7
:10B810004B46002600241F4F002B2FD0381C291C1C
:10B8200000F0CAF800280FD1281C06F03FFFFF28BF
:10B830002BD84B46361818554146002007F00AF819
:10B840000134E4B2051EE9D1042C1ED170427041CE
:10B850004042C0B240B205B00CBC90469946F0BD23
:10B86000281C06F023FFFF280FD836184146002079
:10B8700006F0F0FF0134E4B2051EE5D0381C291CA7
:10B8800000F09AF80028EBD0DEE7FF20E2E7C046A0
:10B89000983A0100B90B010010B582B00A220C1CC5
:10B8A00001A906F0C3FE084B421E9A4209D8019B2B
:10B8B0001B78002B05D1002C00D0208058B202B09C
:10B8C00010BDFF23FAE7C046FEFF0000F0B5474673
:10B8D00080B486B0041C884606F066FF112846D165
:10B8E000211C01A806F03EFF224F01A8391C06F0DA
:10B8F000B1FF051E3BD0434600241F4E002B2FD026
:10B90000301C291C00F058F8002810D1281C0021F8
:10B91000102206F08BFEFF2829D84346391C185503
:10B92000002006F097FF0134E4B2051EE8D1A01F05
:10B93000441EA0414042C0B240B206B004BC904692
:10B94000F0BD281C0021102206F070FEFF280ED842
:10B950000020391C06F07EFF0134E4B2051EE6D05B
:10B96000301C291C00F028F80028EAD0DFE7FF206F
:10B97000E2E7C0469C3A0100CD0B010070B50E1CF9
:10B980000025002812DBADB26C1C0135FF35A4B2D6
:10B99000ADB203E00134A4B2AC420AD0311C04F0D1
:10B9A00009FB0028F6D1E0B240B270BD404201353B
:10B9B000E9E7FF20F8E7C04638B5051C0C1C002855
:10B9C0000DD000290BD00878002804D107E00134FD
:10B9D0002078002805D040B2A8470028F7D10120E0
:10B9E000404238BDF0B50668002E17D0351C002443
:10B9F0006F1C2C570B1C02E00133002A0AD00022D6
:10BA00009A56A242F8D1002C06D000232B70076072
:10BA1000301CF0BD3D1CEAE70027F8E70020F8E7FE
:10BA2000F0B54E46454657462023E0B4CC4FCD4EA8
:10BA3000FB565A1E9341DBB29C464423FC56994662
:10BA4000631E9C416823F95C98460A1C6346501E9D
:10BA50008241E4B2E318D0187C23FB565A1E93416E
:10BA60001A189023FD566B1E9D41AB18A422BD569B
:10BA70006A1E95413222ED185B23327162463370A3
:10BA8000153B73701A3BEDB2B370F370002A5BD1B3
:10BA9000002D2ED07371002C00D00FE10822072357
:10BAA000904606202C2232544246002900D08DE0D8
:10BAB0002C21F1547C23FB56002B00D0B8E0531C02
:10BAC000D9B22C23B3546433FB56002B00D099E039
:10BAD0002C2272547832BA564B1CDBB2002A00D0AA
