:106000000020001015610000FD600000016100002B
:106010000000000000000000000000000000000080
:10602000000000000000000000000000056100000A
:106030000000000000000000096100000D61000088
:10604000B93101001161000011610000116100000F
:106050001161000011610000116100001161000078
:10606000116100001161000000000000000000004C
:10607000000000000000000011610000116100003C
:106080001161000011610000E17300001161000066
:1060900011610000CD76000000000000000000004B
:1060A0001161000011610000116100001161000028
:1060B00000000000000000000000000000000000E0
:1060C0003077010000000010580100003077010017
:1060D0000000002000000000307701000040002098
:1060E00000000000580100104C15000000000020C6
:1060F000000000000040002000000000FEE7C04655
:10610000FEE7C046FEE7C046FEE7C046FEE7C046E3
:10611000FEE7C0461F4BC0221968120570B50A433E
:106120001D4C1E4D1A60AC420ED2206861680C34C2
:10613000231F1A680023002AF5D01E585E5004332E
:106140009A42FAD8AC42F0D3154A944213D2231C97
:106150000833D51DED1AED08ED005D1900216268C8
:1061600020680023002A03D0195004339A42FBD838
:106170000834AC42F3D10B4B0B4A1B681B691968FE
:1061800011605A68094B1A600CF0B0FF0DF05BFC0F
:10619000FEE7C04680800440C0600000E46000006C
:1061A000FC600000F81FFF1F4C0D0010480D001090
:1061B00010B50023002A04D01C585C5004339A42C6
:1061C000FAD810BD00230022002903D01A5004334E
:1061D0009942FBD87047C046FFFFFFFFFFFFFFFF5C
:1061E000FFFFFFFFFFFFFFFFFFFFFFFFFFFFFFFFBF
:1061F000FFFFFFFFFFFFFFFFFFFFFFFFFFFFFFFFAF
:10620000FFFFFFFFFFFFFFFFFFFFFFFFFFFFFFFF9E
:10621000FFFFFFFFFFFFFFFFFFFFFFFFFFFFFFFF8E
:10622000FFFFFFFFFFFFFFFFFFFFFFFFFFFFFFFF7E
:10623000FFFFFFFFFFFFFFFFFFFFFFFFFFFFFFFF6E
:10624000FFFFFFFFFFFFFFFFFFFFFFFFFFFFFFFF5E
:10625000FFFFFFFFFFFFFFFFFFFFFFFFFFFFFFFF4E
:10626000FFFFFFFFFFFFFFFFFFFFFFFFFFFFFFFF3E
:10627000FFFFFFFFFFFFFFFFFFFFFFFFFFFFFFFF2E
:10628000FFFFFFFFFFFFFFFFFFFFFFFFFFFFFFFF1E
:10629000FFFFFFFFFFFFFFFFFFFFFFFFFFFFFFFF0E
:1062A000FFFFFFFFFFFFFFFFFFFFFFFFFFFFFFFFFE
:1062B000FFFFFFFFFFFFFFFFFFFFFFFFFFFFFFFFEE
:1062C000FFFFFFFFFFFFFFFFFFFFFFFFFFFFFFFFDE
:1062D000FFFFFFFFFFFFFFFFFFFFFFFFFFFFFFFFCE
:1062E000FFFFFFFFFFFFFFFFFFFFFFFFFFFFFFFFBE
:1062F000FFFFFFFFFFFFFFFFFFFFFFFFFFFFFFFFAE
:1063000010B586B005F0F0FC041C6846063004F0B9
:1063100097F868460E3004F09FF868460A3004F09B
:10632000A7F86846123004F0AFF8211C6846213106
:10633000062205F0DFFD201C6946273006310422C5
:1063400005F0DCFD201C69462B300E31042205F0DF
:10635000D5FD201C69462F300A31042205F0CEFD00
:10636000201C694604226830123105F0C7FD6623FF
:10637000E35C69465A4253410222D31A00206A461E
:10638000937505F0B9F906B010BDC0467047C04618
:10639000006870B5C36880229CB2D200944202D8D3
:1063A000221E01D170BD141C0A49CE680D69751BEF
:1063B0004E68751B9542F5DB074A1668A5191560EE
:1063C000826806480DF0DEFA054B1A68A4181C60B6
:1063D000E8E7C046100C0010640100100080004087
:1063E0007001001070B586B002AD002304AC0A2124
:1063F0002A1C2380061C05F089F82B78172B3DD02A
:10640000222B0ED02388002B09D0314A3148324943
:106410000DF0B8FA314B2288186812181A6006B0CD
:1064200070BD221C301C092105F070F822888023E1
:10643000DB009A4248D923802749C8680A6949681D
:10644000821A8A1A9A42EADB6D4612358022204966
:10645000D20005AB0095301C04F0F0FE208005F062
:1064600043FC2B881E4A333013801E4A03721B0ADA
:1064700043721068238819181160C4E7221C301C6D
:10648000092105F043F822888023DB009A4217D9BE
:1064900023801149C8680A694968821A8A1A9A428F
:1064A000BDDB80220A49D200301C04F02FFD0D4ACA
:1064B00083B211680004000C401823801060A2E72A
:1064C000002AACD0131CE4E7002AA8D0131CB3E7C1
:1064D0005411001000800040100C001070010010DA
:1064E000D000001064010010F0B544465F464D46F0
:1064F0005646F0B497B0804605F0F6FB071C05F051
:10650000F3FBB24C8146E26823699A4203D0B04B58
:106510001E68012E06D917B03CBC90469946A2468B
:10652000AB46F0BD3D1C33350295287C031C5A1E3A
:106530009341DBB2E2689A4623690390D31A9842EA
:106540000BDC514600297ED0039B022000220593DC
:10655000042106258446069208E080230320DB0000
:106560000122052107258446059306920298C27BE5
:10657000837B1202134345D1964D07952B78029DDC
:106580006D7D0995002D00D01CE15046002800D0FB
:1065900001E1012E06D1E2682369D31A8E4A1268FE
:1065A0009A42B8D16A46472540460A2147326D448F
:1065B00004F0ACFF2B78222B01D0172BABD1332367
:1065C000FB5C042B49D0211C8448854A059B0DF0B7
:1065D000F8F984B2834B0021186822181A60824BA4
:1065E00047226A4419601378222B00D1BDE0172B93
:1065F00000D18EE07D4A00231360079D7C4A136022
:106600002B7088E7022352461A43724B9246079337
:106610001B78002B02D16046291C0690029D6D7DDF
:106620000995002D72D055460A910E9550460423C7
:10663000A1681843824601291ED00A9A514611408A
:106640005145A6D167E78023DB0002220593002392
:10665000042106259446069388E705980DF004FA70
:106660000F90002800D156E7021C211C5B48059BB7
:106670000DF0A7F984B2ADE7E2682369D31A099A4D
:106680009A42DAD89B1A01330D93002BD5D020689B
:106690003B1C844660682569013844330021002290
:1066A000B3460C93061C0B95604608910492BC46B9
:1066B000049D0B9F321CEB191A4065464427815CF0
:1066C000EA5D914236D109990C9ACD18D71A05E0A6
:1066D0001A1C3240815CFA5C91422BD10133AB42EF
:1066E000F6D1099D049867462B185E46002BA4D06E
:1066F0000E9901220A4227D1029DAA7D9A1805927D
:10670000151CE2682369D31AAB4296DB06980A90FF
:1067100093E73323FB5C042B40D040463049221CD6
:1067200004F000FB844200D0F5E6324B1F68E41908
:106730001C605FE708990D9A01310891049191421C
:10674000B6D167465E4678E70698029D024204D0BD
:10675000AA7D9A180592151CD3E7AA7D0398D31831
:10676000984218DD05931D1CCBE7391C35310422F6
:1067700012A80DF071F9029D40466B7A2A7A1B022D
:10678000134300931649221C12AB04F0A5FC84426B
:1067900000D0C0E6C9E706990A914EE712AA0F9DFC
:1067A0001170517091704946B63113489560D460AC
:1067B00002F0D0F8051C0F980DF0B8F9002D00D0AC
:1067C000A9E6B2E752460A910E922FE7240C001078
:1067D0007C0100109C010010780100100080004036
:1067E000540D0010800100105C010010A001001089
:1067F0009001001058010010AC0B0010F0B55F467E
:1068000056464D464446F0B4A9B0041C05F06CFA57
:10681000051C05F069FA0A21061C0CAA201C04F0CC
:1068200075FE331C9E331F78002F00D18BE0C74FBD
:106830003B68042B70D8C64A9B00D3589F4605F08E
:1068400053FAC44984460B780591022B00D138E3F2
:10685000C14BC24A98681168012800D0C6E10139CD
:106860000691D968884619694046411A0698081A5F
:106870008346012800D8B9E19F21884660464044FC
:1068800000780699079018690494091858680891C7
:106890001968814601208A464042594681440918B8
:1068A00000200990804605980A9193464946524631
:1068B00081469A46089B079C181C40440B1C0340C9
:1068C000D35CA34201D000F023FC01300840145CEB
:1068D000A0236046C05C844201D000F019FC0698F9
:1068E0004A460230804440460592049C53465A462C
:1068F000002800D17AE19A4908688946411C8C46F3
:10690000414500D074E103233B60964B00211960A0
:106910004F4663463B6013602A1C33325378012B89
:1069200025D0002B33D0022B4DD10CA90B78222B74
:1069300000D1FEE000235370012000210CF016FC72
:106940000CAA137847E00CA80378172BE4D0222B6D
:10695000E2D03323EB5C022BDED07F4800F042FF15
:10696000814B2A1C1F6033325378012BD9D10CAFD5
:106970003B78172B00D10FE1002501205570002135
:106980000CF0F4FB794B0CA81D60037823E00CA9F4
:106990000B78222B00D1CAE0172B1CD10123537096
:1069A0000120012152360CF0E1FBB37A002BC7D055
:1069B0003323EB5C022B00D1BCE36D4B01220CAD09
:1069C0001A702B7807E000235370012000210CADD2
:1069D0000CF0CCFB2B78222B47D8664A9B00D3586F
:1069E0009F46634F3B78002B00D1B7E105F07CF95F
:1069F000061C5C36002110AA301C118088460EF05F
:106A0000AFFE0EAD81460A21201C2A1C04F07EFD3B
:106A10002B78172B29D1092110AA201C04F076FD10
:106A2000554A10AD2B881188544D994200D1ABE3E3
:106A30004046286013804146042910D84A4692B245
:106A400090469A4211D84E4B201C191C9A4604F0CD
:106A50005DFA10A980B20880804500D196E3201C21
:106A600004F0E2F800232B603B7029B03CBC904658
:106A70009946A246AB46F0BD05F036F93323C35C18
:106A8000032B00D8E0E1042BEFD13E4802F004F8DC
:106A9000201C03F0ABFFE8E705F026F93323C35CC5
:106AA000022B00D106E200D8EAE1032B49D1201CD9
:106AB00003F09CFFD9E705F017F912AD011C061C85
:106AC0003531281C04220CF0C7FF3323F35C042B60
:106AD000CBD82D4A9B00D3589F4605F005F93323A8
:106AE000C35C051C032B00D1D9E100D2CCE1042BFF
:106AF000BBD1264B1A78002A00D155E2244E204AF9
:106B000080233460DB000192FA2200930293311C4F
:106B100033351C4892001F4B01F09CFBE979AB799F
:106B200009021943301C012202F066F89DE7022396
:106B3000537005F0D9F83323C35C032B00D123E154
:106B4000B5D3042B00D090E7B1E7C0467C0100101C
:106B500050680100C0010010240C00105C010010FE
:106B60006801001088010010740100106C01001011
:106B7000C10100106468010084010010BC01001014
:106B800054110010AC0B0010F068010060010010FF
:106B90009C0B0010540D001005F0A6F812AD582201
:106BA000061CCB49281C0CF057FFCA4B1A78002A48
:106BB00003D0C94900220A601A703323F35C042B06
:106BC00000D952E7C54A9B00D3589F4605F08CF880
:106BD000C34984460B780591022B00D171E1C14B6A
:106BE000C14A99681068012900D119E2BF4A1068AA
:106BF000DA681B69D31A834200DC8DE6BC4A0023A5
:106C000013600598BB4A3B601360037084E605F08F
:106C10006BF8B54A844613689846B24B98680128C9
:106C200000D1C9E1B14A00211160D9681A69891AF5
:106C3000B14A1160DA681B69D31AAD4A1068834201
:106C400000D169E600231360AA4A3B601360A44A9E
:106C5000137061E60CA80078804605F045F8A04A5C
:106C6000824611788946022900D187E19D4BDF6871
:106C70001969781A9E4F3968884200D1DDE09D4934
:106C8000002008601070D9681A6981468A1A3A6033
:106C90004246172A00D13FE6222A00D13CE63322A1
:106CA0005046825C022A00D136E6181C00F09AFD9C
:106CB0004946396030E605F017F8894980460B7877
:106CC0000591022B00D127E1864BD8681A69801AFA
:106CD000864A1268904268DC854A1068D9681B6948
:106CE000CB1A984206D000231360824A3B6013609F
:106CF000059A1370814F3B78002B00D1B5E60BE667
:106D000082276301BF00FF18381C03F0C9FBB84697
:106D10000127074222D04046012103F0F1FB042362
:106D20002B72731DEB609D332B640A33EB64AF76DB
:106D300000237348371CEB76291C3C23CF372B8369
:106D4000804601F07FFC381C0EF00AFD002805D0BB
:106D50004046391C00226B4B01F0ECFC6A4A137868
:106D6000002B18D0022B00D113E1684B1A78002AAF
:106D700071D101221A703323F35C042B04D1298BC7
:106D80005F4801F043FC02E0201CFFF72BFB201CB6
:106D9000FFF7AAFB69E63D23F15C3E23F35C1B028F
:106DA0000B43E2D001231370DFE752490020086053
:106DB0004F4A05993860106008708FE7494BDA68D0
:106DC0001B699A4200D1D4E1424F3B78002B0AD193
:106DD0003336727A337A12021A43201C291C03F0CC
:106DE000A7FE01233B704A4B01221A603DE6394F52
:106DF0003B78002B00D038E63336727A337A1202B1
:106E00001A43201C291C03F093FE01233B702CE63F
:106E1000304C2378002B00D027E63336727A337A51
:106E200012021A433B48291C01F0F0FE0123237093
:106E30001BE6201C03F018FE17E64B46002B00D083
:106E40006AE50123137067E5201C03F0EDFE201CAA
:106E500003F0CCFD09E6022A8DD110AF00220F20ED
:106E6000391C1A7004F0A0FD3B78002B83D133232A
:106E7000F35C042B00D183E1201C03F0D5FE7AE7FC
:106E8000002B00D113E6F0E53335EA79AB79120235
:106E90001A43201C0121012303F0C0FCE5E5333532
:106EA000EA79AB7912021A43201C0221012303F074
:106EB000B5FCDAE50B4BDA681B699A4200D0F6E5BF
:106EC000D3E50B4A00231360059A3B60137023E55A
:106ED00018690100AC010010A8010010046901004C
:106EE000C0010010240C00105C01001068010010AB
:106EF000740100108801001078010010500D00107E
:106F0000AC0B001091630000A4010010B40100104C
:106F10006C0100109C0B0010A14A00231360A14AD1
:106F20003B600B7013603323C35C042B00D1EBE098
:106F3000201C03F079FE9C4800F054FC9B4F381C49
:106F400000F050FC391C9A4A0D239A480CF01AFDA7
:106F5000391C0723984A97480CF014FD974F0022DC
:106F60000120002191463A700CF000F94346484652
:106F700033335870201C03F039FDBCE601233B601D
:106F800000231370884BDA681B69D21A844B1A608D
:106F9000C2E4002313703323F35C042B00D1C5E05B
:106FA000201C03F041FEE0E6854E0122301C211C2E
:106FB0001A7001F013FEA2E5D9681869081A414653
:106FC000411A894600D12DE6186919688346586828
:106FD000C344013807910690011C584601400798A8
:106FE000415C604608919F21415C08988C460021D5
:106FF0008A46604500D0A4E04146013171485144C1
:107000000160002900D110E611600223644A3B6050
:10701000002313606C4A13606C4B01221A707BE4EE
:1070200002380790D868804618694146081A0799BF
:10703000411A8A46022900D8D8E59F208046614639
:1070400041440978079809911969049540185968CD
:107050000890884618680121494281468844504674
:10706000002102380A918B4605990B90201C92460C
:1070700064464A468446994643468846089D191CFC
:10708000281C58440140515C099DA9422FD1411C44
:107090001940515CA0250691615D069D8D4226D167
:1070A00002301840A125105C615D88421FD107980D
:1070B000644603308446DC4441466046049D0591A5
:1070C0004B465246002800D190E53E490868894663
:1070D000411C8846614500D08AE5042139603A495F
:1070E0000020474608604846076017604BE70A9D46
:1070F0000B9901350A95AB468D42BFD143460593A6
:10710000049D64464B4671E5314801F0C5FC12E729
:10711000099B0A98013309939846834201D0FFF7EF
:10712000C9FB4A46049C059253465FE5284801F096
:10713000B3FC1AE6274B1B68002B01D0FFF700FCBD
:107140003BE4101C62460892844601318A46494558
:1071500000D167E55A468818069A1040079A105CD5
:10716000089A824201D1624646E79042EDD16246DA
:1071700042E7201C03F078FC164B00221A6074E4EE
:10718000134801F089FCF6E5296855E44B469AB2AC
:10719000301C51460DF0E4FA002800D162E45EE4B0
:1071A000740100105C010010240C0010100C001081
:1071B000706901000080004080690100500D0010DE
:1071C0009C0B00106801001088010010C001001025
:1071D000AC0B00106C01001000B540238BB00128EF
:1071E00015D006930B4B07913E20FA21059089009C
:1071F000186808920BF05AFE074B099001A905A8E0
:107200009847019A50425041C0B20BB000BD802354
:107210009B00E6E754150010F11FFF1F00B5402347
:107220008BB0012815D006930B4B07913D20FA2116
:1072300005908900186808920BF038FE074B0990FA
:1072400001A905A89847019A50425041C0B20BB01D
:1072500000BD80239B00E6E754150010F11FFF1FBF
:10726000A0230022DB059A707047C046A0230122AC
:10727000DB059A707047C04608B5031C0A1C02481B
:10728000191C0CF0EFF908BD0000044010B582B0E5
:107290006C460734211C012202480CF0E3F92078E7
:1072A00002B010BD0000044008B5031C0A1C0248CF
:1072B000191C0CF091F908BD0000044000B583B022
:1072C000694607310870012202480CF085F903B0C5
:1072D00000BDC0460000044010B51E4C0021201C1B
:1072E000062282230CF0B4F8201C002108228123FE
:1072F0000CF0AEF8201C0021092281230CF0A8F824
:10730000201C0021022210230CF0A2F8A0228023CE
:10731000D2059B01D05804210143D150D05880217F
:107320000D4CC9030143D150201C0CF033FA2368E3
:10733000FF229343072213432360201C01210CF0FA
:10734000EDF9201C05490CF0F3F9626802231343A0
:10735000636010BD00400440000004408096980027
:1073600030B585B0102216496846A0240CF074FB95
:10737000E40500230125FA20A5708000A37500F024
:107380009BF910481049A57504F078F90F48104989
:1073900004F086F90F48104904F098F90120694675
:1073A00004F002FB013000D1FEE70C4800F084F944
:1073B000D8204001032103F0A3F805B030BDC0463A
:1073C00088690100617200006D7200008D7200001A
:1073D000BD72000079720000A97200001027000041
:1073E000F0B5474680B404F07FFC041C04F07CFC3C
:1073F000804B02221968061C0A4200D01A607E4D9A
:1074000033342B6801332B6001F0B8FB7B4B1A78C7
:10741000002A04D1E27BA17B12020A4331D1784ACF
:107420001378002B28D1774B1968607B277B0002EB
:107430003843884202D8002111701960724F3B789E
:10744000002B00D077E0714A1378012B00D187E040
:107450006F4B1868F421FF31884203D90221117063
:1074600000221A60FA21286889000BF01FFD0F1E08
:107470001BD004BC9046F0BD624B19680131196005
:10748000D3E76449644FC8680969411A88467ED1C8
:107490006249002008604046386008688242BED8D1
:1074A00001221A7000230B60B9E700200BF070FE78
:1074B0002F605B4D52362B6801332B60337D002BE0
:1074C0006ED1737D002B70D1564A1378012B72D088
:1074D000E37AA17A1B020B4307D053490868834221
:1074E00003D80223137000230B60504B1B78002B32
:1074F00003D04F4B1A6801321A6028683C210BF008
:10750000D5FC002906D12960737D002B02D0494BA0
:1075100001221A70484C2378012BAAD1474D05212E
:107520002E680136301C0BF0C1FC002954D1022317
:10753000296023709DE742490B68884601330B6040
:107540000BF048FE002810D000233B7047463B60FC
:107550003C4B01221A602D4A1378012B00D077E7AB
:107560002B4B18680130186074E743461A68364B95
:107570009A4200D867E704F0BBFB04F0ABFCBFF312
:107580004F8F324A324BDA60BFF34F8FFEE73968D4
:10759000414500D07CE721490868013008607CE75C
:1075A00002F046FF737D002B8ED002F071F81D4A69
:1075B0001378012B8CD1274B1968274B186881420F
:1075C0000CD0264807682648BC461960164B67460B
:1075D0000021076019607BE72E604AE71F480768B3
:1075E0001F48BC460768BC45EFD10F4B19680131F5
:1075F00019606DE700400140B80100109C010010C7
:10760000AC010010A8010010940B0010C001001084
:1076100088010010240C0010A0010010900100103F
:1076200094010010A40100108C010010C101001091
:10763000BC01001050010010B4010010B001001096
:107640009801001000E100E0871300000400FA0533
:1076500000ED00E0640100100C0C00105801001057
:10766000080C001038B5124C201C0CF0EFF80BF091
:10767000DDFE051C201C0CF009F962690823134388
:10768000FA216361281C89000BF010FCE06162693B
:1076900010231343636162680123134363608022F4
:1076A000044BC021D20249005A501A6038BDC0466E
:1076B0000040014000E100E082B00190019B5A1EB1
:1076C0000192002BFAD102B07047C04608B50348BA
:1076D0000349044A0CF07CF908BDC0460080004014
:1076E000240C0010100C0010F8B541780378090242
:1076F00019438378041C1B041943C37837481B06BD
:1077000019430CF002F92379072B57D0082B35D1F8
:107710001F270F261B200B2107250322A379012BEE
:1077200004D0022B2DD1381C311C2A1C6379012B6B
:107730002CD0002B02D0022B2AD1021C274D284826
:10774000EA600021072281230BF082FE8123244876
:10775000002111220BF07CFEE379012B35D0002BA8
:1077600023D0022B17D0032B07D12B69C2229343BE
:107770002B61EA6C31231343EB64F8BD08232371BA
:10778000C6E70123A3716379012BD2D10A1CD5E787
:1077900000236371D2E711228023114800210BF0EE
:1077A00057FEA0230022DB055A742B69C2229343A3
:1077B0002B61EB6C31229343EB64DEE71E270E2630
:1077C0001A200A2106250222A8E7EB6C31229343F6
:1077D000EB642A69C02313432B61CEE7008000408D
:1077E0000040044000230361C360704708B5021CD9
:1077F0000B1C024802490CF0E4F808BD0080004070
:10780000240C001008B5021C0B1C024802490CF0A5
:10781000B9F808BD00800040100C0010F8B504F065
:1078200063FA041C50480CF03DF84A23E35C4A34E8
:1078300061784D4809021943A3781B041943E37882
:107840001B0619430CF061F82379072B00D17AE06D
:10785000082B58D11F270F261B200B210725032299
:10786000A379012B04D0022B50D1381C311C2A1CC7
:107870006379012B4FD0002B02D0022B4DD1021C7B
:10788000394D3A48EA600021072281230BF0E0FDE0
:1078900081233648002111220BF0DAFDE379012B18
:1078A00058D0002B46D0022B3AD0032B07D12B699E
:1078B000C22293432B61EA6C31231343EB642A4CBD
:1078C000C123A3608023236329490122DB002948C7
:1078D0000BF0C4FD802328490122DB0027480BF070
:1078E000BDFD6268052313436360C522244B9200EB
:1078F0009858244901408020C001014399508022BA
:1079000092031A60F8BD08232371A3E70123A37132
:107910006379012BAFD10A1CB2E700236371AFE793
:1079200011228023114800210BF092FDA023002298
:10793000DB055A742B69C22293432B61EB6C312215
:107940009343EB64BBE71E270E261A200A21062567
:10795000022285E7EB6C31229343EB642A69C02352
:1079600013432B61ABE7C046008000400040044059
:10797000C4050010240C0010C4010010100C0010ED
:1079800000E100E0FF00FFFF70B5037A041C032B49
:1079900038D0042B38D00025E0682169626900F0F6
:1079A00099FAE37E02304519002B1CD1236C002B81
:1079B00011D0206C616CA26C00F08CFA02302D1892
:1079C000E36C002B0BD04C3407CC00F083FA023070
:1079D0002D18281C70BDA36C002BEAD1F0E7636D55
:1079E000002BF0D1F5E7A16AE26A606A00F072FA52
:1079F000616B061CA26B206B00F06CFA3618043623
:107A0000AD19D3E70C25C7E70A25C5E7F0B583B064
:107A10000190051C101C0F1C141CFFF7B5FF061C61
:107A200000F06EF9B84200DD82E001A8102100F0FC
:107A3000C9F9019F311C381C00F040F9237A3F1826
:107A4000019701A8042B65D03B4900F0D1F901A8AA
:107A5000032100F0B7F9E37EA17E581E8341012285
:107A60001140DBB2980049000143002B24D1236C64
:107A7000002B2FD0802319430127E36C002B51D01A
:107A8000402319430126C9B201A800F09BF9218BBC
:107A900001A800F09DF9636901A8E168226900F07E
:107AA000C5F9E37E002B28D1002F1FD1002E17D15E
:107AB000019B581B03B0F0BD3D23E35C0320034052
:107AC0003C20205CDB0019430240236C520111432F
:107AD000002BCFD1A36C002BCCD10F06FF0FCCE72E
:107AE0004C3401A80ECC00F0A1F9E1E701A8216C0B
:107AF000626CA36C00F09AF9D8E701A8616AA26AE7
:107B0000E36A00F093F901A8216B626BA36B00F0AC
:107B10008DF9C9E7094900F06BF901A8042100F0CB
:107B200051F998E7636D002BAAD14E06F60FAAE72C
:107B300002204042BEE7C046A069010098690100EA
:107B400070B582B0051C68460C1C009200F034F938
:107B500003061B0F0020022B01D002B070BD009E57
:107B600001A9301C00F0E0F8019B36180096012BAB
:107B7000F3DD684600F020F90006C00F2870684663
:107B800000F01AF920700120E7E7C04630B583B055
:107B9000041C019001290CDD01A8E02100F012F97C
:107BA000019D0021281C00F089F82818001B03B053
:107BB00030BD02204042FAE730B583B0041C01908A
:107BC00001290CDD01A8C02100F0FCF8019D002175
:107BD000281C00F073F82818001B03B030BD0220E9
:107BE0004042FAE7F0B557464E464546E0B482B00B
:107BF00090460D9A81469A46684600230F1C0092D3
:107C0000019300F0D9F80606360F0025032E06D0A2
:107C1000281C02B01CBC90469946A246F0BD030742
:107C20004A46DB0F137043079B0FC4073B60E40F0A
:107C300043461C70009C01A9201C00F075F8019AB5
:107C400024180094A418051C69460A98221C00F008
:107C500027F90028DCD0009AA31AD9D43968002962
:107C600006DD684600F09EF8009A53461880A31A75
:107C70000C9901250B600B9B1A60C9E770B582B0A7
:107C8000041C68460D1C161C009300F095F80207B2
:107C900003061B0FD20F2A702370009C01A9201C21
:107CA00000F042F8019B24180094012B04DD684683
:107CB00000F078F83080012002B070BDCB175B0E69
:107CC000C9187F220A40D21AF0B58446D2B2C9112F
:107CD000002911DD01278026031C3F1A76427F25EB
:107CE00032431A702A1CFC180A400133C911F7D11B
:107CF000601C63461A55F0BD00240120F9E7C04618
:107D0000421C031C02307F2A07DD0549D81C8A4229
:107D100003DD0449581D8A4200DD7047181DFCE749
:107D2000FF3F0000FEFF1F00F0B500230B6002784C
:107D30007F231B4D1C1C144052B22860461C0C6053
:107D4000002A1FDA42781E1C1640F601A41952B20E
:107D5000871C0C60002A18DA82781E1C1640B603B5
:107D6000A41952B2C71C0C60002A15DAC278061D8D
:107D700013405B051C1952B20C60002A09DA2E6010
:107D80000520F0BD01202E60FBE73E1C02202E6086
:107D9000F7E704202E60F4E73E1C03202E60F0E796
:107DA000C40900100368021C1878597800020233D5
:107DB000401813607047C0460368021C18780133EE
:107DC00013607047036819700368013303607047DC
:107DD000CA17120E10B5511804680B1223700368ED
:107DE0008A1A5C1C04605A7003680133036010BD7A
:107DF00070B5041C081C0E1C0DF0B2FCC217120E4C
:107E00001118051C20680B12037023688A1A581C6D
:107E100020605A702068311C01302A1C20600BF051
:107E20001BFE23685D19256070BDC04670B584B027
:107E3000041C03930E1C151E26DC00291AD0081CF6
:107E40000DF08EFCC217120E1118051C20680B12C3
:107E5000037023688A1A581C20605A702068311CED
:107E6000013020602A1C0BF0F7FD226855192560AF
:107E700004B070BD0368197003685A1C0260597021
:107E8000036801330360F3E700681312037023688B
:107E900003995A1C22605D70206801302060E1E780
:107EA0000B6830B5D41A012C0FDD1C785D782402E4
:107EB000641902331D190B604460AA4205D3836024
:107EC0000B6801221C190C6000E0002200230360F3
:107ED000101C30BD00B585B00291002803D00DF014
:107EE0003FFC05B000BD0298FBE7C04670B50468D2
:107EF0000D1C002C0BD0201C0DF032FC061C281C85
:107F00000DF02EFC0023864209D0181C70BD846839
:107F10004668281C0DF024FC00238642F5D1201C65
:107F2000291C321C0DF046FC43424341EDE7C0469C
:107F3000F0B54D465F4656464446F0B485B01E1C2B
:107F40000EAB1B7810AC99460FAB1B88009088468F
:107F50009B46211C01AB071C924625C925C30198ED
:107F60001199129AFFF7B6FF149D841C2C19002E4C
:107F700000DD0234201CFFF7C3FE404532DC012146
:107F8000504608400322C0003023324052000343D1
:107F900048461343014019436846FFF713FF009D0D
:107FA000211C281CFFF78AFE2818009010996846AB
:107FB000119A129BFFF73AFF002E03DD68465946DF
:107FC000FFF706FF149A009813990BF045FD009AED
:107FD000149BD518E81B05B03CBC90469946A246B8
:107FE000AB46F0BD02204042F5E7C04670B582B016
:107FF000041C06A80688019403291DDD01200F2119
:1080000003401140063ADB00504242410901194346
:108010005200114301A8FFF7D5FE019D0221281C43
:10802000FFF74CFE311C2D1801A80195FFF7D0FE7B
:10803000019B181B02B070BD02204042FAE7C04607
:10804000F0B55F4656464D464446F0B483B00C9FAB
:108050008046894693469A460190002F49DD0D9C43
:108060000226002520686168A268FFF733FF01350A
:10807000033036180C34BD42F4D1301CFFF740FEFB
:10808000484533DC5A46012111408023C900194379
:108090000223194301A8FFF795FE019C311C201C07
:1080A000FFF70CFE5146241801A80194FFF790FE3B
:1080B000002F11DD0E9B0D9CDEB200252168626849
:1080C000A36801A8FFF7B2FE013501A8311CFFF734
:1080D00079FE0C34BD42F1D1019B4246981A03B09F
:1080E0003CBC90469946A246AB46F0BD02204042B9
:1080F000F5E70226C1E7C046F0B5474680B482B036
:108100001F1C089B041C684600930E1C151CFFF7DF
:1081100053FE03061B0F0020092B03D002B004BC42
:108120009046F0BD009B01A9181C9846FFF7FCFD86
:1081300043461A18019B0092D2189046012BEDDDA0
:108140006846FFF72FFE002320802B60009B984598
:1081500011D9002E11DB002402E02C68B4420CDCA3
:10816000631C2B606846FFF727FEA400009B3C19A8
:1081700020609845F1D80120D0E701204042CDE7AA
:10818000F0B55F4656464D464446F0B483B00C9F6A
:108190008046894693469A460190002F43DD0D9C08
:1081A0000226002520686168A268FFF793FE01356A
:1081B000023036180C34BD42F4D1301CFFF7A0FD5C
:1081C00048452DDC5A4601211140A023C90019431E
:1081D0000223194301A8FFF7F5FD019C311C201C67
:1081E000FFF76CFD5146241801A801940025FFF704
:1081F000EFFD0D9C002F09DD21686268A36801A8CE
:108200000135FFF713FE0C34BD42F5D1019B424608
:10821000981A03B03CBC90469946A246AB46F0BDC6
:1082200002204042F5E70226C7E7C04670B586B097
:108230000B1C02AC061C002504A925700D70201C27
:108240000092321CFFF71AFD23780B2B00D101207E
:1082500006B070BD08B50361029B01658360039B96
:1082600000214361049B4162C3600123C1624163F9
:10827000C1634164426001620177C16403605430AC
:1082800000F084FC08BDC046F0B556464D465F463A
:108290004446F0B40123051C5B4283B082468B4602
:1082A0009146243598460026296800290FD0584663
:1082B000FFF71CFE00281BD06B68002B07D0584628
:1082C0004946019000916846984700229046013641
:1082D0000835052EE8D1434601334ED00023984699
:1082E000404603B03CBC90469946A246AB46F0BD22
:1082F0002A6858468368416814785818002C20D0A2
:108300008342E4D20132571EBC461F78411E2F2FF4
:1083100011D02B2C18D0232C27D0A742D7D11478DA
:108320000133002C0DD09842D1D90132571EBC46E2
:108330001F782F2FEDD12F2CC9D114780133002CA9
:10834000F1D19842C3D1B7E75C1CA04204D80EE03B
:10835000231C01348B420AD05B782F2BF8D1231CCD
:108360001478002CEDD00132E0E70B1CD7E767460C
:108370007A78231C002AAAD1E3E75746FB6C002B2E
:10838000AED0584649460190009168469847002271
:108390009046A5E7F0B54D465F4656464446F0B4D4
:1083A000056D476993B0041C081C89466E6800F08F
:1083B0000BFC391C031C0122281CB047012800D0EB
:1083C000A1E0484600F000FC04227F23824690464C
:1083D000002701260EAD9B46206D291C426853469E
:1083E00094460122E04701280ED12B785A461A40C4
:1083F00072435BB2BF18F601002B05DA012252422C
:1084000090444346002BE7D16069391C0130FFF7E7
:1084100055FC002F10DD266D62697368013012185B
:1084200048469246984600F0CFFB5146031C3A1C42
:10843000301CC047B84266D163691F783F09052FD9
:1084400000D1A2E00D2F51D0032F51D110AA0393D8
:10845000E3680AAE0192684611AA0292049300965C
:108460003A3008A90B3A0FABFFF7BCFB012842D109
:10847000089A201C2A70311C2A1CFFF705FF2B7854
:10848000002B35D0012B00D1B3E0022B00D085E0CA
:10849000AB8820690093A16805220023FFF7A6FDA1
:1084A00080464346002B00DC78E00025484600F07B
:1084B00071FB002812D1266D2369B2685B1948460A
:1084C0009B46924600F080FB5946031C4246301CF6
:1084D000D047002802DB2D18A845E7DCA8455DD170
:1084E000201C5430A16900F065FB01E000232377D4
:1084F000A369002B0BD1381C13B03CBC90469946A5
:10850000A246AB46F0BDA3693F4F002BF3D0221C1F
:108510005432101C079200F03DFB0028EBD0237F63
:10852000002BE8D10EAD281C00F030FBFA21281CEE
:10853000890000F037FB2069A168FFF73DFB0026AA
:1085400081460028D7DD281C00F024FB002813D129
:10855000236D281C9A689846924622699219934680
:1085600000F032FB5946031C4A464046D0470028DB
:1085700002DB3618B145E6DCB145BCD10798A169EC
:1085800000F018FB01232377B5E7E2680AA8009200
:1085900008A92A1CFFF772FB012802D001277F429D
:1085A000A9E72B8820690093A16806220023FFF722
:1085B0001DFD00258046002815DCEFE7266D2269A9
:1085C000B3685219484693469A4600F0FDFA594658
:1085D000031C4246301CD047002800DA7EE72D18E5
:1085E000A84500DC7AE7484600F0D4FA0028E5D038
:1085F00074E7AB8820690093A16804220023FFF789
:10860000F5FC80464DE7C046FFFF000030B583B063
:108610000D1C041C684600F0B9FA6846291C00F0DD
:10862000C1FA04E0684600F0B5FA002807D1201C22
:108630006946FFF7AFFE431CF4D103B030BD002004
:10864000FBE7C046F0B5454657464E46E0B49CB001
:10865000051C58220C1C06A835490BF0FDF92A6AA6
:10866000002A55D104A800F091FA04A8696800F026
:1086700099FA002C5AD0218B54235B19181CA9613C
:10868000994600F097FA2869A968221CFFF7BEF9FD
:10869000071E3DDD002404A800F07CFA002812D15A
:1086A0002E6D2B69B2681B1904A89A46904600F0FB
:1086B0008BFA5146031C3A1C301CC047002802DBD1
:1086C0002418A742E7DCA74222D14846A969012421
:1086D00000F070FA644206E0281C04A9FFF75AFE75
:1086E000041E022C06D004A800F054FA0028F3D08F
:1086F000022C0DD1FF236A46137002A800230370D9
:108700006946EB686A69FFF71BFA031E012B07D065
:10871000012040421CB01CBC90469946A246F0BDC8
:108720006A4610780028F5D12B62F3E706ACA2E781
:10873000A8690100F0B54D46564644465F46F0B480
:10874000161C026A8DB099460023051C88460A93C0
:108750000B930991002A76D007A800F017FA07A812
:10876000696800F01FFA2C68434B2869A9689C428D
:1087700000D171E00134A3B201222C60009209AA59
:10878000019202960022FFF75BFC071E5BDD0024CE
:1087900007A800F0FFF9002812D12E6D2A69B368EE
:1087A000121907A893469A4600F00EFA5946031C80
:1087B0003A1C301CD047002802DB2418A742E7DC13
:1087C000A74240D1281C5430A969012400F0F2F9D5
:1087D000644206E0281C07A9FFF7DCFD041E092CF3
:1087E00006D007A800F0D6F90028F3D0092C2AD12A
:1087F0000023059301235B4206936B69684600934F
:10880000EA6812300192012105AA06ABFFF774FC59
:10881000012824D000206B6A002B24D0EA6A002AA9
:1088200023D06B6B002B24D0EA6B002A1FD06B6C1B
:10883000002B0AD10423DB00ED1842464B466A6246
:10884000AB62002001E0012040420DB03CBC9046EC
:108850009946A246AB46F0BD012301248CE7069859
:108860008028F2D0D7E70023E5E70123E3E70323DD
:10887000E1E70223DFE7C046FFFF0000F0B54F4607
:108880004646C0B4026A89B00023051C06930793CC
:108890000591002A51D003A800F078F903A869686F
:1088A00000F080F92A682A4B2869A9689A424BD0BF
:1088B000013293B22A600122009205AA019200229D
:1088C000FFF75EFC071E38DD002403A800F062F904
:1088D000002812D12E6D2A69B368121903A8914697
:1088E000984600F071F94946031C3A1C301CC047F9
:1088F000002802DB2418A742E7DCA7421DD1281C70
:108900005430A969012400F055F9644206E0281C9E
:1089100003A9FFF73FFD041E0B2C06D003A800F0AF
:1089200039F90028F3D00B2C07D168466969EA6849
:108930000A30FFF77BFC002001E00120404209B033
:108940000CBC90469946F0BD01230122B2E7C04617
:10895000FFFF0000F0B54E4657464546E0B4061C02
:108960008EB0006A0BAC002391466360A3600B914C
:1089700000285ED009A800F009F9716809A800F084
:1089800011F949460B785A1E012A55D98A884F4653
:1089900079780192009102AAA1CCA1C248468068D0
:1089A00049460590C968002206913069B168FFF711
:1089B000BFFA071E3DDD002409A800F0EBF80028EF
:1089C00012D1356D3369AA681B1909A89A469046D9
:1089D00000F0FAF85146031C3A1C281CC047002836
:1089E00002DB2418A742E7DCA74222D1301C543016
:1089F000B1694D4600F0DEF82B78012B29D000201C
:108A0000022B05D00EB01CBC90469946A246F0BD84
:108A10000124644206E0301C09A9FFF7BBFC041ED8
:108A2000072C27D009A800F0B5F80028F3D0072CB0
:108A300020D001204042E5E7326816498A4205D03D
:108A4000511C8AB24D463160AA80A0E70122012163
:108A5000F8E70124644206E0301C09A9FFF79AFCFC
:108A6000041E042C06D009A800F094F80028F3D0C6
:108A7000042CDED17369F66868466A460096213098
:108A800008A92232FFF7FAF80138431E9841404204
:108A9000B8E7C046FFFF0000F0B54F464646C0B4F9
:108AA00083B0061C684600F071F86846716800F0F3
:108AB00079F83069B168FFF769F8071E27DD0024EF
:108AC000684600F067F8002812D1356D6846AB683B
:108AD000984633691B19994600F076F84946031CFD
:108AE0003A1C281CC047002802DB2418A742E7DCF8
:108AF000A7420CD1301C5430B16900F05BF8002063
:108B00000023336203B00CBC90469946F0BD0120AF
:108B10004042F5E708B5006802F086F808BDC04697
:108B2000036870B5041C5801C2239B00C0180E1CBA
:108B3000151C01F0B5FC172800D070BD207801F09D
:108B4000B7FD0028F9D02068311C2A1C02F0DEF99C
:108B5000F3E7C046036870B5041C5801C2239B00AC
:108B6000C0180E1C151C01F09BFC172800D070BD0E
:108B70002068311C2A1C02F0D5F8F8E7024B1A686D
:108B800001321A607047C046380C00100023436061
:108B90007047C046024B40681B68C01AC00F704740
:108BA000380C0010024B1B68C91841607047C04662
:108BB000380C0010FA239B005943024B1B68C9185C
:108BC00041607047380C0010034B40681B68C01AA6
:108BD000C343DB1718407047380C0010034B01608B
:108BE0004360034B8360034BC3607047218B0000DD
:108BF000558B0000158B000010B50C1C131C0121B7
:108C0000221C006801F00AFE10BDC04608B50068CD
:108C100001F08EFF08BDC046F0B54D4644465F46A4
:108C20005646F0B4A5B006910B920021042209909B
:108C30000AF016FF069C099D227863781202D31869
:108C40002B80A378E2781B02D21893B2160401D5C8
:108C500000F03FFC5A04099F120FFA70580501D525
:108C600001223A71990502D5099C01226271DD0544
:108C700002D5099E0122B2711F0602D5099C01226C
:108C8000E271099D0F22069E13402B72327973798F
:108C90001202D21892B26A81B179F3790902CB1823
:108CA0009BB2AB81307A717A00024118E981B07AC7
:108CB000F17A069F000241180C3729820797002A93
:108CC0003AD000200CA908900A9182460026602123
:108CD000079D0A9A0496B446B046894629786446A8
:108CE0006B1C081C002C68D03F24A043C02800D176
:108CF000B8E00125AC46002967D1049C131C002C68
:108D000002D12E2501321D70564647461670013796
:108D100000D1C7E00798031C434404330793002B9A
:108D200000D1BFE0089B099C01339BB20893638983
:108D3000089DAB42CAD8A38900220CAC0026089239
:108D40000A94B346002B00D1D9E160220027914656
:108D5000079D0A9A0497BC46B846297866466B1C5C
:108D6000081C002E00D1A6E03F26B043C02800D149
:108D7000F7E00127BC46002900D0A5E0049C131CA5
:108D8000002C02D12E2501321D705E46474616701A
:108D9000013700D186E00798031C43441A1C0A32AD
:108DA000197807925A7809028A1892B20F2A00D9C4
:108DB0009BE1C74C9200A25897463F26B043C0287B
:108DC0004ED00127B844002997D048460138401AB0
:108DD00086B2B146070465D46046002800D18844B5
:108DE000181D5446824264415646101D8342764106
:108DF000301C092720438F42A4414D1E6442ADB26E
:108E000004423BD0181C10430324044236D18F087F
:108E1000BE00B6B200200024BB461F5801341750D4
:108E2000A7B204305F45F8D3AF1B90199C19BFB2AD
:108E3000B14213D021780170002F0FD061784170BA
:108E4000012F0BD0A1780135817051192E204A1CB9
:108E5000087004995D19013104913FE70135F4E789
:108E6000022080443F2319406B780902069CC918F0
:108E7000611801254B1CAC4609783CE701350021FF
:108E8000585C50540131A942FAD1DEE71A1C9B7A92
:108E90000B32D3185A1C1B78D3180793181C0028C0
:108EA00000D022E1FF2040B225B03CBC904699465C
:108EB000A246AB46F0BD3F27B843C0284FD00120A3
:108EC0008044002900D159E748460138401A87B24A
:108ED000B9460404E6D46546002D00D18844181D27
:108EE0005C46824264415E46101D83427641301CDE
:108EF000092720438F42A4414D1E6442ADB2044273
:108F00003BD0181C10430324044236D18F08BE0006
:108F1000B6B200200024BA461F5801341750A7B239
:108F200004305745F8D3AF1B90199C19BFB2B1421A
:108F300013D021780170002F0FD061784170012F7C
:108F40000BD0A1780135817051192E204A1C087070
:108F500004995D1901310491FFE60135F4E702231C
:108F600098443F246B7821400902069DC91869186E
:108F700001264B1CB4460978A3E701350021585C53
:108F800050540131A942FAD1DEE70C3305931E1C7F
:108F900000239846002560270A9BAA46B9463178E7
:108FA000721C081C002D00D1AFE03F25A843C0284B
:108FB00000D1D9E10125002900D0B0E045461A1CB6
:108FC000002D00D17DE25F4650461F70013000D178
:108FD00068E705990A1C52440792101C5FE70023BA
:108FE000984600256027079E0A9BAA46B946317815
:108FF000721C081C002D00D14FE13F25A843C0285A
:1090000000D1BEE10125002900D04FE145461A1CE0
:10901000002D00D159E25F4650461F70013000D14B
:1090200040E7079900230A1C524400250493602757
:109030000A9B0792161CA846B946AC466046721CAD
:109040003178002800D1CCE1081C3F25A843C02876
:1090500000D11EE20126B446002900D0CBE10499DC
:109060001A1C002902D12E24013314705D46464695
:109070001D70013600D115E7079F3B1C4344143394
:109080000793181C0BE7002700256021079E0A9B09
:10909000B846AA4689463178721C081C002D00D1BA
:1090A00098E03F25A843C02800D177E10125002999
:1090B00000D099E045461A1C002D00D1FDE15F4625
:1090C00050461F70013000D1ECE6079982E7C04698
:1090D000006A01009A7A0B9D2A70DA7A6A701A7B0C
:1090E000AA705A7B0E33EA700793089B099C0133E0
:1090F0009BB20893A389089DAB4200D925E6099D40
:10910000287A43425841C0B2CDE63F24A043C0284C
:1091100000D127E10126B244002900D14EE748469C
:109120000138401A86B2B146070400D5BAE6002DD0
:1091300000D18A44101D5C46834264415F46181D7D
:1091400082427F41381C092720438F42A4414E1E92
:109150006442B6B2044200D12BE1101C1843032430
:10916000044200D025E188088446870003956546BF
:10917000BFB29C4600200024079104952B1C155873
:10918000614601340D50A5B204309D42F7D36346C9
:10919000D81904900799F01B80B2039DD419844616
:1091A000B94200D1D8E02178049F3970002800D15D
:1091B000D2E0617860467970012800D1CCE0A178D6
:1091C0000136B9709919012496192E224B1C0A7088
:1091D000A044E4E63F24A043C02800D1DCE00126FF
:1091E000B244002900D165E748460138401A86B2EA
:1091F000B146070400D555E6002D00D18A44101D64
:109200005C46834264415F46181D82427F41381CA0
:10921000092720438F42A4414E1E6442B6B2044245
:1092200000D1CEE0101C18430324044200D0C8E053
:109230008808844687000024002002916146BFB25E
:109240009C460594039001950B1C1558614601340A
:109250000D50A5B20430AB42F7D86346D81904903C
:109260000299F01B80B2019DD4198446B94275D091
:109270002178049F3970002870D061786046797039
:1092800001286BD0A1780136B9709919012496197B
:109290002E224B1C0A70A044FDE63F24A043C028A8
:1092A0006DD00126B244002900D1AFE6484601380E
:1092B000401A86B2B146070400D5F3E5002D00D16F
:1092C0008A44101D5C46834264415F46181D8242F9
:1092D0007F41381C092720438F42A4414E1E64421F
:1092E000B6B2044275D0101C18430324044270D156
:1092F00088088446870003956546BFB29C460020D7
:109300000024059104952B1C1558614601340D501D
:10931000A5B204309D42F7D36346D819049005994D
:10932000F01B80B2039DD4198446B94218D021782D
:10933000049F3970002813D0617860467970012845
:109340000ED0A1780136B9709919012496192E22F0
:109350004B1C0A70A0444AE6013633E7013694E715
:109360000136F1E70227BA443F2072780140090232
:10937000069C891861184A1C012509781BE60227FA
:10938000BA443F20727801400902069C891861188E
:109390004A1C0125097836E60227BA443F20727834
:1093A00001400902069C891861184A1C01250978A8
:1093B0007DE601360021505C58540131B142FAD1AA
:1093C00000E701360021505C58540131B142FAD116
:1093D0005BE701360021505C58540131B142FAD1AB
:1093E000B2E7081C3F24A043C02850D00125A84460
:1093F000002900D133E648460138401A86B2B1460A
:10940000070400D54EE56046002800D18844101DB1
:109410005C46834264415F46181D82427F41381C8E
:10942000092520438D42A4414E1E6442B6B2044237
:109430003BD0101C18430327074236D18D08AF00DC
:10944000BFB200200024AA46155801341D50A5B211
:1094500004305545F8D3F51BD819D419ADB2B9422B
:1094600013D021780170002D0FD061784170012D4B
:109470000BD0A17801368170049899192E270130FC
:1094800096194B1C0F700490D8E50136F4E70227BB
:10949000B8443F20727801400902069C891861187F
:1094A00001254A1CAC460978A2E701360021505C30
:1094B00058540131B142FAD1DEE72E26013316703D
:1094C000FDE52E26013316707DE52E26013316703C
:1094D000A1E50122AA70FFF7BDFBC046034B044A79
:1094E0001870044B1960044B1A8070473C0C001034
:1094F00022110000440C0010480C0010F0B54D463D
:1095000044465F465646F0B40C1C5C49A1B004903A
:1095100005920878002200238A46022101F07EF994
:10952000574B584A19689B461388039101339BB2E5
:1095300013801A0A0A704B70012200238A70CB70C4
:109540000B714A718B71CB710B724B728B72CB7238
:109550000C22884608A8211C90440CF0DFF808A8CB
:109560000CF0FEF880B2814608AD17E0441BA4B2AF
:109570004746434601371C70002C1CD0381C291C60
:10958000221C3F190CF040F9B846002E00D170E0C3
:10959000631CE4434C44A4B2ED18A146281C2E21C0
:1095A0000CF090F8061EE1D14C4647464346013781
:1095B0001C70002CE2D1002201233A707B70BA703B
:1095C000FB705246039B10783A1DD21A3523009344
:1095D0005B46196892B2049B01F07EFD2A4C2B4D2C
:1095E00035265146087801F063F8002821D121681A
:1095F0000229F6D92B782060012B09D92870002088
:1096000040B221B03CBC90469946A246AB46F0BD64
:10961000013352462B7010785B4600961968002281
:10962000049B01F059FD5146087801F041F80028EB
:10963000DDD05B4652461968802314789B00021CDB
:10964000984214D86B461A3392B20093201C07AB91
:1096500001F0F4FD5A46116808A8059AFFF7DCFAF4
:109660005346041C187801F0C1F9201CC8E71A1CE5
:10967000E8E7414601370E709DE7C0463C0C0010FC
:10968000440C0010480C0010400C0010C8090010D9
:10969000024B1A6801321A607047C046400C001035
:1096A000F02008B500010849042200F097FFA0202F
:1096B000C0000649042200F091FF802040000449C8
:1096C000042200F08BFF08BDD8090010CC0900105F
:1096D000D409001008B58021002000F011FF0020FF
:1096E00000F0DEFE902000010249062200F076FF25
:1096F00008BDC0464C0C001008B58021002000F0C9
:10970000FFFE002000F0CCFEF02000010B490422F7
:1097100000F064FFA020C0000949042200F05EFFB1
:10972000802040000749042200F058FF90200001EB
:109730000549062200F052FF08BDC046D8090010B6
:10974000CC090010D40900104C0C001070B5094B66
:10975000094D0A4C2B600A4B0A4E23600A4B1E60CF
:10976000002800D02860002900D02160002A00D005
:109770001A6070BDA19600000801001004010010DD
:10978000F9960000D59600000C01001030B590202D
:1097900083B000016946062200F0E2FE2C4B012254
:1097A0001B682C491A705A7006229A700022DA70CF
:1097B00009681A81080E1871080C5871080A987106
:1097C000802098722448D97104780021D9721973C5
:1097D00059739973D973197459749974D974197523
:1097E00059759975D975197659769976D9761C7700
:1097F00044785C7784789C77C478DC77057920247A
:109800001D55447921201C54222019542320195419
:109810005A629A62DA621A635A639A63DA631A6462
:109820005A649A64DA641A655A659A65DA651A6642
:109830005A669A66181C1A1C6C32EC30002102C25F
:109840008242FCD10549EC22995003B030BDC0469C
:109850005C0C0010540C00104C0C0010638253631D
:10986000F0B556464D4644465F46F0B48BB0FFF720
:109870008DFF6F4B35221968F023CA540123F12262
:109880008B54F2228B543D20F32288540720F4227B
:109890008854F5228B54674BF622187888545878F0
:1098A000F72288549878F8228854DD78F9228D546C
:1098B0001C79FA228C545B790C2202930298FB23C8
:1098C000C8545D48FC230678CA540022FD23CA54BC
:1098D000002E00D192E0122300E0131CCF185A1C76
:1098E000E837113B3E719BB2C65C92B2002EF4D1B8
:1098F000561CB6B2B346961CB6B2B246D61CB6B229
:10990000F71A0333DBB20393131D9BB20493531D69
:109910009BB20593931D9BB20693D31D9BB20793F5
:10992000131C08339BB29946131C09339BB298460B
:10993000131C0A339BB2381F9C46171C131C0C3394
:109940000B37BFB29BB28A18E83215715D464A19CF
:10995000E83214715446029D0A19E83215710A184A
:109960000398E8328E191071E83637223271049A62
:10997000CF198818E83006220271059CE8370819CB
:10998000E83001240471069D03244819E83004716D
:10999000079C4D460819E83002714A19E8320F2039
:1099A000107140460A18E8323A20644610710A19CC
:1099B000E8323B201071FF223A713822FF32934285
:1099C00009D89C2000244000CA180133E8329BB219
:1099D00014718342F8D101235B420993174B89220A
:1099E000187843230093920009AB01F075FB0BB08C
:1099F0003CBC90469946A246AB46F0BD1C2294461C
:109A00001A221B20914618228046069219201622FF
:109A100007900492172014220590924603201322E7
:109A2000039093461D271E231120152612228AE734
:109A30005C0C00104C0C001014010010600C0010A5
:109A4000F0B55F4656464D464446F0B491B0FFF738
:109A50009DFEE74B1B78033B012B00D8ABE10123B4
:109A60005B420F93E34B0FAE1968FF200C96352233
:109A7000F023CA540123F1228B540324F2228C5484
:109A80003D24F3228C540724F4228C54F5228B5469
:109A9000D94AF6231478CC545478F723CC549478CC
:109AA000F823CC54D778F923CF541379FA240B55E3
:109AB0005279B8460292029CFB228C54FF2800D1B6
:109AC0002DE120221F241D271E261C200D92A446B6
:109AD0001B221A240A9718270B960990192617207B
:109AE00008920794162214240597132706960490CB
:109AF0000392A1461526BA461222112512201024DF
:109B00000C19271CE8370C244D193C712F1CE83721
:109B100000243C71B94C2778002F00D176E10D1854
:109B2000E8352F716578421C002D00D176E18A1846
:109B3000E8321571A578861C002D00D169E18E19D7
:109B4000E8363571E578C21C002D00D164E18A1831
:109B5000E83215712579061D002D00D163E18E19BB
:109B6000E83635716579421D002D00D15EE18A1815
:109B7000E8321571A479861D002C00D150E18E19B0
:109B8000E836C21D34710725501C80B28246901CF5
:109B900080B28146101D80B20390501D80B20490A7
:109BA000901D80B20590D01D80B20690101C083028
:109BB00080B20790101C093080B20890101C0A3047
:109BC00080B20990101C0B3080B20A90101C0C302F
:109BD00080B20B90101CD61C0D3080B2B6B2EC1CBB
:109BE0008446751B101C043D0E3080B24D198A1836
:109BF000E832474617715746CA19E83213714A4688
:109C0000029F8B18E8338E191F71E835E836372329
:109C10002C713371039A03258B18E83308221A71CB
:109C2000049C01220B19E8331A71059E06228B1938
:109C3000E8331D71069FCB19E8331A71079A8B1808
:109C4000E8330F221A71089C3A220B19E8331A7173
:109C5000099E3B228B19E8331A710A9F1F22CB19E8
:109C6000E8331A710B9A64468B18E83321221A7173
:109C7000061C0B19E833FF22EC361A719C248B1951
:109C800064005B42241A2B40A34200D9231C002B02
:109C900012D00D18E83500222A71451C012B00D87E
:109CA000A4E04D19E8352A71851C022B00D89DE0EF
:109CB0004D19E8352A710330E71ABD089B19AA002F
:109CC00090460026CA1800230133002440C2AB424C
:109CD000FAD34044B84512D00B18E83338221C712F
:109CE000FF32431C93420ADCCB18E8331C7102306C
:109CF0009C235B00984202D00818E8300471404B66
:109D0000892218784323009392000C9B01F0E4F918
:109D100011B03CBC90469946A246AB46F0BD3224F9
:109D2000FC228C540424FD228C54364AFE251678DD
:109D30002B274E5555782C260D54957880204000C1
:109D40000D54D0780222FF328854812236205200EE
:109D500088540422FF328C542B4A8220147840000D
:109D60000C5454780620FF300C5494788320400023
:109D70000C54D0780822FF3288542A202922282423
:109D80000D96BC46272626270B9025200A9209947B
:109D900024222324089607972226069020271F2096
:109DA00005920494039682462126B9461E221D255B
:109DB0001E201C24A4E60F4B196800238B72CB7263
:109DC000104B1A780A735A784A739A788A73DB7838
:109DD000CB730FAB0C930C4B0C9C1A7822705A78F7
:109DE00062709A78A270D878E07040E6281C63E729
:109DF000C90900105C0C00104C0C0010140100107C
:109E0000600C0010D8090010580C00100D980324A5
:109E1000EDE6321C0225B7E60325B5E60125B3E6DB
:109E2000321C0625B0E6321C0425ADE60525ABE65E
:109E300070B584B0FFF7AAFC3C4B002219683520AE
:109E4000F0238A72CA72C8540123F1200B54F22401
:109E5000042008553D25F3240D550725F4240D5500
:109E6000F5240B55324BF6241D780D555D78F724FB
:109E70000D559D78F8240D55DD78F9240D551D7983
:109E8000FA240D555C79FB23CC543224FC23CC54AA
:109E9000FD23C854274BFE241D780D555D78FF2403
:109EA0000D559E7880256D004E55DD780223FF33D9
:109EB000CD54812336255B00CD540423FF33C85491
:109EC0001D4B82201D7840000D545D780620FF3028
:109ED0000D549D78832040000D54D8780823FF331B
:109EE000C85484235B00CC540A23FF33CA5485230F
:109EF0005B00CA540C23FF33CA54862252008B18CD
:109F0000892292008818002204C38342FCD10123D5
:109F10005B420393094B89221878432300939200F4
:109F200003AB01F0D9F804B070BDC0465C0C001062
:109F30004C0C0010D8090010580C0010600C0010D8
:109F4000F0B54D4644465F465646F0B4CD4D00232D
:109F5000EB5687B00524062B07D1201C07B03CBC6C
:109F600090469946A246AB46F0BDC74CC221207828
:109F700089004001401800F093FA222805D020788B
:109F800002214422002300F049FC207800F090FBDD
:109F9000021E08D100272B78042B00D984E0BB4A8D
:109FA0009B00D3589F466E46B94F0E3620780096D8
:109FB00004AB396801F042F93388432B76D0574619
:109FC000E9E7052F00D1E6E0062F00D012E1B14A03
:109FD00000231360B04A0A211160B04A01241370B3
:109FE00001232B70B9E7022F00D1A7E0AB4E00236D
:109FF000F356012B00DC0FE1A64A00231360A64AAA
:10A000000A212B70116033700024A6E7A44B1B6853
:10A010005F1C00D1A2E09F4E5B083268042493428B
:10A020009BD2A04B1A68A04B1A60A04B1A68013251
:10A030001A60FFF705FD984A0A211160974A00232C
:10A04000336013702C7088E7964B00221A60FFF77C
:10A0500007FC01232B7001247FE7052F00D17FE04F
:10A06000062F0BD18B4A002313608B4A0A21116003
:10A070008A4A0424137001232B706EE7874C002357
:10A08000E356012B00DDBAE0824D834E2B68316828
:10A09000994209D2FFF7D4FC00232B602B680A33C6
:10A0A0003360237801332370012456E73B68804AEC
:10A0B0001E7F11788E4200D06CE75E7F51788E4211
:10A0C00000D067E79E7F91788E4200D062E7DE7F06
:10A0D000D1788E4200D05DE720215E5C11798E42FE
:10A0E00000D057E72121595C5279914200D051E7C5
:10A0F00080B21A1C1B1899466E4F002368499A4675
:10A100006D486E4B6E4EF032BC468846914500D885
:10A1100055E71178062900D112E100D8DCE0352995
:10A1200000D1FFE000D8EAE0362900D1FEE0FF29A7
:10A1300000D144E7911C52788A18E7E7544B012478
:10A140001A68584B117C1970517C5970917C997028
:10A15000D27CDA70FFF774FC2F70FEE60424FCE674
:10A160004E4E00233370504A4E4B10781978884277
:10A1700003D150785978884279D0524B03241B6818
:10A180009847444A00231360434A0A21337003234B
:10A1900011602B70E1E6D820400100F081F9061C27
:10A1A000D8204001032100F0ABF9474B2078474904
:10A1B000009311223B4B00F08FFF041CD82040017C
:10A1C000311C00F09DF90D3442D0FFF731FE314AC9
:10A1D000116813685B1A012BFBD900242E4B146005
:10A1E0000A221A602D4B1C70394B1B6898472C7043
:10A1F0000124B2E6294C0023E356012B1FDDFFF7B3
:10A200002FFB0123234A2B7000231360224A0A21CB
:10A21000237011600124A0E61E4D1F4F2B68396882
:10A220000124994200D398E6FFF71AFB00232B6024
:10A230002B680A333B603378013333708DE6154D5C
:10A24000154E2B6832689A4200D223E7012484E637
:10A25000204B01241B6898470E4A002313600E4AC6
:10A260000A2111600D4A137003232B7075E6907854
:10A270009978884281D1D278DB789A4200D07CE705
:10A2800004247EE7C9090010600C0010406A010038
:10A290005C0C0010DC09001000010010E409001043
:10A2A00010010010D8090010D0090010540C001043
:10A2B0004C0C0010E0090010CC090010580C0010E4
:10A2C000D40900100401001088130000546A010032
:10A2D0000C01001008010010012941D000293DD0D7
:10A2E000032900D026E7977851783770D7787770B0
:10A2F0001779B77057795218F770023206E7332989
:10A3000000D017E79178474639600F02D178791865
:10A310000F02117979180F025179063279184746E0
:10A320003960F3E697780332BA46EFE69178197010
:10A33000D17859701179997051790632D970E5E662
:10A34000517897788B4661460F70D7784F701779A0
:10A350008F7057795A44CF700232D7E60132D5E672
:10A3600091780170D17841701179817051790632FC
:10A37000C170CBE670B5254C061C9020002382B03E
:10A3800006220D1C0001211C019300F0E9F86278FF
:10A3900023781343A2781343E278134322791343BB
:10A3A000627913430DD1082262709020DC22A270E2
:10A3B0000001211C06222370E3702371637100F0F9
:10A3C0000DF9134B134A1E70134BF0201D60134BF5
:10A3D00001A91A600001042200F000F9F02001A98F
:10A3E0000001042200F0FAF8802001A940000422B4
:10A3F00000F0F4F80A4A002313600A4A0A211160A7
:10A40000094A1370094A137002B070BD4C0C001059
:10A41000600C0010785634125C0C0010540C0010C4
:10A42000DC09001000010010E4090010C909001047
:10A43000024B1A6801321A607047C046DC090010EE
:10A44000044B1A7802705A7842709A788270DB78DE
:10A45000C3707047D8090010044B1A7802705A78FC
:10A4600042709A788270DB78C3707047D40900100C
:10A47000044B1A7802705A7842709A788270DB78AE
:10A48000C3707047CC090010044B1A7802705A78D8
:10A4900042709A788270DB78C3707047E0090010D0
:10A4A00030B5164C83B0A168051C884722699047D7
:10A4B000236A002B15D0636A002B12D069462A0C40
:10A4C0000A702A0A4A708D70684603219847A2696B
:10A4D00090476369051C9847E3689847281C03B0B8
:10A4E00030BD2802E169000E88472804000EE269A9
:10A4F0009047E8B2E3699847E9E7C04620010010B9
:10A50000F0B5164C83B00E1CA168051C8847226963
:10A5100090472F1C04231F43636A002B0FD069460A
:10A520002A0C2D0A0A704D708F70CE706846042177
:10A53000984762699047E368984703B0F0BD2802E6
:10A54000E369000E2D049847280EE1698847F8B2A8
:10A55000E2699047301CE3699847EAE72001001060
:10A56000F0B51D4D83B00C1CA968061C171C88474C
:10A570002A6990472B6A002B15D06B6A002B12D0EA
:10A580006946320C0A70320A4A708E70684603219E
:10A590009847201C391C2A6A90476B699847EB68DA
:10A5A000984703B0F0BD3002000EE96988473004D7
:10A5B000000EEA699047F0B2EB699847002FECD0A3
:10A5C0007E1EB6B2A6190136A969884720700134EB
:10A5D000B442F9D1E1E7C04620010010F0B547468A
:10A5E00080B41E4C82B08846A168061C171C8847A0
:10A5F00022699047636A04253543002B14D0320C3E
:10A600006946360A0A704E708D7068460321984775
:10A610004046391C626A904763699847E3689847E7
:10A6200002B004BC9046F0BD3002000EE36936046F
:10A630009847300EE1698847E8B2E2699047002FF9
:10A64000EAD04546013F6B1CBFB2DF192878E369A9
:10A6500001359847BD42F9D1DEE7C0462001001020
:10A66000F8B54601802308369B01F71884239B0127
:10A67000F618002501E0A54217D0381CFFF710FF9F
:10A680000402301CFFF70CFFA4B22418A4B2002C63
:10A69000F1D0381CFFF704FF0502301CFFF700FF64
:10A6A000ADB22D18ADB2A542E7D1281CF8BDC04609
:10A6B000F8B54601982308369B01F7189C239B01A7
:10A6C000F618002501E0A54217D0381CFFF7E8FE78
:10A6D0000402301CFFF7E4FEA4B22418A4B2002C3C
:10A6E000F1D0381CFFF7DCFE0502301CFFF7D8FE66
:10A6F000ADB22D18ADB2A542E7D1281CF8BDC046B9
:10A70000F0B5454657464E46E0B4141C0D1C002AD1
:10A7100029D08000061C013690229201F600B7185D
:10A720008146381CFFF7BCFE94239B01F618824635
:10A73000301CFFF7B5FE52461302C01880B2030268
:10A74000804648460230221CC00044441818291C88
:10A75000A4B2FFF743FF210A381CFFF7D1FEE1B294
:10A76000301CFFF7CDFE1CBC90469946A246F0BDBA
:10A77000F0B5454657464E46E0B4141C0D1C002A61
:10A7800029D08000061C0136A0229201F600B718DD
:10A790008146381CFFF784FEA4239B01F6188246ED
:10A7A000301CFFF77DFE52461302C01880B2030230
:10A7B000804648460330221CC00044441818291C17
:10A7C000A4B2FFF7CDFE210A381CFFF799FEE1B2D3
:10A7D000301CFFF795FE1CBC90469946A246F0BD82
:10A7E000F8B54401A0239B010834E618301C0D1C69
:10A7F000FFF756FEA4239B01E418071C201CFFF75B
:10A800004FFE3F024519ED19ADB2290A301CFFF782
:10A8100077FEE9B2201CFFF773FEF8BDF0B556468F
:10A820005F464D464446F0B4924687B0061C0F1C66
:10A830009946082800D9C9E0022916D0042914D065
:10A84000FB20012907D040B207B03CBC9046994696
:10A85000A246AB46F0BDF020000105A90422FFF797
:10A860007FFE0599FD200029EDD04A46520700D50C
:10A87000AAE04B46002B0FD0012F00D195E0022F0C
:10A8800000D08DE04B4649469B0600D493E04BB286
:10A89000002B00DB98E0CBB20393730180220833D6
:10A8A00052009846141C4444201C1021FFF728FE37
:10A8B000201CFFF7F5FD0028FAD180239B00051C22
:10A8C000181C1F214044FFF71BFE0123B340DB434C
:10A8D0003F499BB201930A1C0B888B4601990B40A0
:10A8E0003C4913800B88019A13400B803A4B72004D
:10A8F0009D520292394A00239355C0239B001D1C90
:10A900004544281CFFF7CCFD0028FAD103990F23FA
:10A9100099430F43F9B24046FFF7F2FD5146002933
:10A9200008D12F4B2F491A889246013292B28A429F
:10A9300039D01A808023DB00181C5246110A40448B
:10A94000FFF7DEFDA023DB00181C52464044D1B2C5
:10A95000FFF7D6FD201C0121FFF7D2FD201CFFF7D9
:10A960009FFD0028FAD159460B88019A49461340A9
:10A9700001220A40B240174913435A4613800B88FC
:10A98000019A13400B80144A029B1449D0520023B1
:10A990008B55281CFFF784FD0028FAD0F0B252E74F
:10A9A000D9B2039179E7104AC3E721234A461342FB
:10A9B0000AD0D3B270E74A46CBB2D20600D46BE7D6
:10A9C0005AB2002A00DA67E7FA203CE7FF203AE7AC
:10A9D000E6090010E8090010F4090010EC09001065
:10A9E0001C010010F0FF000000C0FFFFF8B5061EBC
:10A9F000082E2FD8470108377D1CFF35281C102151
:10AA0000FFF77EFD281CFFF74BFD041EFAD18023C3
:10AA10009B00F8181F21FFF773FD0F4B0122B24076
:10AA20001988D24392B2114019800C4B19880A4000
:10AA30001A800B4B7200D4520A4B00229A55C02345
:10AA40009B00FC18201CFFF72BFD0028FAD10120E9
:10AA500040B2F8BDFF20FBE7E6090010E80900104E
:10AA6000F4090010EC090010F0B5474680B4061E4A
:10AA7000082E29D845010835281CFFF711FD0F23A2
:10AA8000184001281CD1C02189006F18381CFFF71D
:10AA900007FD132816D16C1CFF34201C0221FFF780
:10AAA0002FFD201CFFF7FCFC0028FAD1381CFFF713
:10AAB000F7FC14280AD1012040B204BC9046F0BD36
:10AAC000FB20F9E7FD20F7E7FF20F5E7201C102128
:10AAD000FFF716FD201CFFF7E3FC80460028F9D1A4
:10AAE00080239B00E8181F21FFF70AFD0C4B012271
:10AAF000B2401988D24392B211401980094B19888B
:10AB00000A401A80084B72004146D152074B00227E
:10AB10009A55381CFFF7C4FC0028FAD1FC20CBE77B
:10AB2000E6090010E8090010F4090010EC09001013
:10AB3000F0B5474680B40D1C071C9046082869D81C
:10AB400046010836301CFFF7ABFC0F2318400128E4
:10AB500056D1C0239B00F418201CFFF7A1FC13283A
:10AB60005AD12B786A781B029B18A9781B02EA78C5
:10AB70005B18013A1B02D318033351D84346002B0C
:10AB80004CD0C0231B01F018291C0422FFF726FD1E
:10AB90004346190A80235B01F018FFF7B1FC4346D6
:10ABA000D9B288235B01751CF018FF35FFF7A8FCAC
:10ABB000281C0421FFF7A4FC281CFFF771FC0028C7
:10ABC000FAD1184B1B883B411F1CFB0714D4802370
:10ABD0009B00F618082509E0301CFFF761FC0542D0
:10ABE00010D1201CFFF75CFC002811D0201CFFF7BF
:10ABF00057FC1728F0D1012040B204BC9046F0BDAC
:10AC0000FB20F9E7301C0821FFF77AFCF320F3E77B
:10AC1000FC20F1E7FF20EFE7FD20EDE7F520EBE773
:10AC2000F420E9E7E6090010F8B544465F465646C9
:10AC30004D46F0B4804608286AD846010836301CD4
:10AC4000FFF72EFC0F23184001285FD1741CFF343E
:10AC5000201C0821FFF754FC201CFFF721FC0028D2
:10AC6000FAD1012341461A1C8A40D24392B292463D
:10AC7000284A5146914612880A4049460A80264A87
:10AC80004146934612880A41134212D1C0228023C2
:10AC900092009B00B5180827F61804E0301CFFF757
:10ACA000FFFB07420CD1281CFFF7FAFB0028F5D167
:10ACB000012040B23CBC90469946A246AB46F8BD46
:10ACC000201C1021FFF71CFC201CFFF7E9FB071ECE
:10ACD000FAD11F21301CFFF713FC5A461388514646
:10ACE0000B40494613800B88524613400B80434665
:10ACF0005A000A4B4146D752094B00225A54281C8D
:10AD0000FFF7CEFB0028FAD1F320D2E7FB20D0E7F3
:10AD1000FF20CEE7E8090010E6090010F409001052
:10AD2000EC090010F0B54D4644465F465646F0B477
:10AD300083B0051C0191141C082800D9AAE0430126
:10AD40000833181C9A46FFF7ABFB0F231840012865
:10AD500000D0A2E0002C00D1A2E0C02189000E1C8E
:10AD60005644301CFFF79CFB172802D01C2800D04B
:10AD700083E0624A0127138893462B411F423CD14E
:10AD8000F8235B01181C5044FFF78AFB800280B255
:10AD9000071CA04200D9271C01235949AB40BFB270
:10ADA00098468946281CFFF75BFC041C301CFFF703
:10ADB00077FB172801D01C2835D149460B8842461D
:10ADC00013422DD0A74223D8281C01993A1CFFF723
:10ADD00097FC80235B001C1C5444201C2021FFF79F
:10ADE0008FFB201CFFF75CFB0028FAD159460B882B
:10ADF000424613430B80381C0BE0802292009046A1
:10AE0000D0444046FFF74CFBC30639D403074AD46D
:10AE1000002003B03CBC90469946A246AB46F0BD2C
:10AE2000A742BFD8D0E780225200171C5744381CD5
:10AE30001021FFF765FB381CFFF732FB041EFAD127
:10AE400080239B00181C1F215044FFF759FB4146EB
:10AE5000CB4349460A889BB21A400A8059460A8861
:10AE600013400B80274B6A00D452274B00225A55BF
:10AE7000301CFFF715FB0028FAD107204042C8E735
:10AE800010214046FFF73CFB59460B88AF40BB43BF
:10AE90000B8075E701204042BBE705204042B8E740
:10AEA0000E204042B5E7802149000F1C5744381C52
:10AEB0001021FFF725FB381CFFF7F2FA041EFAD128
:10AEC0001F214046FFF71CFB0D4A0123AB401188B0
:10AED000DB439BB21940118059460A8813400B800E
:10AEE000084B6A00D452084B00225A55301CFFF719
:10AEF000D7FA0028FAD10D2040428AE7E80900106D
:10AF0000E6090010F4090010EC090010F0B55646EF
:10AF10004D465F464446F0B483B0051C009192460E
:10AF2000082800D9C7E043010833181C9946FFF7E9
:10AF3000B7FA0F240440012C00D0BFE05246002A8B
:10AF400000D1BEE0F0235B01181C4844FFF7A8FACB
:10AF5000C022F82392005B01161CAC409B465A4F5E
:10AF600001904E44A046CB44281CFFF7A1FB041CD3
:10AF7000301CFFF795FA172814D01C2841D1002C5B
:10AF800016D1281CFFF76CFB041C5846FFF788FA03
:10AF90008002844262D04C4A138842461342E3D076
:10AFA000002024E03B8842461A4227D0002CF7D0EC
:10AFB000019A93029BB21A1C534500D9524693B290
:10AFC000A34200D9221C96B2281C0099321CFFF71C
:10AFD000CFFB80235B001C1C4C44201C4021FFF74E
:10AFE0008FFA201CFFF75CFA0028FAD1301C03B05E
:10AFF0003CBC90469946A246AB46F0BD002CB3D06F
:10B00000D6E780225200171C4F44381C1021FFF74E
:10B0100077FA381CFFF744FA041EFAD180239B000C
:10B02000181C1F214844FFF76BFA4346DA43264BAE
:10B0300092B2198811401980244B19880A401A804D
:10B04000234B6A00D452234B00225A55301CFFF781
:10B0500027FA0028FAD107204042C8E78022520090
:10B06000171C4F44381C1021FFF74AFA381CFFF711
:10B0700017FA041EFAD180239B00181C1F21484494
:10B08000FFF73EFA4346DA430F4B92B2198811405C
:10B0900019800E4B19880A401A800D4B6A00D45251
:10B0A0000C4B00225A55301CFFF7FAF90028FAD150
:10B0B000072040429BE70120404298E7052040429C
:10B0C00095E70E20404292E7E6090010E8090010DB
:10B0D000F4090010EC090010F8B55F4644464D46EF
:10B0E0005646F0B498460AAB051C8B46141C1F88C4
:10B0F000082800D994E043010833181C9A46FFF74A
:10B10000CFF90F231840022802D0042800D090E085
:10B11000002C00D187E05046FFF7C2F95046FFF7F8
:10B12000BFF9C0229200161C5644301CFFF7B8F934
:10B13000422802D0222800D078E0C0231B01181C2E
:10B14000504441460422FFF749FA80225201101C64
:10B15000390A5044FFF7D4F988235B01181CF9B26F
:10B160005044FFF7CDF9F8225201101C5044FFF76C
:10B1700097F9800280B2071CA0423ED80123AB4061
:10B1800099462D4BBFB29846281CFFF769FA041C5C
:10B19000301CFFF785F9002831D0424613884A4613
:10B1A000134227D0A74232D8281C59463A1CFFF731
:10B1B000A7FA80235B001C1C5444201C2021FFF7AD
:10B1C0009FF9201CFFF76CF90028FAD18022920029
:10B1D000141C54441025082601E0064219D1201CF5
:10B1E000FFF75EF90542F8D0201C1021FFF788F91F
:10B1F000381C06E0BC42C7D3D6E7271CBEE70420B4
:10B2000040423CBC90469946A246AB46F8BD002061
:10B21000F7E7201C0821FFF773F90D204042F0E703
:10B2200001204042EDE70E204042EAE7072040427D
:10B23000E7E705204042E4E7E6090010F0B54D4697
:10B240005F4656464446F0B487B0051C0291019211
:10B250000393082800D9B7E043010833181C9B4624
:10B26000FFF71EF90F2300900340022B02D0042B9E
:10B2700000D0CFE0019A002A00D1CEE06B4B6A00EB
:10B2800091461A1C4A449A461388002B19D1C023B0
:10B290009B001E1C0123AB40654F5E449846281C52
:10B2A000FFF706FA041C301CFFF7FAF8002800D15B
:10B2B00087E03B884246134222D0002C02D1002076
:10B2C00045E00024009A07231340022B46D0042BAC
:10B2D00019D152464A441388002B00D177E08022CE
:10B2E0005200161C534F5E44019A1C1C934200D915
:10B2F000141CA4B2281C0299221CFFF739FA0EE094
:10B30000002CCCD0DEE7281C211CFFF769FA802234
:10B31000534652004B44161C464F1C805E44301C62
:10B320004021FFF7EDF8301CFFF7BAF80028FAD1FA
:10B3300052464A44138852461B1B9BB24A44138010
:10B34000002B02D0785D012318437855201C07B0EC
:10B350003CBC90469946A246AB46F0BD52464A4494
:10B360001388002BBBD104AC281C211C0822FFF73A
:10B37000FFF980235B001E1C5E44301C4021FFF758
:10B38000BFF8301CFFF78CF80028FAD1039A237815
:10B39000284F137063785370A3789370E378D37059
:10B3A000237962791B02D318109A1380A379E2796A
:10B3B0001B02D31852464A449BB2138080227A550E
:10B3C00092E704204042C2E701204042BFE704ACBC
:10B3D000281C211C0222FFF7CBF980235B001E1CD6
:10B3E0005E44301C4021FFF78BF8301CFFF758F803
:10B3F0000028FAD162782378023A1B02D318524609
:10B400004A449BB213800C4A934209D8094F8022C8
:10B410007A5569E70520404299E70E20404296E7B9
:10B42000281CFFF7E3FA054891E7C046F40900102D
:10B43000E6090010EC090010EA05000017FCFFFF08
:10B4400010B5141C08284CD807294CD82A4B890061
:10B450005B589F4611781F2945D8284B4001C018DA
:10B46000FFF74EF8012040B210BD244B4001C01838
:10B47000FFF716F81F23184020700120F3E7137818
:10B48000012B32D0002B2ED11D4B01228240101CEB
:10B490001A8882431A800120E5E7194B1B88034173
:10B4A000181C0123184010700120DCE7154B4001E7
:10B4B000C018FEF7F5FF800220800120D3E740018D
:10B4C000114BF5E711781F290DD882239B0040010D
:10B4D000C018FFF715F80120C5E7822340019B0043
:10B4E000C5E7FF20BFE7F620BDE7054A8340118886
:10B4F00001200B431380B6E7686A0100082C0000A6
:10B50000E6090010081F0000081E000070B5041CAA
:10B51000151C082800D98AE00C2900D985E0464B83
:10B5200089005B589F46201CFFF7C2F82880012045
:10B5300040B270BDC2239B004401E018FEF7B0FF8B
:10B5400028700120F4E740010830FEF7A9FF012828
:10B55000E9D03A4B6400E35A01202B80E8E7400130
:10B560000830FEF79DFF0F231840012861D1344BAE
:10B570001B5D2B70DCE74401201C0830FEF790FFB8
:10B580000F23984328700120D2E72E4B4401E01886
:10B59000FEF786FF28700120CAE72B4B4401E01814
:10B5A000FEF77EFF28700120C2E7440190235B0173
:10B5B0000834E018FEF774FF98235B01E018FEF7EB
:10B5C0006FFF28700120B3E7204B4401E018111CE5
:10B5D0000422FEF7C5FF0120AAE7440180235B0196
:10B5E0000834E018FEF75CFF88235B01061CE018B6
:10B5F000FEF756FF360280192880012098E74401A3
:10B600000834201CFEF74CFF0F231840012810D1EE
:10B61000BC239B01E018FEF743FF2880012087E749
:10B62000FFF71EF82880012082E7FE2080E7FF2038
:10B630007EE7FB207CE7C046886A0100F409001021
:10B64000EC0900100816000008150000080C0000A6
:10B650007047C0467047C0467047C0467047C046F6
:10B660000078C0B27047C046017070470020704734
:10B670007047C0467047C0467047C046002805D096
:10B68000002903D0034B59611861704702490348F0
:10B69000F8E7C046200100105DB6000059B6000072
:10B6A00010B5074B1A88940500D4FEE7002804D093
:10B6B000002902D0D961986110BD02490248F9E71A
:10B6C0002001001071B600006DB6000010B5074BE8
:10B6D0001A88940500D4FEE7002804D0002902D07F
:10B6E0005962186210BD02490248F9E720010010B2
:10B6F00079B6000075B6000038B50C1C052800D9D5
:10B700008CE0474B80001B589F46D82009784001A9
:10B71000FEF7F6FE6188C820090A4001FEF7F0FE38
:10B72000D0204001A178FEF7EBFE002040B238BDEA
:10B73000D8204001FEF7B4FE2070C8204001FEF77B
:10B74000AFFE051CD0204001FEF7AAFE2D024519D0
:10B7500065800020EAE7902000010622FEF73EFF08
:10B76000211C80200E3140000422FEF737FF211CEF
:10B77000A0200A31C0000422FEF730FFF0200001B3
:10B780000422A11DFEF72AFFA27C264B00201A707E
:10B79000E27C5A70227D9A70627DDA70A27D224B23
:10B7A0001A70C3E7902000010622FEF7D9FE211C83
:10B7B00080200E3140000422FEF7D2FE211CA02082
:10B7C0000A31C0000422FEF7CBFEF0200001042263
:10B7D000A11DFEF7C5FE134B00201A78A2745A78FB
:10B7E000E2749A782275DB7863750F4B1B78A3752A
:10B7F0009CE70C783A23221C9A430FD10020FEF7D5
:10B800004FFE0443E1B20020FEF77AFE00208DE7F0
:10B810000020FEF745FE2070002087E7FF2085E727
:10B82000BC6A0100080A0010040A0010F0B5041CEC
:10B8300087B09020000106220E1C04A9FEF790FE9E
:10B840008020400001A90422FEF78AFEA020C0004B
:10B8500002A90422FEF784FEF0200422000103A9BD
:10B86000FEF77EFE80210020FEF74AFE0020FEF754
:10B8700017FE9020000104A90622FEF7AFFE8020EB
:10B88000400001A90422FEF7A9FEA020C00002A9E1
:10B890000422FEF7A3FEF020000103A90422FEF714
:10B8A0009DFE002C3DD023785AB2102A00DD79E0AD
:10B8B00062789B18DBB25AB2102A00DD72E0A278DF
:10B8C0009B18DBB25AB2102A00DD6BE0E2789B18BD
:10B8D000DBB25AB2102A65DC22799B18DBB25AB26D
:10B8E000102A5FDC62799B18DBB25AB2102A59DC4D
:10B8F000A2799B18DBB25AB2102A53DCE2799B186A
:10B900005BB2102B4EDC271C08370125F823E8001A
:10B910005B012178C0180134FEF7F2FD0435BC420A
:10B92000F4D1002E3AD033785AB2102A3ADC727829
:10B930009B18DBB25AB2102A34DCB2789B18DBB207
:10B940005AB2102A2EDCF2789B18DBB25AB2102AB7
:10B9500028DC32799B18DBB25AB2102A22DC7279C9
:10B960009B18DBB25AB2102A1CDCB2799B18DBB2EE
:10B970005AB2102A16DCF2799B185BB2102B11DC3C
:10B98000341C01250836F023E8005B012178C0183B
:10B990000134FEF7B5FD0435B442F4D1002040B2C5
:10B9A00007B0F0BDFF20FAE770B50C1C86B00F2879
:10B9B00000D953E1C84B80001B589F460B78012BE0
:10B9C00000D14DE110220825182638200021637887
:10B9D000012B00D179E1E378012B00D170E1A3784C
:10B9E000012B00D1111CB8208001FEF789FDB82081
:10B9F0008001FEF755FD7F210140B8208001FEF750
:10BA00007FFDB8208001FEF74BFD802149420143B4
:10BA1000B8208001C9B2FEF773FD002040B206B025
:10BA200070BD0020FAE7B82080010D78FEF738FDE0
:10BA3000430600D412E13824A043C0B2012D00D146
:10BA400014E138210143B8208001FEF759FDB820E8
:10BA50008001FEF725FD7F210140B8208001FEF71F
:10BA60004FFDB8208001FEF71BFD802149420143B4
:10BA7000B820C9B28001FEF743FDB8208001FEF76F
:10BA80000FFD0440604260414042C0B2C6E7B820AA
:10BA90008001FEF705FD4306DB0F237038231840B5
:10BAA000202800D109E1382800D106E10023637085
:10BAB000021C103AD2B20023102A07D80123934067
:10BAC0001A1C864B13405A1E9341DBB20838C0B291
:10BAD000A370182806D801231A1C8240101C804A23
