:10000000002000102B010000FD000000FF00000098
:1000100000000000000000000000000000000000E0
:1000200000000000000000000000000001010000CE
:1000300000000000000000000301000005010000B6
:1000400079280000070100000701000007010000F7
:100050000701000007010000070100000701000080
:100060000701000007010000000000000000000080
:100070000000000000000000070100000701000070
:1000800007010000070100007506000007010000DD
:10009000070100001507000000000000000000003C
:1000A0000701000007010000070100000701000030
:1000B0000000000000000000000000000000000040
:1000C000805C0000000000103C000000805C00002C
:1000D0000000002000000000805C000000400020C4
:1000E000000000003C000010741000000000002020
:1000F000000000000040002000000000FEE7FEE7D6
:10010000FEE7FEE7FEE7FEE710B50023934203D2C9
:100110001C585C500433F9E710BD00238B4203D216
:1001200000221A500433F9E77047154BC0221968B2
:10013000120510B50A43134C1A60134B9C4207D2A8
:10014000206861680C34231F1A68FFF7DDFFF4E7AD
:100150000E4B9C4205D220686168FFF7DEFF083431
:10016000F6E70B4B0B4A1B681B69196811605A684C
:10017000094B1A6002F01AFB02F012FFFEE7C046BC
:1001800080800440C0000000E4000000FC0000008B
:10019000F81FFF1F700900106C090010FFFFFFFF20
:1001A000FFFFFFFFFFFFFFFFFFFFFFFFFFFFFFFF5F
:1001B000FFFFFFFFFFFFFFFFFFFFFFFFFFFFFFFF4F
:1001C000FFFFFFFFFFFFFFFFFFFFFFFFFFFFFFFF3F
:1001D000FFFFFFFFFFFFFFFFFFFFFFFFFFFFFFFF2F
:1001E000FFFFFFFFFFFFFFFFFFFFFFFFFFFFFFFF1F
:1001F000FFFFFFFFFFFFFFFFFFFFFFFFFFFFFFFF0F
:10020000FFFFFFFFFFFFFFFFFFFFFFFFFFFFFFFFFE
:10021000FFFFFFFFFFFFFFFFFFFFFFFFFFFFFFFFEE
:10022000FFFFFFFFFFFFFFFFFFFFFFFFFFFFFFFFDE
:10023000FFFFFFFFFFFFFFFFFFFFFFFFFFFFFFFFCE
:10024000FFFFFFFFFFFFFFFFFFFFFFFFFFFFFFFFBE
:10025000FFFFFFFFFFFFFFFFFFFFFFFFFFFFFFFFAE
:10026000FFFFFFFFFFFFFFFFFFFFFFFFFFFFFFFF9E
:10027000FFFFFFFFFFFFFFFFFFFFFFFFFFFFFFFF8E
:10028000FFFFFFFFFFFFFFFFFFFFFFFFFFFFFFFF7E
:10029000FFFFFFFFFFFFFFFFFFFFFFFFFFFFFFFF6E
:1002A000FFFFFFFFFFFFFFFFFFFFFFFFFFFFFFFF5E
:1002B000FFFFFFFFFFFFFFFFFFFFFFFFFFFFFFFF4E
:1002C000FFFFFFFFFFFFFFFFFFFFFFFFFFFFFFFF3E
:1002D000FFFFFFFFFFFFFFFFFFFFFFFFFFFFFFFF2E
:1002E000FFFFFFFFFFFFFFFFFFFFFFFFFFFFFFFF1E
:1002F000FFFFFFFFFFFFFFFFFFFFFFFFFFFFFFFF0E
:1003000000BA704740BA80B2704708B5FFF7F8FFEF
:1003100008BD40BA80B2704708B5FFF7F1FF08BDCD
:1003200000B540238BB0012801D180239B000693A8
:100330000A4B07913E20FA2105908900186808921F
:1003400002F0AAF9064B099001A905A89847019A5D
:1003500050425041C0B20BB000BDC046600F00100B
:10036000F11FFF1F00B540238BB0012801D180236E
:100370009B0006930A4B07913D20FA2105908900C6
:100380001868089202F088F9064B099001A905A89F
:100390009847019A50425041C0B20BB000BDC046D0
:1003A000600F0010F11FFF1F08B5014B984708BDF3
:1003B000F11FFF1F70B5C3B28AB0051C0E1C141CC0
:1003C000002B02D00120404234E08B07FAD1802379
:1003D0005B009A420BD080239B009A4207D0802377
:1003E000DB009A4203D080235B019A42EAD12B0BB7
:1003F00072B632220592220B069305A89B1801A91A
:100400000793FFF7D1FF019B002BDBD1332305932B
:10041000094BFA211868890006950796089402F09E
:100420003BF901A9099005A8FFF7BEFF0198002834
:10043000C8D162B60AB070BD600F001030B5051C9F
:100440008BB00C1C72B632230690079105A801A947
:100450000593FFF7A9FF019B002B02D0012040422A
:1004600012E034230593094BFA2118688900069598
:10047000079402F011F901A9089005A8FFF794FF6D
:1004800001980028EAD162B60BB030BD600F0010B1
:10049000F8B5061C0C1C012A03D106201721FFF712
:1004A000CDFF124F124D3A68A3183B60114B9C428E
:1004B00012D880239B001A1BFF21301902F07DFD0A
:1004C00080222868311C9200FFF774FFC023DB01F3
:1004D0002B6000233B6007E0221C2868311CFFF7DB
:1004E00069FF2A6814192C60F8BDC0463C00001052
:1004F00000000010FF010000A0230022DB059A701D
:100500007047A0230122DB059A70704708B5031CD1
:100510000A1C0248191C02F07DFB08BD00000440C3
:1005200013B56C460734211C0122024802F072FB0D
:10053000207816BD0000044008B5031C0A1C0248C0
:10054000191C02F021FB08BD0000044007B56946F4
:10055000073108700122024802F016FB07BDC046B1
:100560000000044010B51E4C0021201C06228223EE
:1005700002F0C0FA201C00210822812302F0BAFAFE
:10058000201C00210922812302F0B4FA201C002142
:100590000222102302F0AEFAA0228023D2059B0192
:1005A000D15804200143D150D05880210D4CC903AB
:1005B0000143D150201C02F0C5FB2368FF22934366
:1005C000072213432360201C012102F07FFB201C23
:1005D000054902F085FB636802221343636010BD86
:1005E00000400440000004408096980010B586B09A
:1005F000102202A8174902F0DCFCA023DB0501222F
:100600009A7000229A75FA2292000192019A511E64
:100610000191002AFAD101249C750F480F4900F07E
:10062000B9FF0F480F4900F0C9FF0F480F4900F00C
:10063000DFFF201C02A901F04BF9013000D1FEE7D9
:100640000B4B0193019B5A1E0192002BFAD106B06D
:1006500010BDC0468E5A0000F904000003050000DA
:10066000210500004D0500000D05000039050000C2
:1006700010270000104B0222196810B5114200D05B
:100680001A600E4C642120680130206002F004F8EA
:10069000002905D1081C02F0DBF8012002F0D8F88F
:1006A000FA212068890001F0F7FF002902D12160BA
:1006B00000F0E0FA10BDC0460040014040000010CC
:1006C00038B5124C201C02F099FB02F001FA051C0F
:1006D000201C02F0B3FB636908221343FA21636113
:1006E000281C890001F0D8FFE061636910221343E0
:1006F000636163680122134363608022044BC0215D
:10070000D20249005A501A6038BDC046004001402C
:1007100000E100E008B503480349044A02F029FC5F
:1007200008BDC04600800040580900104409001070
:1007300038B541780378090219438378051C1B04F6
:100740001943C37833481B06194302F0D5FB2879B7
:100750000538032807D805F07FF9020A04080023AA
:1007600006E0022304E008232B71032300E00123A9
:10077000AA79012A06D0022A02D10422134301E0F9
:100780000122AA716A79012A05D0002A08D0022A1A
:1007900004D1182200E00822134301E000226A710C
:1007A0001C4C1D48E36000210722812302F0A2F9BE
:1007B000194800211122812302F09CF9E8790328CD
:1007C00026D805F049F915020B1DE36C312293433D
:1007D000E3642369C0221343236119E011228023BB
:1007E0000D48002102F086F9A0230022DB055A748F
:1007F0002369C22293432361E36C3122934306E0D1
:100800002369C22293432361E36C31221343E364DF
:1008100038BDC046008000400040044038B501F0BB
:1008200087F9164C051C201C02F014FB281C4A30CA
:10083000FFF77EFFC123A3608023DD0023631049FF
:100840002B1C01220F4802F05BF92B1C0E490122E0
:100850000E4802F055F96368052213436360C52210
:100860000B4B920098580B4901408020C001014376
:100870009950802292031A6038BDC0460080004023
:1008800044040010580900104400001044090010EE
:1008900000E100E0FF00FFFF0A4A002313700A4A4C
:1008A00013600A4A13800A4A13800A4A13600A4AEC
:1008B00013800A4A13600A4A13600A4A13600A4AFC
:1008C00013707047480800104408001068080010B2
:1008D0006A0800106C08001060080010740800100E
:1008E000640800107008001062080010054A1368C0
:1008F000002B05D000231360034A1360034A1360E2
:100900007047C0467408001064080010700800109A
:10091000054A1368002B05D101211160034A1360B9
:10092000034A13607047C046740800106408001042
:1009300070080010F0B5294CA544041C0120FFF7F5
:10094000E1FC03AE30806846211C0E3004F01EF836
:10095000201C04F03DF80E236B44214F451C5D190B
:10096000391C281C04F012F8381C04F031F8471C1C
:10097000EF191C4D381C296804F008F8286804F0A9
:1009800027F801303F186968381C03F0FFFF6868DA
:1009900004F01EF8144B01301D68144B3F18186802
:1009A000BF1B0290FFF7B1FC4523311C0290BAB285
:1009B0000093E8B202AB00F0D1FB0D4B0122201CEA
:1009C0001A6004F005F8211C421C0A4802F0F1FAF2
:1009D000FFF79EFF084B9D44F0BDC04604FAFFFFA1
:1009E0009E5A000008000010040000104408001087
:1009F0006C08001048080010FC0500007FB5051CBD
:100A00000420FFF77FFC02AC2080281CFFF77AFC53
:100A10006B465881094B1E68094B1868094B0390B7
:100A20001D88FFF772FC00950390211CF0B2042290
:100A300003AB00F093FBFFF76BFF7FBD04000010DA
:100A4000440800106808001073B5051C0E1CFFF761
:100A500023FF281C02210C4A012300F0F5FAC4B23E
:100A6000AC420AD16D460735201C0A212A1C00F031
:100A7000F3FC2B78222BF5D101E001246442034BD7
:100A80001C60034B1E6073BD38C7000004000010DB
:100A90005C080010F0B5634B89B01B68624C002BFA
:100AA00020D0624B1A681D1C042A1BD9604B1B689E
:100AB000032B07D0052B05D0012B07D15D48FFF78D
:100AC00039FF03E05C4B1888FFF798FF5B4A00236F
:100AD0002B60136801331360042B03D9FFF7DCFE8E
:100AE00001232370564F574B39681D786E461736D1
:100AF0000391281C0A21321C00F0AEFC012802D010
:100B000001256D421CE03378222BF9D16E461A364E
:100B1000281C0921321C00F09FFC0128F0D13388E9
:100B2000002BEDD006AA0092281C0399464A07AB79
:100B300000F0AEFB30800798FFF7EEFB358807909A
:100B40006B461B8B07990393404B3E681B68994289
:100B500065D13088FFF7DDFB354F3B685A1E012A0F
:100B600002D83B4A0399118080B205284BD0062851
:100B700038D0032853D13088FFF7CBFB3080708802
:100B8000FFF7C7FB3B6882B2ADB27280032B11D076
:100B9000052B01D0012B42D1012A09D103233B604F
:100BA000254B301D291F1A80FFF772FCFFF79EFEB0
:100BB000708825E0204B80B21988043D01318842BD
:100BC00006D1301D291C1A80FFF762FCFFF78EFE4C
:100BD0007088FFF713FF1F4B9D4220D8FFF75CFE84
:100BE00002231BE0012B06D0022B18D104233B600B
:100BF000FFF77CFE13E005233B60FFF777FE002044
:100C0000FFF7FCFE0BE03088FFF783FB3080708835
:100C1000FFF77FFB7080FFF73FFE012323702078F2
:100C200009B0F0BD740800106208001064080010DC
:100C30006C080010480800106008001070080010D0
:100C40005C08001004000010EA05000044080010D1
:100C500068080010FF01000008B5044A044B10604A
:100C60000022081C1A70FFF765FE08BD440800103A
:100C700062080010044B1B68002B03D0034B1A685A
:100C800001321A607047C0467408001064080010F2
:100C900037B5164C051CA368984723699847236A03
:100CA000FF221204002B02D0636A002B0BD12A40D2
:100CB000100CE36998472804E369000E9847E8B2EE
:100CC000E369984708E02A4001A8120C02702A0A3A
:100CD0004270857003219847A36998476369051C92
:100CE0009847E3689847281C3EBDC0461400001092
:100CF000F0B51A4C85B0A268051C0E1C90472369FC
:100D0000984704210A1C2A43636A0192FF27FF22A5
:100D100012043F02002B0FD12A40E369100C3D4022
:100D20009847280AE2699047019BE269D8B2904748
:100D3000301CE36998470AE02A4003A8120C0270AD
:100D40003D40019A2D0A45708270C67098476369CC
:100D50009847E368984705B0F0BDC04614000010FE
:100D6000F7B51B4C171CA368051C0E1C984723697C
:100D70009847236AFF221204002B02D0636A002BDB
:100D800014D12A40100CE36998472804000EE36947
:100D90009847E8B2E3699847351CAB1B9BB2BB424E
:100DA00011D2A369984728700135F6E72A4001A8B7
:100DB000120C02702A0A4270857003219847301C79
:100DC000391C236A984763699847E3689847F7BDD9
:100DD00014000010F0B5204C85B0171CA268051C4B
:100DE0000E1C90472369984704232B430193636AA1
:100DF000FF221204002B17D12A40100CE269904701
:100E0000FF231B021D40280AE2699047019BE2690B
:100E1000D8B29047351CAB1B9BB2BB4215D2287889
:100E2000E36998470135F6E72A4003A8120C0270DF
:100E3000FF2212021540019A2D0A4570827003218B
:100E40009847301C391C636A984762699047E36889
:100E5000984705B0F0BDC04614000010F8B5470132
:100E6000802308379B01FE1884239B01FF18002470
:100E7000301CFFF70DFF0502381CFFF709FFADB26C
:100E80002D18ADB2002D09D0301CFFF701FF040270
:100E9000381CFFF7FDFEA4B22418A4B2AC42E7D17F
:100EA000201CF8BDF8B54701982308379B01FE18B0
:100EB0009C239B01FF180024301CFFF7E9FE05026C
:100EC000381CFFF7E5FEADB22D18ADB2002D09D0EC
:100ED000301CFFF7DDFE0402381CFFF7D9FEA4B278
:100EE0002418A4B2AC42E7D1201CF8BDF7B5141CFD
:100EF000019127D08000051C013590239B01ED0056
:100F0000EE180090301CFFF7C3FE94239B01ED18F0
:100F1000071C281CFFF7BCFE3F02C7190098BFB290
:100F200002303B02C0003F1918180199221CBFB2C1
:100F3000FFF750FF390A301CFFF7DAFEF9B2281C20
:100F4000FFF7D6FEF7BDF7B5141C019127D080003E
:100F5000051C0135A0239B01ED00EE180090301C0C
:100F6000FFF796FEA4239B01ED18071C281CFFF732
:100F70008FFE3F02C7190098BFB203303B02C0008A
:100F80003F1918180199221CBFB2FFF7E9FE390A70
:100F9000301CFFF7ADFEF9B2281CFFF7A9FEF7BD24
:100FA000F8B54401A0239B010834E618301C0D1C41
:100FB000FFF76EFEA4239B01E418071C201CFFF71B
:100FC00067FE3F024519ED19ADB2290A301CFFF743
:100FD0008FFEE9B2201CFFF78BFEF8BDF8B5041EAA
:100FE000082C25D8450108356F1CFF37381C102107
:100FF000FFF77EFE381CFFF74BFE061EFAD180235A
:101000009B00E8181F21FFF773FE0C4B01211A8883
:10101000A1408A431A800A4B6200D652094B1E55E2
:10102000C0239B00E818FFF733FE0028F8D101E049
:10103000FF2000E0012040B2F8BDC0467A08001051
:10104000840800107C080010F7B5051C0191171CDE
:101050001C1C08286CD80B1C013BDBB2032B69D885
:1010600001229A40131C0B22134263D006231C4218
:1010700062D1002C12D0012902D0022904D00DE047
:1010800021231C420AD157E0A30602D563B2002BEC
:1010900052DAE30602D563B2002B4DDA281CFFF7C3
:1010A0009DFF0F23211C99436E01019B08361943B4
:1010B000301CFFF71DFE002F08D1214B21491F884E
:1010C0007A1C92B28A4200D11F4A1A808023DB0028
:1010D000390AF018FFF70CFEA023F9B2DB00771CE9
:1010E000F018FF37FFF704FE381C0121FFF700FE60
:1010F000381CFFF7CDFD0028FAD1144B01221988C6
:101100001440AC400C431C80114B111C1A88A940A0
:101110008A431A800F4A6B0098520F4B5855C023D0
:101120009B00F018FFF7B4FD0028F8D0EDB204E002
:10113000FF2502E0FB2500E0FA2568B2FEBDC046AF
:1011400010000010F0FF000000C0FFFF7808001042
:101150007A080010840800107C080010F0B585B0F3
:101160001F1C0AAB1B88051C0391161C0193082841
:101170007AD844010834201CFFF78AFD0F23184059
:10118000022801D0042872D1002E72D03A68002AB9
:1011900071D0019B002B70D0C0229200A218101CAD
:1011A0000292FFF775FD422801D0222867D1C023A3
:1011B0001B01E018391C0422FFF70CFE019A802362
:1011C0005B01110AE018FFF793FD019A88235B0188
:1011D000E018D1B2FFF78CFDF8225201A018FFF7FA
:1011E00057FD800280B2031CB04200D9331C9EB26E
:1011F0000123AB400193281CFFF730FE071C029827
:10120000FFF746FD00283CD0204B019A1B88134273
:1012100002D0BE4202D936E0BE42ECD8281C651C82
:101220000399321CFF35FFF761FE281C2021FFF7D0
:101230005FFD281CFFF72CFD0028FAD180239B00BE
:10124000E518281CFFF724FD1021084204D0281CB3
:10125000FFF74EFD301C17E008210842EED0281C95
:10126000FFF746FD0D2000E0012040420CE0052084
:10127000FBE70E20F9E70C20F7E70B20F5E7072046
:10128000F3E70420F1E7002005B0F0BD7808001076
:10129000F0B587B0041C0391171C0293082800D9ED
:1012A000C3E043010833181C0193FFF7F1FC0F233F
:1012B000061C0340022B02D0042B00D0B7E0002F05
:1012C00000D1B6E05F4B6200D35A002B1AD1012344
:1012D000A3400093201CFFF7E5FD0199C022920076
:1012E000051C8818FFF7D4FC002800D1A3E0564B5A
:1012F00000981B88034202D0002D04D19EE0002DEF
:10130000E8D000E00025514B00221A556100072368
:10131000334000914B4E022B02D0042B31D065E0BC
:10132000009AB35A002B29D1201C04A90822FFF7E8
:101330000AFE019D40210135FF35281CFFF7D8FC2E
:10134000281CFFF7A5FC0028FAD168460299037C07
:101350000B70437C4B70837C8B70C37CCB70037DA4
:10136000427D1B02D3180C9A1380827DC17D12022C
:1013700063008A18F252354B80221A556300F35AE3
:1013800029E00098335A002B23D1201C04A9022203
:10139000FFF7D9FD019D40210135FF35281CFFF7DE
:1013A000A7FC281CFFF774FC0028FAD169460B7CC7
:1013B0004A7C1B02D318009A9BB2B352244A934230
:1013C00004D9201CFFF70AFE224838E01F4B802278
:1013D0001A550098335A1D1CBB4200D93D1CADB2B2
:1013E000201C03992A1CFFF7AEFD05E0291C201CD8
:1013F000FFF7D6FD00997552019F40210137FF3755
:10140000381CFFF775FC381CFFF742FC0028FAD1A6
:101410006200B35A5B1B9BB2B352002B0ED00B4B36
:1014200001211A5D0A431A5508E0012504E005254B
:1014300002E00E2500E00425684200E0281C07B009
:10144000F0BDC04684080010780800107C08001029
:10145000EA05000017FCFFFF70B5041C151C0828E6
:101460007AD80C297AD8081C04F0F6FA070F12195A
:10147000262E783F515F55596A006401201C0830C0
:10148000FFF706FC0F23984307E06401354B01E0AA
:10149000354B6401E018FFF7FBFB28704EE0660156
:1014A00090235B010836F018FFF7F2FB98235B01ED
:1014B000F018FFF7EDFB28702C4B6401E018291C95
:1014C0000422FFF74DFC39E0640180235B010834FE
:1014D000E018FFF7DDFB88235B01061CE018FFF72F
:1014E000D7FB360286192E8028E064010834201CC0
:1014F000FFF7CEFB0F23061C1E40012E01D0FB2060
:101500002DE0BC239B01E018FFF7C2FB10E0201C7C
:10151000FFF7A4FC0CE0C22364019B00BAE7600162
:101520000830FFF7B5FB012804D1201CFFF7BAFCF7
:10153000288003E00E4B6400E35A2B8001200EE06C
:1015400060010830FFF7A4FB0F2318400128D6D113
:10155000084B1B5D2B7002E0FF2000E0FE2040B234
:1015600070BDC0460816000008150000080C0000F9
:10157000840800107C08001070477047704770475F
:101580000078C0B270470170704700207047704704
:1015900070477047064B002801D0002904D1054A46
:1015A0001A61054A5A6101E0186159617047C046E5
:1015B000140000107D1500007F15000030B5094BA8
:1015C0001C881A1CA50500D4FEE7002801D00029BC
:1015D00004D1054B9361054BD36101E09861D9615A
:1015E00030BDC046140000108B1500008F150000A0
:1015F00030B5094B1C881A1CA50500D4FEE700284D
:1016000001D0002904D1054B1362054B536201E060
:101610001862596230BDC0461400001091150000D8
:1016200093150000F0B5902787B03F018026381C45
:1016300004A976000622A025FFF792FBED00301CDE
:1016400001A90422F024FFF78BFB2401281C02A926
:101650000422FFF785FB0422201C03A9FFF780FB6F
:1016600080210020FFF744FB0020FFF711FB381C0E
:1016700004A90622FFF7AEFB301C01A90422FFF7E4
:10168000A9FB281C02A90422FFF7A4FB201C03A924
:101690000422FFF79FFB07B0F0BD70B5061C0D1CC0
:1016A000FFF7C0FF002E04D100231A1C9D421AD15F
:1016B0002EE000231A1CF15C01338A18D2B2082BE9
:1016C000F9D152B20124102A01DDFF2021E0F823D4
:1016D000E0005B013178C0180434FFF709FB0136E4
:1016E000212CF4D1E0E7E95C01338A18D2B2082B4F
:1016F000F9D152B2102AE8DC0124F023E0005B01AA
:101700002978C0180434FFF7F3FA0135212CF4D1FD
:10171000002040B270BD10B5F021041C0140A8208B
:101720004001FFF7E5FAB820210A4001FFF7E0FA8F
:1017300010BDA82010B54001FFF7AAFA041CB8207C
:101740004001FFF7A5FA0302F0209BB204401819EC
:1017500080B210BD10B5C1B2041CB0204001FFF72B
:10176000C7FAC020210A4001FFF7C2FA10BDB0201D
:1017700010B54001FFF78CFA041CC0204001FFF7B0
:1017800087FA0002001980B210BDB82008B58001A8
:10179000FFF77EFA0123184008BDB82008B5800184
:1017A000FFF776FA30231840431E984140B208BD37
:1017B00010B5B824A401201CFFF76AFA7F23011C8E
:1017C0001940201CFFF794FA201CFFF761FA8021D2
:1017D00049420143C9B2201CFFF78AFA10BD08B57F
:1017E000017801394B42594143788901012B01D1DC
:1017F00038230CE0C2788378012A05D1012B01D16E
:10180000182304E0082302E0012B01D1102319431F
:10181000B8208001FFF76CFAFFF7CAFF08BD00008F
:1018200010B5041CB8208001FFF732FA01238209A9
:101830001A40227038221040202802D0904200D056
:101840000023021C103AD2B26370102A06D801237A
:10185000191C91400A1C09490A4200D1002308388A
:10186000C0B2A370182806D801231A1C8240101C8D
:10187000034A104200D10023E37010BD01010100B2
:101880000100010110B5041CB8208001FFF700FA27
:1018900043061AD538218843C0B2012C00D130212B
:1018A0000143B8208001FFF723FAFFF781FFB8203A
:1018B0008001FFF7EDF93023012C00D038231840C8
:1018C000434258414042C0B200E0FF2040B210BD48
:1018D00038B5031C0C1CFF200F2B65D8181C04F016
:1018E000BBF8080B1612191D212D3A484B4F6253B5
:1018F000575EFFF797FE56E0002C00D00831201C01
:10190000FFF7CBFE50E00888FFF705FF4BE0FFF73D
:1019100010FF05E00888FFF71DFF44E0FFF727FFF1
:10192000208040E009889820090A4001FFF7E0F98B
:10193000A02021784001FFF7DBF934E09820400136
:10194000FFF7A6F9051CA0204001FFF7A1F92D0221
:101950004519258027E0154B00209A780A70DA781F
:101960004A701A798A705A79CA709B7948710B71DA
:101970001AE0FFF71DFF16E0081CFFF730FF12E02A
:10198000081CFFF74DFF0EE00878FFF77BFF0BE028
:10199000FFF703FFC0B2FF2804D1FF2004E0FFF7E8
:1019A000F4FEF7E72070002040B238BD14000010AC
:1019B00010B5041C9020211C00010622FFF70AFA32
:1019C000211C80200E3140000422FFF703FA211C65
:1019D000A0200A31C0000422FFF7FCF9F020A11D6D
:1019E00000010422FFF7F6F9A27C064B1A70E27C94
:1019F0005A70227D9A70627DDA70A27D024B1A7055
:101A000010BDC046950800109408001010B5041CC5
:101A10009020211C00010622FFF7A2F9211C802042
:101A20000E3140000422FFF79BF9211CA0200A314F
:101A3000C0000422FFF794F9F020A11D0001042248
:101A4000FFF78EF9064B1A78A2745A78E2749A78E6
:101A50002275DB786375034B1B78A37510BDC046F8
:101A6000950800109408001038B53A23041C051C92
:101A70009C4308D1201CFFF70BF90543E9B2201C59
:101A8000FFF736F900E0FF2460B238BD08B500204A
:101A9000FFF7FEF808BD10B5041C0178D8204001FE
:101AA000FFF726F96188C820090A4001FFF720F9ED
:101AB000D020A1784001FFF71BF910BD38B5041CF8
:101AC000D8204001FFF7E4F82070C8204001FFF75C
:101AD000DFF8051CD0204001FFF7DAF82D02451988
:101AE000658038BD10B5FF230C1C05281DD803F0F8
:101AF000B3FF03070B101418081CFFF759FF13E07E
:101B0000081CFFF783FF0FE00878FFF7ADFF031C09
:101B10000BE0FFF7BBFF207006E0081CFFF7BBFFE0
:101B200002E0081CFFF7CAFF002358B210BD0000F6
:101B30000048704799080010F8B56D4C5E230025E9
:101B40005B42601D6B4919226570A570E5702571B7
:101B5000237001F02EFA631C0122DA77231CC021C6
:101B60000833D977231CA8222833201C1A70293067
:101B70000B230370201C2A3064270770201C2B3095
:101B80000170201C2C300270201C2D300370201C92
:101B90002E3001270770271CFF202F373870271C95
:101BA00030373870271C31373870201C32300570C0
:101BB000201C012733300770201C34300570201C96
:101BC00035300170211C36310A70221C37321370F7
:101BD000231C652638331E707822231C5242393369
:101BE000211C1A703A3113230B70211C3B310A70EF
:101BF000221C3C321370231C3D331D70231C3E33CA
:101C00001D701822231C3F3352421A70231C40338C
:101C100003221A70231C41331D70231C42331D7094
:101C2000231C4333221C1D7044322D231370221CAD
:101C30004532E577A6771370221C46321370221CBA
:101C400047321370231C48331D70231C49331D7009
:101C5000231C4A331D703E22231C4B3352421A7000
:101C6000231C4C331F70231C4D331D70231C08266E
:101C70004E331E70231C4F331D70231C50331F70B6
:101C80001C4F231C51331A37201C1D70391C0A228B
:101C9000523001F08EF9201C391C0A225C3001F010
:101CA00088F9231C66331D70231C67331D70231CA9
:101CB00068331E70231C69331E70231C6A331E7028
:101CC000201C231C6B33291C32226C301E7001F047
:101CD00074F9231C9E3301221A70221C2B239F327D
:101CE0001370221CA032A13413702370F8BDC046BB
:101CF00099080010AE5A000010B50D4CA222012028
:101D0000211CFEF70DFB637822781B02134306D1DA
:101D1000FFF712FF0120211CA222FEF723FB6523FF
:101D2000A3770023E37701340123E37710BDC04696
:101D30009908001008B501200249A222FEF712FB03
:101D400008BDC0469908001008B501F032F908BD79
:101D500010B5194C86B0211C21310622684601F0CD
:101D600028F9211C684627310422063001F021F9A8
:101D7000211C68462B3104220E3001F01AF9211C77
:101D800068462F3104220A3001F013F9211C6846FD
:101D9000683112300422663401F00BF92378002BED
:101DA00001D0022300E001236A46694600209375B2
:101DB000FFF798FE06B010BD99080010031C3038DC
:101DC000C0B2092807D9181C3738C0B20F2802D969
:101DD000181C5738C0B2704738B50D1CFFF7EEFF1E
:101DE000041C281CFFF7EAFF24010019C0B238BD0B
:101DF000F0B5204E85B0B31CDB7F002B07D1F31C60
:101E0000DB7F082B03D1331DDB7FDC2B30D01A485E
:101E100001F038FE01AD1948291C012201F05AF8E1
:101E20002B78532BF6D1164801F02CFE2C1C04AF56
:101E3000211C0122114801F04DF82178114801348C
:101E400001F020FEBC42F3D100246300E85CEB18F3
:101E50005978FFF7C1FF3319213301341870072C6B
:101E6000F3D1FFF769FEFFF765FF074801F00AFEAF
:101E700005B0F0BD99080010415B000000800040F3
:101E80004E5B0000505B0000535B0000BFF34F8FC0
:101E9000024A034BDA60BFF34F8FFEE70400FA05F6
:101EA00000ED00E010B50B1C5C1AA4B2944204D201
:101EB0001C7844401C700133F6E710BD10B50B1CB4
:101EC0005C1AA4B2944204D21C7844401C700133C2
:101ED000F6E710BDF0B5DFB0141C061C0D1CFFF7B3
:101EE00027FE04AF03900B213A1C301CFFF7B4FA15
:101EF000A37961793A881B020B439A4254D16B460D
:101F000012330093062205AB301C06A9FFF7C0F977
:101F100063785AB2002A05DA7F2018403A8806A969
:101F2000FFF7CCFF039F06A82137391C062201F0DA
:101F300023FE002838D158235B4263715523237157
:101F4000A071391C062208A801F033F86846A222C5
:101F50002630039901F02DF863785AB2002A05DA89
:101F60007F20184008A9A822FFF79CFF211C072208
:101F700032A801F01EF86846CF3008A9A82201F067
:101F800018F8A378002B04D1281CFF21042201F0AB
:101F900014F86B792A791B0213430093301C32A981
:101FA000AF222B1CFFF7DAF85FB0F0BDF0B5464C5E
:101FB000071CA5440E1C141CFFF7BAFD0B2105AA33
:101FC000051C381CFFF748FAA37968466179828AB4
:101FD0001B020B439A4273D16B4616330093B9220E
:101FE00006AB381C5DA9FFF753F963785AB2002A93
:101FF00006DA7F2018406B469A8A5DA9FFF75EFFDC
:10200000281C2130039003995DA8062201F0B4FD3D
:10201000002855D168467C30291CFF30523102F02F
:1020200093FC029000284BD169468C31281CFF316B
:10203000A222FFF789FE6523AB77029B0122EB7793
:102040006B1CDA77FFF776FE582302985B426371C8
:1020500055232371A0710399062207A800F0A9FF58
:102060006846A2222230291C00F0A3FF63785AB2EE
:10207000002A05DA7F20184007A9A822FFF712FFDF
:10208000211C072231A800F094FF6846CB3007A935
:10209000A82200F08EFFA378002B04D1301CFF2172
:1020A000042200F08AFF737932791B0213430093F4
:1020B00031A9AF22331C381CFFF750F8FFF7E6FEBA
:1020C0008D239B009D44F0BDCCFDFFFFF0B59DB07E
:1020D000051CFFF72DFD071C281C0AACFEF77EFF30
:1020E00000230221264A281CFEF7AEFF211C4522B0
:1020F0000020FEF715F900230626A371391CD22310
:10210000E370321C5523213104A82371667100F05D
:1021100050FF63785AB2002A05DA7F20184004A9DC
:10212000321CFFF7BFFE211C072206A800F041FF6A
:1021300068461F3004A9062200F03BFFA378002B5D
:1021400005D168462F30FF21042200F036FF694692
:102150006C4603A82F31042200F02BFF0A34694695
:10216000201C3331022200F024FF2388281C009316
:1021700006A90D2203ABFEF7F1FF1DB0F0BDC0466E
:1021800096190000F0B5BBB06C461D340A21221C24
:10219000071CFFF761F92378002B00D16BE2222B9B
:1021A00000D06DE26C461E34381C0921221CFFF75A
:1021B00053F92388062B00D862E20EAE0BAB0AACB3
:1021C0000093381C231C311C0722FFF761F8337879
:1021D000A52B00D054E23379AA2B00D050E2F3783B
:1021E0000F229343C02B00D10AE10AD8A02B12D0B2
:1021F000B02B00D044E2381C211C321CFFF76AFED1
:102200003EE2E02B00D190E1F02B00D1F4E1D02BA5
:1022100000D035E2FAE0FFF78BFC09AD0B212A1C58
:10222000041C381CFFF718F971682A880B021B0C74
:102230009A4200D024E2F078A138042800D91FE2A5
:1022400003F00AFC9E03196F8C000CAB009307226D
:1022500010AB381C26A9FFF71BF873785AB2002A76
:1022600005DA7F2018402A8826A9FFF727FEA11C3F
:1022700026A803226DE00CAB00930C2210AB381C97
:1022800026A9FFF705F873785AB2002A05DA7F20ED
:1022900018402A8826A9FFF711FEA31CDD7F26AB74
:1022A0001A78AA4200D9EBE1E21CD07F5A78824228
:1022B00000D9E5E1221DD27F03929A7803998A42E0
:1022C00000D9DDE1621DD27F0492D978914200D914
:1022D000D6E1A21DD27F94461A79624500D9CFE19A
:1022E000E21DD27F5979914200D9C9E19979A94279
:1022F00000D2C5E1DD79854200D2C1E1187A0399A7
:10230000884200D2BCE15B7A04998B4200D2B7E1EB
:1023100026AB997A614500D2B2E1DB7A93422FD2A3
:10232000AEE10CAB0093212210AB381C26A9FEF7BE
:10233000AFFF73785AB2002A05DA7F2018402A8846
:1023400026A9FFF7BBFD26A802F042FB611D021C77
:1023500026A801F011FC002812D091E10CAB0093EB
:10236000342210AB381C26A9FEF792FF73785AB2BC
:10237000002A05DA7F2018402A8826A9FFF79EFD4B
:102380000023B371A11C552303220C2514A833711B
:10239000757100F00EFE211C68461E310322533079
:1023A00000F007FE211C684606222131563000F05D
:1023B00000FE73785AB2002A05DA7F20184014A96B
:1023C0002A1CFFF76FFD311C072226A800F0F1FD43
:1023D00068469F3014A90C2200F0EBFDB3780AACDC
:1023E000002B04D1201CFF21042200F0E6FDA3886D
:1023F000381C009326A91322231CFEF7AFFE3FE1F1
:10240000381C211C321CFFF7D1FD39E1FFF790FB8E
:1024100008AD2A1C041C0B21381CFFF71DF872683C
:1024200013022A881B0C9A4200D029E16B46223302
:102430000093381C09AB26A94F22FEF729FFF37839
:10244000D12B00D01CE173785AB2002A05DA7F2024
:1024500018402A8826A9FFF731FD231C213326A81E
:10246000191C0622059301F087FB002800D007E124
:10247000211C684652319F3002F066FA0490002811
:1024800000D0FDE0311C072214A800F092FD0AAC38
:102490006846211C0622573000F08BFD68466946CD
:1024A000AF3104225D3000F084FD68466946B331E7
:1024B0000222613000F07DFD68466946B531322266
:1024C000633000F076FD14A945220498FDF74AFF19
:1024D000049906255523B1712A1C0CA8059933715E
:1024E000757100F066FD73785AB2002A05DA7F2014
:1024F00018400CA92A1CFFF7D5FC311C072210A894
:1025000000F057FD684647300CA9062200F051FD47
:10251000B378002B04D1201CFF21042200F04DFDD4
:10252000A388381C009310A960E0FFF701FB6A46FE
:102530000B212232051C381CFEF78EFF726869469B
:1025400013024A8C1B0C9A4200D099E009AB00930D
:1025500017220CAB381C26A9FEF79AFE73785AB2E4
:10256000002A06DA7F2018406B465A8C26A9FFF70E
:10257000A5FC2A1C21320492111C26A8062201F077
:10258000FBFA00287CD1291C684652319F3002F0AA
:10259000DBF9002874D106257571B07155232A1C0A
:1025A00010A80499337100F004FD73785AB2002A20
:1025B00005DA7F20184010A92A1CFFF773FC311C94
:1025C000072214A800F0F5FC6846573010A906222F
:1025D00000F0EFFCB378002B04D1201CFF21042273
:1025E00000F0EBFCA388381C009314A90D22231CD7
:1025F000FEF7B4FDFFF74AFCFFF79AFA6A460B2193
:102600002232051C381CFEF727FF71680B02694651
:102610004A8C1B0C9A4233D109AB009317220CABA6
:10262000381C26A9FEF734FE73785AB2002A06DA5F
:102630007F2018406B465A8C26A9FFF73FFC2A1CC6
:1026400021320492111C26A8062201F095FA0028D6
:1026500016D1291C684652319F3002F075F9059059
:1026600000280DD1FFF768FAFFF764FB059B0625EC
:102670007571B37192E7381C0221024AFEF7E4FC3F
:102680003BB0F0BD9619000010B5024B1B6898478F
:1026900010BDC0467009001010B5024B1B6898476A
:1026A00010BD00006C09001072B603480068854632
:1026B0000248006887467047006000000460000020
:1026C00010B592B0452200206946FDF729FE6A4602
:1026D0001378A52B01D0002422E0507B937B0006C9
:1026E0001B046A461843137C69461843D37B133195
:1026F0001B021843FEF7B0FAFEF7CCF90028FBD016
:10270000041E022C0CD10120FFF7E0FC0021452221
:10271000684600F052FC002069464522FDF722FE83
:10272000201C12B010BD000010B500F067F900F0D9
:10273000E9F80020012100F079F80120002100F0E3
:1027400075F8FFF7D9FAFFF753FBFEF767F8FDF7C7
:1027500009FFFDF74BFFFDF7B3FFFFF7F9FA022082
:102760001049FEF771F9FFF7ABFF041C00F0C2F847
:10277000002808D0012C06D0C023DB011B680133E0
:1027800001D0FFF791FF084C2378002B03D10120E3
:10279000FFF7F8FCF7E7FEF77DF90028F3D00023F8
:1027A0002370F0E7740900103B09001008B500F031
:1027B000D7F808BD07B569460731087001220248FD
:1027C00000F069FB07BDC0460080004070B50E1CDC
:1027D000151C0024AC4204D2305DFFF7EBFF01343E
:1027E000F8E7281C70BD000010B50E4C0021201C1D
:1027F0001222012300F07EF9201C0B4C132201232E
:10280000002100F077F9201C00F024FBE121201CBE
:10281000490200F071FB0323E3608123A36080235E
:10282000236310BD004004400080004001280AD806
:10283000054B1A5C054B52011B5C0120D218A023EA
:102840004140DB05D15470475A5B0000605B0000DB
:1028500001280CD8064B01211A5C064B1B5C9940E1
:102860008C231B01D218A0239200DB05D1507047A6
:102870005A5B0000605B0000034A01235362034A75
:102880001370034AD367704700C004403C0900102E
:1028900004E100E008B5124800211522102300F0E1
:1028A00029F9A0228023D2059B01D0580D4901406F
:1028B000D1500D4B80211A1DD06F09030143D16700
:1028C000FC331522DA67094A0123536211689943E0
:1028D00011605361C021064A99405350136008BDEE
:1028E00000400440FFFFDFFF0080044000C00440C0
:1028F00000E100E0024B1878431E9841C0B27047D7
:102900003700005070B5A024E405FFF76DFF201CD0
:1029100000F0E8F880239B01E158802212040D4D5D
:1029200000260A43E250E675625980231B021343D6
:102930006351231C2F331E70FFF7ACFF331C064876
:102940000121172200F0D6F86259044B134063515D
:1029500070BDC0460420000000400440FFFF7FFF20
:1029600037B5002000F05CF8202000F035FA002395
:102970000193019BFF2B02DC019B0133F8E701204F
:1029800000F044F8184C802000F018FA2323A360CC
:10299000802000F021FAE26801231A42FBD0124A9B
:1029A00003209367114B02211A69002482430A43D2
:1029B0001A6100F035F80E4B8022D96F52020A439B
:1029C000DA671D1C0B4AA300995CD3185A780A4891
:1029D0005B88013400F08EF8142CF3D1EA6F802369
:1029E000DB041343EB6737BD0080044000C00340A5
:1029F00004800440645B00000040044008B500F01F
:102A000067F8014B186008BD600F0010034B0022EF
:102A100018645A6401225A647047C046008004401A
:102A2000034B002218675A6701225A677047C04655
:102A30000080044008B5074B1F215B6ADA050B4094
:102A4000591C120F044B92004900D058FFF724FE86
:102A500008BDC04600800440B45B0000064B1A6C01
:102A60000323134004D0012B04D1044B186802E067
:102A7000034800E000207047008004405C5B0000D9
:102A8000001BB700044B10B59C68FFF7E7FF1F233E
:102A90001C400134604310BD0080044008B50A4B5F
:102AA0001A6F03231340022B06D0032B07D0012BF0
:102AB00008D1FFF7D3FF06E0FFF7BCFF03E0FFF705
:102AC000E1FF00E0014808BD00800440001BB700A2
:102AD00008B5FFF7E3FF024B996FFFF7DDFD08BD77
:102AE00000800440024B4021DA6F0A43DA677047E6
:102AF00004800440002900D018329200135070471F
:102B000043600023016082600361C360012070475D
:102B100038B5041C05686368C0682269821A002001
:102B20009A420BDAE068A268013B03405343E8187D
:102B300000F03FFAE36801200133E36038BD38B5A7
:102B4000041C081CE16822692568002391420CD00E
:102B500061682369A268013919405143691800F07E
:102B600028FA2369013323610123181C38BD0000B2
:102B700010B5090604680B0C024921401943016095
:102B8000026110BDFF00FFFF70B5C4686407E40F69
:102B900001D08368F9E70323036205680F232B4004
:102BA000072B01D8231C24E0231C934213D2C568B1
:102BB000AE0705D5934203D20D88023385600231FA
:102BC0008569EE0701D5002023E0C5686E07ECD5C6
:102BD00085680234F9E79442E9D319E0944217D2A8
:102BE000C568AE0708D48569EE07ECD4C5686E07E2
:102BF00009D49342F4D3F1E79342F4D20D78013330
:102C000085600131EFE79442F3D285680134EDE746
:102C1000181C70BDF7B5C5686D07ED0F01D083684E
:102C2000F9E70323036204680F232340072B01D82D
:102C30002B1C36E02B1C95421ED2C468A60704D577
:102C4000954202D2204C023584608469E60701D4A3
:102C50001C1C07E0002035E094420AD28668CF1998
:102C60003E530234CE1A36190196C6685F42760783
:102C7000F2D40199231CDEE79342DED321E0934294
:102C80001FD2C468A6070FD48469E607E2D41C1CCF
:102C9000CE1A36190196C6685F4276070AD40199A2
:102CA000231C9542EDD3EAE79542EDD2FF248460E0
:102CB0000135E9E79442F2D28668CF193E550134D6
:102CC000E6E7181CFEBDC046FFFF00004268042373
:102CD0009A43002901D0131C00E01343436070475E
:102CE000F7B5061C0191FFF7D9FE134B9E4201D1A7
:102CF000124B00E0124B1968FFF7CEFC071C0120B5
:102D0000022540420024019B98420ED9631C191CE5
:102D10006943381C0093FFF7BFFC019B9842F2D92E
:102D2000009CFF2CEFD90235ECE7301C2A1C211C3B
:102D3000FFF71EFFF7BDC04600000440948004402A
:102D40009C800440174970B51224884200D10B249E
:102D5000154B0122161CDD6FA640341C2C43DC678A
:102D6000124B884203D112490A60002202E0114945
:102D70000A600222596801249440A14359605968AD
:102D8000221C0A435A604368042293434360036849
:102D9000FF2293430722134303600749FFF7A0FF75
:102DA00070BDC04600000440048004400080044020
:102DB000948004409C800440A0860100054A8E2334
:102DC0009B00D1580843ED210902C0B20843D050FE
:102DD0007047C04600800440074A8E239B0010B510
:102DE000D458FF210C4001408C43ED20211C0002EF
:102DF0000143D15010BDC046008004400B4B9842A7
:102E000008D00B4B984207D00A4BC018431E98417C
:102E1000083002E00A2000E00720074B0121DA6FAA
:102E20008140081C1043D8677047C04600800140AD
:102E300000C000400000FFBF04800440002243683F
:102E4000426001228260022242608268002AFCD134
:102E500043607047084B10B51A1DD46F802149019B
:102E60002143D167983301221A600723836003232B
:102E7000C3601023836210BD0080044030B500237E
:102E8000934206DA4469A50603D5CC5C013304609D
:102E9000F6E7181C30BDF8B5071C0E1C141C0025E5
:102EA000002C08DD311C221C381CFFF7E7FF241A18
:102EB0002D183618F4E7281CF8BD30B500239342CE
:102EC00006DA4469E50703D50468CC540133F6E714
:102ED000181C30BDF8B5071C0E1C151C0024AC4294
:102EE00008DA311C2A1C381CFFF7E7FF2D1A2418BA
:102EF0003618F4E7201CF8BD70B5041C0E1CFFF753
:102F0000CDFD3101051CFFF7C7FBE2688023011CE2
:102F10001A43E2600E1C000AFF221640024026609F
:102F20006260E268281C9A43E260FFF7B5FB70BD5F
:102F300037B5041C0D1C6369DA0707D5694622689A
:102F40000731281C0A70FFF7E3FDF4E737BD73B5BE
:102F5000051C0E1C6B699A060AD56C460734301C9A
:102F6000211CFFF7ECFD002802D023782B60F1E74D
:102F700073BDF8B543680226041C0F1C151C3342B0
:102F800009D0111CFFF7E3FFEA682B699A4202D1CE
:102F90006368B3436360391C201CFFF7C9FFF8BDA9
:102FA00008B50020011C021C00F094FDFFF7BCFBDB
:102FB00008BD08B502F025FD08BD08B502F037FDD3
:102FC00008BD41180B78342B01DC00201CE0352BA8
:102FD00006D10B1C01331A78302AFBD0002AF4D01A
:102FE0000B1C013B1A78392A02D130221A70F8E7FB
:102FF00001321A700378302BE7D00B1A03D40B7808
:1030000001398B70F9E70120704770B5051C0C1C65
:103010008E1FB4420CD0281C0A21FFF735FB0A236F
:103020005B4243433035ED18013C6570051CF0E709
:1030300070BD0000000000000EB410B591B013ABDD
:1030400004CB041C0021282206A80593FFF7B5FF36
:103050000A230993124B059A0893139B019200933C
:10306000104B06A802930D4B0B4A069400F0A2FDEC
:10307000089B041C013B0893002B03DB069A0023EA
:10308000137003E0002006A901F0EEFC201C11B033
:1030900010BC08BC03B01847FFFFFFFFFFFFFF7F16
:1030A000FFFFFF7FA9300000F0B50E684C68A5B0A7
:1030B00007920A93321C231C0C920D930B900D98CF
:1030C00043005B0D0F930F9D994B9D422AD1020344
:1030D000079C051C0C980023120BE37002436E231F
:1030E000002A14D16922637066232270A370002D18
:1030F00003DA904B2A9C236011E00A9DAD0704D4AB
:103100000A9C640708D58C4B07E08C4B05E0079CB4
:10311000612223706270A370894B2A9D2B6003206B
:1031200000F080FC0B9D20239D432B1C0025412B90
:1031300000D15AE2301C211C704B6F4A02F09AFBFE
:10314000A84205D08020000601252418109500E033
:103150001090301C211C694B674A02F06FFB00285D
:1031600000D021E217AA211C301C01F08DFD179C14
:10317000189019912E20FF30604372494018FA21AF
:103180008900FFF781FA021B08905D485D4901F054
:10319000BBFD089C22902391002C05DA5A4A5B4B18
:1031A00064421E921F9307E0089D594A594B1E9294
:1031B0001F93002D16D02C1CE00709D522982399C7
:1031C0001E9A1F9B01F0D0FF22902391012C09D061
:1031D0001E981F991E9A1F9B01F0C6FF64101E9037
:1031E0001F91E9E718981999229A239B02F080F819
:1031F0001A901B911A981B99474A484B02F03AFBC8
:10320000002813D01A981B99454A464B01F0ACFF91
:10321000434A444B089C1A901B9122982399013CE5
:10322000089402F065F822902391E3E71A981B991D
:103230003D4A3E4B02F096FB002813D01A981B998A
:10324000374A384B02F054F8354A364B089D1A90ED
:103250001B91229823990135089501F085FF229052
:103260002391E3E71A981B9902F08AFA089C0990C7
:1032700063421194002C00DA1193099802F0D3FAFA
:10328000179B089DEA1A01F03FFD1C4B1A4A1A9041
:103290001B911C921D93002D56DA1B481B491E9052
:1032A0001F91209221931E9E1F9F1E981F990026FA
:1032B000321C3B1C02F0CCF8209C219D021C0B1CF4
:1032C000201C291C02F0B8F9114A124B20902191C0
:1032D0001E961F971E981F9901F046FF021C0B1C9B
:1032E0000748084902F0B4F8094A0A4B02F000F80E
:1032F0002090219132E0C046000000000000000054
:10330000000000000000F03F9A9999999999C93FEF
:10331000000000000000144000000000006AF840B7
:1033200000000000000024400000000080842E41C6
:10333000FF070000245C00004C5B0000F45B000011
:10334000595B000084EAFFFF089CC449C2481E90F4
:103350001F9120922193002C00D17FE0119D0E95AA
:103360000E9CE40743D51A981B99209A219B1C9C1C
:103370001D9D129413951E9C1F9D209E219F01F060
:10338000F3FE321C149015913B1C201C291C02F0EA
:1033900053F9021C0B1C1298139901F0E5FE021C54
:1033A0000B1C1498159902F047F91C901D911A985E
:1033B0001B991E9A1F9B01F0D7FE1A901B911A9E13
:1033C0001B9F1A981B990026321C3B1C02F040F8E8
:1033D0001C9C1D9D021C0B1C201C291C02F02CF99E
:1033E0000E9D1C901D911A961B97012D36D0209E84
:1033F000219F1E9A1F9B101C191C209C219D02F0CE
:103400001BF9221C2B1C02F017F9021C0B1C301C90
:10341000391C01F0A9FE209021911E981F991E9A37
:103420001F9B01F0A1FE1E901F911E9E1F9F1E98C4
:103430001F990026321C3B1C02F00AF8209C219D9B
:10344000021C0B1C201C291C02F0F6F80E9C20907C
:10345000219164101E961F970E9481E71A981B996C
:10346000189A199B02F042FA002803D1099D013DE8
:10347000099502E7189819991A9A1B9B01F0E8FF21
:1034800018901991189819991C9A1D9B01F0E0FF4A
:103490001890199118981999229A239B01F028FFE6
:1034A0006F4A704B189019911898199901F05CFEA9
:1034B000189019911898199902F062F9189E199F9D
:1034C000041C02F0B0F9021C0B1C301C391C01F06A
:1034D000BFFF634A634B01F047FE1890199118989B
:1034E000199902F04DF9061C002E03DA5E48013CE2
:1034F0003618F9E75D4B9E4203DD5D4901347618CD
:10350000F8E7002C05DA099D574A013DA4180995F2
:10351000F7E79C4205DD099D5548013524180995BA
:10352000F7E7099D534B9D4219DC201C5249FFF7D8
:10353000ABF8099B0A277B43051C1B184E49301C1E
:103540000993FFF7A1F84D4B5D43434364197C4356
:10355000089DF3183E1C24185E43013D22E0434BB6
:103560000998984226DD0A21FFF78EF80A277F4244
:10357000031C7B43EB183C4D09906B43E318181C6C
:103580000A210E93FFF780F8041C381C60430E9943
:1035900008186843301805300A21FFF775F8089DB0
:1035A000061C0135089505E0052300265B420893BB
:1035B000341C099607983025011C057006310998BE
:1035C000FFF723FD0799201C0C31FFF71EFD07991B
:1035D000301C1231FFF719FD079C0023E574089D8C
:1035E00023750535109CAD002543E80701D5244B14
:1035F0000AE00A9CA40704D40A9C640703D5214B63
:1036000002E0214B00E0214B2A9C2B9823600123F0
:103610009D43EB179B0F0B995D19AD100468612951
:1036200011D007DC452900D188E0472967D041291E
:1036300063D108E00B9A662A00D108E1672A5ED0C0
:10364000652A5AD17AE00D9B0F9D1803000B002DBF
:1036500020D00F496B1822E0000000000000144049
:103660000000000080842E4140420F003F420F00C6
:10367000C0BDF0FF9F860100A08601006079FEFFBB
:10368000245C00004C5B0000F45B0000595B000010
:1036900001FCFFFF0C9A0F9B024300D0C64B002C8D
:1036A00010D10A9D2D070DD40B9C612C01D1C3496B
:1036B00000E0C3490F9A501E824130320798FFF74D
:1036C000BBFC11E00B9D612D01D1BE4900E0BE495C
:1036D0000F9A0190551EAA410C9D0293303200951D
:1036E0000798231CFFF7A8FC0D99002901DBB74BB5
:1036F00000E0B74B2A9C236094E167200B900A9965
:1037000080231B0119430A91002C02DC2B9C01230E
:1037100023602B9C12212368112B00DC591C079875
:10372000FFF74FFC2B9C2D1823689D4200DA88E0A0
:103730002B9C013B23600B9C023C0B942B9C23682D
:10374000112B05DD2D9C113B23602B9C1123236045
:103750002B98802600680A99041C360102340E401A
:1037600004D10798211CFFF72CFC2D18079A2B98E1
:10377000537813700368002B03D1964B0A991942B2
:1037800003D0079A2E23537000E001242D9803687C
:10379000002B03DD07993E230B550134002E10D07A
:1037A0000A9A12070DD407980319013B1B78302B96
:1037B00001D1013CF7E73E2BFBD02E3B5A4253414F
:1037C000E41A0B9A0799631C0A550234002D04DA97
:1037D0002D226D42261CCA5403E007982B22261C7A
:1037E000C2547D4B9D420CDDFA21281C8900FEF756
:1037F0004BFF0799031C30330B55784B661C58431D
:103800002D18632D0CDD281C6421FEF73DFF079C5D
:10381000031C3033A35564235B42584301362D18F3
:10382000281C0A21FEF730FF0A225242031C504393
:10383000079C30333035A3552818A3195870B01C95
:10384000F0E0281D00DA73E7EA439B1823602B9C05
:10385000802322681B01002D51DA6E42511C8E42DA
:1038600009DD079D30232B702E236B7020682D9C63
:10387000206002243BE05219941C122C03DD2D9C85
:10388000113A226013240A9818420CD10798211C7F
:10389000FFF797FB002806D0EE430134002E02D13B
:1038A000079D6B780DE0079D2B19012E0DD1079D0B
:1038B0005A1B002A03DD1A78013B9A70F7E701349E
:1038C00030232B702E236B7011E0079D5A1B002AAA
:1038D00003DD1A78013BDA70F7E730232B702E23D3
:1038E0006B703C23AB702C9D013E02342E602D9DED
:1038F0002B68002B75DD079D3E232B5527E0AE1866
:10390000B41C122C41DD0A981324184207D10798E1
:10391000211CFFF756FB002801D001351424621E3C
:10392000079B954215DA5A7807991A7001335A1A8B
:10393000AA42F8DD4B192E225A702B9A2D9B126841
:10394000AD18113D1D60002D4BD03E230B550134A9
:1039500047E05978079819700133191A9142F8DB3A
:1039600003192D1B2C99013B3C2202351A700D6066
:103970002E222B9D02552A68631C002A30D02D9DD3
:1039800002342A603E22C2542BE00A98184207D122
:103990000798211CFFF715FB002801D00135F41C06
:1039A000079B5A7807991A7001335A1AAA42F8DD10
:1039B0004D192E236B7014E001FCFFFFF65B000035
:1039C000FE5B0000065C0000155C0000595B000017
:1039D000245C000008080000E703000018FCFFFF5B
:1039E0001C1C0A9D2D0512D50A9D201C2D0719D4DB
:1039F000079D2B19013B1878302801D1013CF7E7CE
:103A00003E28FBD02E3843425841201A0AE02B9D15
:103A1000201C2B68002B05D10A9C082323405A4206
:103A20005341C01A25B0F0BDF0B58FB00C1C071C77
:103A3000161C0021282204A81D1CFFF7BEFA0A2329
:103A400007930E4B621E06930D4B002401950293C3
:103A50000096231C04A8049700F0ACF8069B051CF4
:103A6000013B0693A34202DB049B1C7003E0201C75
:103A700004A900F0F9FF281C0FB0F0BDFFFFFF7F85
:103A8000A93000000FB473B506AB20CB6846012106
:103A90002A1C0193FFF7C8FF041E14DD461C301CCE
:103AA00001F098F9009000280DD0311C2A1C019BD0
:103AB000FFF7BAFF064B0099D86B221CFEF786FE73
:103AC000009801F0E9F9201C76BC08BC04B0184746
:103AD000680F001070B5244CA02200215200201C59
:103AE000FFF76BFAC02001F0DFF9204D0021C02262
:103AF0002860FFF762FA28680023282218215A4319
:103B00005943A218411801335162082BF5D1221CE8
:103B10001749002001F052F8802280235B01201C0D
:103B20000021D20000F0ECFE261C124D2836291C84
:103B3000321C012001F042F880228023301C5B01FE
:103B400050340021D20000F0DBFE291C221C022090
:103B500001F034F880228023201C0021D2005B0178
:103B600000F0CEFE70BDC046680F0010640F00105C
:103B7000265C0000285C0000031C0B4330B59C074A
:103B800009D1032A07D903680C68A34203D1043082
:103B90000431043AF5E70023934208D0C55C0133B1
:103BA000CC18013C2478A542F6D0281B00E0002068
:103BB00030BD0000F0B5D1B00E920F930024569B9B
:103BC000579D071C079418785C1C0A94002801D1A3
:103BD00000F092FE0026252825D0079C079E0F990D
:103BE0000134F317994207DC01D000F072FE0E9AFF
:103BF000B24201D800F06DFEBB68013BBB60002BF8
:103C000005DB3B685A1C3A60187000F062FE391CF4
:103C100000F02AFF00F05DFE2B2C0BD92D2C0FD1CC
:103C200001231E430A920A9B0A9A1C7801322B2C0C
:103C3000F2D10AE0202C0AD0232C0AD10823F0E785
:103C4000302C06D180239B00EBE70223E9E7042315
:103C5000E7E72A2C0CD12B682A1D002B02DA012160
:103C60005B424E400A98151C447802300A9008E0E6
:103C70000023211C3039C8B20A92092801D800F06B
:103C80002CFEDA43D217134000210C930B912E2CFB
:103C90001CD10A9A14782A2C06D12C6804350B946E
:103CA000547802320A9209E00A9B221C303A01330E
:103CB000D1B20A93092901D800F016FE0B9800280A
:103CC00002DB10231E4301E000210B916C2C0ED16E
:103CD0000A9A14786C2C05D15478602302321E4362
:103CE0000A9204E00A9B01330A9320231E434C2CC2
:103CF00001D0712C04D10A98602304781E431EE081
:103D0000682C0FD10A990C78682C05D180235B00B0
:103D10004C781E4302311AE00A9A802301320A923B
:103D20001E4315E06A2C06D140231E430A9B1C78D3
:103D300001330A930CE07A2C04D10A9804780130FC
:103D40000A9005E0742C03D10A990C7801310A918C
:103D5000672C1EDC652C00DBAAE2472C00D1A7E211
:103D600009DC412C00D19DE2452C00D1A0E2002CC1
:103D700000D1B2E027E0612C00D193E203DC582CA3
:103D800000D187E11FE0632C19D0642C00D138E208
:103D900019E0702C00D1D4E108DC6E2C00D1A2E037
:103DA00000DDD8E1692C00D12BE20CE0752C00D1AC
:103DB000FAE1782C00D198E1732C04D1B4E02C1DE9
:103DC00011942C6800E011950C98012301383340C0
:103DD0000890109333D120210B91B20501D53026E4
:103DE0000B96002500260C9A0798023A521B43199D
:103DF0000892002A22DB0798C117289029910F9872
:103E0000289A299B52197341984203DC11D10E99CB
:103E100091420ED9BB68013BBB60002B05DB3B68C0
:103E20005A1C3A600B9A1A7003E00B98391C00F088
:103E30001BFE01220023AD185E41D4E70793079EC5
:103E400007990F9A0136CB179A4203DC10D10E9BCB
:103E50008B420DD9BB68013BBB60002B04DB3B6888
:103E60005A1C3A601C7003E0201C391C00F0FCFD59
:103E7000109C0796002C01D100F029FD002400259C
:103E80000899E343CB4221D4F0172A962B900F993F
:103E90002A9A2B9B12196B41994203DC11D10E987F
:103EA00090420ED9BB68013BBB60002B05DB3B6831
:103EB0005A1C3A6020221A7003E02020391C00F0BE
:103EC000D3FD01220023A4185D41D9E7CB43DB17C2
:103ED0000B40F318079300F0FAFC0A9C1195013C83
:103EE0000A9400F0F4FC2B1D11932B68700605D585
:103EF000079CE2171C605A6000F0E9FCB00603D58D
:103F0000079C1C6000F0E3FCF00503D5079C1C70C7
:103F100000F0DDFC300603D5079C1C8000F0D7FCC8
:103F2000079E1E6000F0D3FC2C1D2D681194109587
:103F3000002D01D1BF4C1094109800F049FD041CD5
:103F4000F00603D50B998C4200DD0C1C0C9A012362
:103F5000121B334008920C9337D120230B93B005EA
:103F600001D530260B9600250026089A013A531BEE
:103F700022D40798C1172C902D910F982C9A2D9B25
:103F800052197341984203DC11D10E9991420ED916
:103F9000BB68013BBB60002B05DB3B685A1C3A60E9
:103FA0000B9A1A7003E00B98391C00F05DFD01229A
:103FB0000023AD185E41D8E7089EF343DB1733407A
:103FC000079ED21AF6180796089200250026AC42E2
:103FD00024DD0798C1172E902F910F982E9A2F9BB2
:103FE00052197341984203DC13D10E99914210D9B2
:103FF000BA681098013ABA604319002A05DB3A689A
:10400000511C39601B78137003E01878391C00F0DC
:104010002BFD01220023AD185E41D8E7E343079E44
:10402000DB171C4036190C9C0796002C01D100F0C0
:104030004EFC00240025089EE343F34222D4079E51
:104040000F99F01730963190309A319B12196B41CD
:10405000994203DC11D10E9E96420ED9BB68013BFA
:10406000BB60002B05DB3B685A1C3A6020221A70AB
:1040700003E02020391C00F0F7FC01220023A418E3
:104080005D41D8E7F343079CDB173340E4180794FE
:1040900000F01DFC402333400AD0073507239D4321
:1040A000281C083029686A6811900491059204E080
:1040B0002A1D2D681192049505938023334006D064
:1040C000684610210B5A00220493059206E0F00581
:1040D00004D569461020425C05930492310701D54E
:1040E000554D00E0554D564A29E0402333400AD053
:1040F000073507239D43281C083029686A681190FA
:104100000491059204E02A1D2D68119204950593EF
:104110008023334006D0684610210B5A00220493B6
:10412000059206E0F00504D569461020425C05932F
:104130000492310701D5434D00E0404D424A944678
:10414000ABE0281D404A2D6800210495119005918F
:1041500094463C4DC7E0402333400AD0072307353F
:104160009D432B1C083328686968119304900591BE
:1041700004E0291D2D681191049505938023334097
:1041800006D06A461020835A00210493059106E068
:10419000F20504D5684610210A5C059304923207A3
:1041A00000D477E0294D76E0402333400AD007233E
:1041B00007359D43291C08312A686B6811910492C8
:1041C000059304E0281D2D68119004950593802324
:1041D000334005D069461022535A0493002305E06A
:1041E000F00504D569461020425C04920593102224
:1041F0003240124B944675D0154A002116408C4629
:1042000070E072060AD5072307359D432B1C08333F
:104210002868696811931490159105E02B68291D91
:104220001493DB1711911593320613D514A80023AC
:10423000C35E14E02A5C0000315C0000595B0000A2
:10424000395C0000345C00004A5C0000375C000010
:10425000FFFDFFFFF10505D514AA0023D3561493E3
:10426000DB171593159B002B08DA149A159B002178
:104270005042994104900591C84D0CE0149815994D
:1042800004900591B10703D4720703D5C44D02E031
:10429000C44D00E0C44D00239C46F00623D5C3491D
:1042A0000E4020E010231E4202D10D211E430B912F
:1042B0008023DB003343F20601D406260B96072247
:1042C00007359543286869682E1C46904791002160
:1042D00000220836049105920022119694461E1C75
:1042E000151C00E01D1C079B4395D8173293339093
:1042F000329833990E9A0F9B121A8B4108920993A8
:104300000B9901235B42449345934291002355202E
:1043100048A958540133202BF9D18223DB001E42D7
:1043200001D101234293672C16DC652C00DBC9E028
:10433000472C00D1C6E006DC412C00D1C2E0452C60
:1043400000D0CFE0BEE0612C00D1BBE0642C11D0E6
:10435000582C00D0C6E010E0702C0ED005DC692C83
:1043600008D000236F2C21D0BCE0752C02D0782C13
:1043700003D0B7E0002410942FE000230499059C9B
:104380000B93214300D1AFE004980F210140624616
:10439000505C48A9585405980499059A04070809DF
:1043A00004431109049405910133E7E7049A059841
:1043B0000B93024300D197E004980721014030316C
:1043C00048AA99540599049A059C4807D1080843BE
:1043D000E208049005920133E8E7109C049B0598DD
:1043E0000B94034300D17FE0049A05999208141CB2
:1043F000049A8B071C43520820948808CB07141C8E
:1044000021901C4348082294239022982399209AB3
:10441000219B12184B4114091907201C0843190944
:10442000189019911898199912184B41140A1906E5
:10443000201C0843190A1A901B911A981B991218EC
:104440004B41140C1904201C0843190C1C901D919D
:104450001C981D9912184B410021269327912698EC
:10446000279912184B41D4085907201C0843D90832
:104470001690179106240025049A059B1698179903
:10448000A4185D410A22002301F0A4FA241A8D41E8
:1044900020092B07011C19432A091E911F92169807
:1044A00017991E9A1F9B12184B410A2050430499DA
:1044B000109C3031081A48A96054013410940492B9
:1044C00005938AE743AB009342AB019344AB02935D
:1044D00045AB0393201C46A948AA331C589CA0470F
:1044E0000B9001E000240B948023DB0033402493E5
:1044F0000DD000234293449B002B01DD013B4293EE
:10450000459B002B0BDD4298013BC31803E0429909
:104510000B9C0B1B01D4429301E0249C42940B980A
:10452000429900254418439800F052FA0C9A01234E
:104530003340141B25931E4B241A10941E4214D191
:104540000024002507E00998A84216DC12D00122B9
:104550000023A4185D41109B013B1A1BF3D5109C4E
:10456000E543ED1725405B1B1093002300241293B5
:10457000139434E00899A142E9D9BB68013BBB60C0
:10458000002B05DB3B685A1C3A6020221A70DEE7DC
:10459000391C202000F068FAD9E7C046245C0000EE
:1045A0004C5B0000F45B0000595B0000FFFDFFFF67
:1045B00001020000E8173495359034983599129A25
:1045C000139B12184B410999994216DC12D0012213
:1045D0000023129813998018594112901391439B0C
:1045E000129C5A1C43921B782C190C949C46002B4D
:1045F000E0D112E0089C9442E9D9BB68013BBB6062
:10460000002B05DB3B6860465A1C3A601870DEE7F9
:104610006046391C00F028FAD9E72598002833D1E4
:104620002024B10500D5302400250026109A013A37
:10463000531B21D40C9A0998D31736923793369A84
:10464000379B52197341984203DC10D1089991426B
:104650000DD9BB68013BBB60002B04DB3B685A1CD7
:104660003A601C7003E0201C391C00F0FDF90122A7
:104670000023AD185E41D9E7109C0C9EE343DB1785
:104680002340D21AF4181092249E002E02D1002545
:10469000002698E000260B98864200DBE5E048AB58
:1046A000F05C3C2804D03E2865D10020002145E084
:1046B000002100220C910D92449B0C99013B65183E
:1046C0004493002B6DDBE21739923894389839996E
:1046D0000C9A0D9B12184B410999994203DC11D198
:1046E000089890420ED9BB68013BBB60002B05DBEC
:1046F0003B685A1C3A6030221A7003E03020391CA3
:1047000000F0B2F90C980D9901220023801859414C
:104710000C900D91D0E7E2173B923A943A983B996E
:104720000C9A0D9B12184B410999994213DC0FD03A
:10473000012200230C980D9980185941459B0C903B
:104740000D910C99013B65184593002BE3DA28E0A5
:1047500008989042ECD9BB68013BBB60002B05DB9D
:104760003B685A1C3A6030221A70E1E7391C30204D
:1047700000F07AF9DCE7099A651CE3179A4203DC3A
:104780000FD1089BA3420CD9BB68013BBB60002B37
:1047900004DB3B685A1C3A60187002E0391C00F0D8
:1047A00063F901362C1C76E7E1173C943D9109989A
:1047B0003C9A3D9B5219734198420FDC0BD0012269
:1047C0000023AD185E41429B6219013B0C9242935B
:1047D000002BE9DA12E008999142F0D9BB68013B5D
:1047E000BB60002B05DB3B685A1C3A6030221A7014
:1047F000E5E7391C302000F037F9E0E70024002518
:104800000B9E211C331B002B2ADD0C9EF0173E96BD
:104810003F90099E3E9A3F9B12196B419E4203DCDA
:1048200019D10898904216D9BB68013BBB60002B98
:1048300009DB3B680B985A1C48AE3A60C9433218F2
:104840008A5C1A7007E00B9E48AAC9439319C85C9A
:10485000391C00F009F901220023A4185D41CFE7BB
:10486000F443E41734400C9E3419259E002E2BD0BF
:10487000002500261099EB43CB4221D4E017409449
:1048800041900999409A419B52197341994203DC26
:1048900011D1089890420ED9BB68013BBB60002B38
:1048A00005DB3B685A1C3A6020221A7003E0202086
:1048B000391C00F0D9F801220023AD185E41D9E778
:1048C000CB43DB170B40E418079E36190796119D62
:1048D000079C07940A9BFFF776F90A246343147830
:1048E0005B180132FFF7C5F90B9C0A2161438A1856
:1048F0000B921C78FFF7D9F9079851B0F0BDC0466C
:10490000F0B5C5680124AE071AD08026B600B242C1
:104910000BD08026F600B24204D08026A640B242D8
:104920000ED102E0416A231C04E0064E5F1E012402
:10493000B74205D82A4301610160C361C260002407
:10494000201CF0BDFEFFFF00031C0B4310B59A07AF
:104950000CD103680C68A34208D10A4C1A199A4377
:10496000094B1A4202D104300431F2E70022835C81
:104970008C5CA34201D0181B03E00132002BF6D15E
:10498000181C10BDFFFEFEFE80808080031C0B43C0
:1049900030B59A0711D1021C0B680B4C1D190B4C3A
:1049A0009D43254202D108C20431F5E7D9B2117006
:1049B0000132002907D01B12F8E70023CA5CC25459
:1049C0000133002AFAD130BDFFFEFEFE80808080D8
:1049D00010B5411C820706D00130431E1B78002B06
:1049E000F8D1401A18E003680C4A9C180C4A9C4302
:1049F000144201D10430F6E7DCB2421C002C0AD08C
:104A0000FF242402821C234205D0FF242404C21C5C
:104A1000234200D0021D501A10BDC046FFFEFEFE0C
:104A200080808080C26820239A43436A10B5041CAA
:104A3000E2605B6882699A420DD000F0F3F8E268A8
:104A4000074B134010221343626AE3605368A3616B
:104A5000236993602360E268024B1340E36010BD5A
:104A6000EFCFFFFFBFBFFFFFF8B5514ACB68061C71
:104A70001A400C1CCA60980602D5081CFFF7D2FF2A
:104A8000A268E368511C0EDA98050CD40221494251
:104A90008A1AA260902252021343E36023685A1CD0
:104AA00022601E7081E0434A1D1C1A40022A05D074
:104AB0000022A26080221343E36054E03E490B4091
:104AC000802109028B420AD10021201C00F04EFAFD
:104AD000E168890602D5201CFFF7A4FFE568902352
:104AE0005B02F0222B431201E36015421ED1606984
:104AF00000F0C1FF00280BD06A0509D5636A236165
:104B000023600123E36192235B022B43E3600DE00A
:104B100080277F01381C00F0C7F99423E2685B020C
:104B20002B431A4320612060E761E2609021090174
:104B3000226825690B4219D0636A99688A4200D9B4
:104B4000111C491B09D1636A6A1C9A602260E269E0
:104B5000511EA160DA602E7027E0281C221C00F094
:104B600003F90028EFD0012040421FE0511CF0B2B1
:104B700021601070626A2768916884468F4200D96C
:104B8000391CE769491BD760580504D463460A2BD2
:104B900001D0B94209DB00239560281C2560A36081
:104BA000221C00F0E1F80028DDD1F0B2F8BDC046CB
:104BB000FFFFF7FF8A10000010A0000070B50D1C69
:104BC000061C101C141C00F07FF92B78722B06D0E9
:104BD000772B07D0612B20D10823114A04E0002352
:104BE000012201E004230222013529782B2905D076
:104BF000622908D104210A43012102E003210A436A
:104C000002210B43F0E7E26066611A0706D5201C1B
:104C10000021022200F0AAF900E00024201C70BD4F
:104C20000280000038B5436A041C0569026899686F
:104C3000C36813481840E06082201840022802D060
:104C4000012040421AE080204002184016D09142D4
:104C500000D2111CA94209D1636AE2689D60094B28
:104C6000002013402560A060E36007E0491B281C7A
:104C7000221C00F079F80028EED0E1E738BDC046EC
:104C8000FFFFF7FFFFFFFEFFF8B5141C194B184A92
:104C9000061C0F1C00F0D2FD002804D00023236066
:104CA0001449134823E07A00134D520D301C391C6F
:104CB0005319002A15D13D032D0B321C6F00D60F5E
:104CC0003E43802736033F03360B52003D4205D05A
:104CD0000D0D2D05291C3143101C02E0013B351C34
:104CE000ECE72360054A064B0B40111C1943F8BD45
:104CF000000000000000000002FCFFFF0000E03F99
:104D0000FFFF0F80C046C046D0B5141C114B104A9F
:104D1000061C0F1C00F092FD002802D00D490C4823
:104D200015E07B005B0D1C190B4B301C9C4206DD13
:104D30000A4B22221A600A4B1868596807E0002CB7
:104D4000ECDD084B64053B406408191C2143D0BDD1
:104D50000000000000000000FE07000040090010F5
:104D6000605C0000FFFF0F80F7B5D56801900E1C56
:104D7000141C5769EA0205D51023381C1D4300F0A6
:104D800077FEA061114B1D4208D0381CA16900F0CC
:104D900078FE002813DB0E4B1D40E560321C381CEA
:104DA0000199FDF713FD801B431E984140424300CB
:104DB0005B08F61AA3699E19A661002805D0E2686F
:104DC000802313430120E3604042FEBD1000020037
:104DD000EFFFFDFFF8B52F4FC51C3C68AD0800285C
:104DE0000FD0002606E0216880235B05994215D08C
:104DF000261CA468002CF6D10C3000F063F9421C8C
:104E00003CD1002045E01668802149058E4209D139
:104E1000516892685B1803336360A260A26863689C
:104E2000002AF0D1AB4206DBE91C994203DB802368
:104E30009B05236020E0291C0A318B4210D9802178
:104E40008905201C21600C30A90041186560A16013
:104E50005B1B80246405033B0C604B608A6018E098
:104E6000002AC5D19B00C01A00F02CF90130C8D02F
:104E700080239B0523606560201C09E080239B053F
:104E8000036045608460002E01D1386000E0B060AE
:104E90000C30F8BDA8100010002803D080230C3877
:104EA0005B0503607047000010B5FFF793FF041E19
:104EB00005D104491722FDF789FC00F0D5FD201C1F
:104EC00010BDC046685C0000F0B5436AC5688BB091
:104ED000041C476906690193AB0726D02B0716D43B
:104EE00000F02AF8381C00F0C0FD2B0502D5301C5C
:104EF000FFF7D2FF0F4BAD0DAD059D4207D102A8C4
:104F0000216A202200F0C0FD02A800F0D1F80021A3
:104F10001822606AFEF751F8201C00212822FEF7B3
:104F20004CF8019B0020636201E0012040420BB07D
:104F3000F0BDC046000080AD38B5002803D000F0B9
:104F4000E1F8051C0EE0041C051C0748201800F0C1
:104F5000D9F8002801D001256D42A02328345B0038
:104F60009C42F2D1281C38BD680F0010F7B53B4BAE
:104F70000D1CC168041C161C47690091194269D0B8
:104F8000381C00F078FD0190002863D1012E04D078
:104F9000022E07D0002E5DD123E0201C00F062F825
:104FA0002D181EE0381C00F063FDE168002804DACB
:104FB00080231943E16001264DE0626A2668936808
:104FC0009E4200D9331CA6699B1926699B1B8E063D
:104FD00003D55268934200DA131C834200DA031CA3
:104FE000ED18002D36DB009E636AB60404D52268F6
:104FF0009968914200D29A60A1698D420DDB2068C8
:105000009A68824200D2021C20695618361AB542AC
:1050100003DCDF68CE19B54207DB009E00212022A9
:10502000A160616032435D6010E0009E6D1AB607BA
:1050300001D5EF1BA760009EF60702D5821AAA18B9
:105040006260009A4519202325609A43044B1A4058
:10505000E26001E0022601960198FEBD0300100007
:10506000BFCFF7FFC368990705D1104B212201205C
:105070001A60404218E0202219030BD5134202D0D7
:10508000436A586804E0036881695A180369D01AB2
:10509000013809E0134202D0436A586804E003680B
:1050A00081695A180369D01A7047C0464009001038
:1050B00010B5041CFFF78CFC011C201C00F0DEFC6A
:1050C00010BD000070B50C4C2368002B01D10B4BB8
:1050D0002360C61C256803239E43AE19301C00F0D4
:1050E00035F8002802D12660281C04E0044B0C226D
:1050F00001201A60404270BDAC100010B0100010CA
:1051000040090010C36870B5041C032018401AD071
:105110009A0605D5636A201C5D68FFF783FC04E0EE
:105120002368A2699D182369ED1AE268064B201CCA
:105130001340E360FFF776FD291C061C0022201CAB
:10514000FFF714FF301C70BDFFCFFFFF044B002B97
:1051500004D0002298425241101C00E0181C7047F5
:105160000000000000000000F0B58BB01F1C009292
:1051700001934B000D1C049005915B0D00D181E063
:1051800053498B4200D17DE07A00520D7AD08A4299
:1051900078D0D2183B1C6B40DB0FDB0700980393E1
:1051A00080242B031B0B64031C430892FE02420D58
:1051B000802316431B061E430021221C301C0B1C9F
:1051C00000F008FC069007910099201CCD020021F8
:1051D0002A1C0B1C00F0FEFB09910021041C049A00
:1051E000301C0B1C00F0F6FB009001910021281CE4
:1051F000049A0B1C00F0EEFB009A019B8446081CED
:105200000021261C0F1C36184F41B6185F41099A21
:105210003C1C0D1C0B1C12196B4164460698079927
:1052200012184B41A1082B48089C0E4321182A480C
:1052300098420AD329481D1C2118141CA4185D414A
:10524000F00F221C02432B1C7600F40F00251219CC
:105250006B418020141C0006864201D1012084434A
:105260001F48814205D80A050399201C0B43D11819
:1052700027E0002903DB1B4B039C234300E0039B37
:10528000191C1DE03A1C6A401749D20FD2076B0067
:105290008B4204D87800884204D8111C10E01349CE
:1052A0008B4207D111487900814203D85B0D01D0B0
:1052B000490D02D10549044803E00A4B191C11436A
:1052C00000200BB0F0BDC046000000000000F87FD9
:1052D000FF07000001FCFFFFFFFF0F0000FCFFFFC6
:1052E000FD0700000000F07FFFFFDFFF0000E0FF90
:1052F000F0B50D1C87B06E000490059102920393E7
:10530000191C760D5FD04C4A96425CD05B005B0D59
:1053100059D0934257D00A1C6A40E802049D029F6C
:10532000CC02F61A80216B0D184309067B0D1C4335
:105330000B1C00920343EA020C43FD029C4202D87C
:1053400003D1954201D93D4906E0DF0759085008CD
:105350000B1C3A1C3A490243E707680876183843A1
:105360006108352500246400994206D801D1904295
:1053700003D80127121A8B413C4392185B416F1EE0
:10538000212D02D101943D1CEDE73D1EEBD1994248
:1053900008D801D1904205D8019D01346342634190
:1053A000ED1801950099274BCF0FFF079E4204D8B7
:1053B0003605019DF71979191EE0002E01DB224EFA
:1053C0003743391C2AE0214F6E00BE4228D84A00DC
:1053D000BA4225D80B1C2B435B005B0D5B0503D148
:1053E00012491148181C1DE00B1C6B40DB0F740D9B
:1053F000DB07640502D1191C201C13E0540D640561
:1054000003D1114A111C1943F6E7BA4203D00E4AE0
:10541000111C194302E0964202D0191C002001E041
:105420000348044907B0F0BD000000000000F87F09
:10543000000000000000F87FFF070000FD030000EF
:10544000FE030000FD0700000000F07F0000E0FF09
:10545000F0B587B002900391039F1D1C0092019349
:10546000049005913A1C9C46049E009B6A4006D518
:1054700080263606AB19009A00F0DEF8C9E0AF428C
:1054800003D39E420AD8AF4208D180200006039F72
:1054900012185740049B6A40009E944661460A0DCC
:1054A000614862493C0DA21A2140814200D1A3E02B
:1054B0008A4200D19AE0604601033F038020400306
:1054C0003F0B090B074301431F2A50D8081CD0404B
:1054D0003F1A2025181CD040AA1A91400843301AC0
:1054E0008642B6417642191CBF1B9140061C00291A
:1054F00005D0013E731C5A4253414942FF1AC02352
:105500005B031F4251D1F30FC90F76007F000E439A
:105510001F43331C3B4301D0A31E01E0191C52E082
:105520007A0B05D1320E3F0217433602083BF7E7EC
:105530007A0C04D1320F3F0117433601043BFA0CB9
:1055400004D1B20FBF001743B600023B3A0D04D19D
:10555000F20F7F0017437600013BE40ADA0A944217
:1055600002D11B05D91953E0E107002051E0352A8B
:105570001BD8151C203D081CE840301A8642B64155
:105580007642BF1B4026B21A91401A1CEA401143D2
:105590001B0602D0FF23194302E0061C002904D099
:1055A000461E434243414942FF1AFB020DD4013CCF
:1055B000630507D0F30F7F001F437600CB0F1E4318
:1055C000490002E02105181C23E0194B24051F4067
:1055D000002909DA013673427341FF1880231B0644
:1055E000994201D101239E43391911E0114B9A428E
:1055F00002D8111E09D00AE03B0302D00749064831
:1056000007E0002A03D106480649101C01E0391CB6
:10561000301C07B0F0BDC046000000000000F87F5D
:10562000000000000000F87FFF070000FFF7FFFF09
:10563000FFFFEFFFFE070000F0B587B00290039177
:10564000039F1D1C00920193049005913A1C9C46F7
:10565000049E009B6A4006D580263606AB19009A48
:10566000FFF7F6FE7DE0AF4205D2039F049B574053
:10567000009E6A4094463E493E4A380D01409142A0
:1056800068D06446220D821A8A425AD021033F0311
:10569000802464033F0B090B274321431F2A10D8A2
:1056A0000C1CD4403F1920251C1CD440AA1A914040
:1056B000214376188E42894149427F18191C914036
:1056C00014E0352A12D8141C203C0D1CE540761934
:1056D000AE42AD416D427F194025AA1A91401A1C75
:1056E000E24011431B0601D0FF231943BB0218D52A
:1056F000013673427341FF18002901D102239E43F2
:1057000002057B089B181C4A5900914205D876086F
:10571000FF07301C191C384323E0431C19050020E7
:105720001FE00138002909DA013673427341FF187E
:1057300080231B06994201D101239E430305F918DA
:105740000EE00E4B9A4205D8002A08D1FF0FF90748
:10575000101C06E03B0302D00449034801E0391C59
:10576000301C07B0F0BDC046000000000000F87F0C
:10577000FFF7FFFFFF070000FFFFDFFFFE0700004E
:105780000B1C400DC90208438021090610B50B4CC3
:105790000843190D611AC840FF290ED9E024E4001E
:1057A0004042214209D00020590006D504495C003E
:1057B0008C4202D8D80F034BC01810BD1E04000045
:1057C0000000E0FFFFFFFF7F10B5002802D1031C9F
:1057D000021C25E0030C01D1000402E080235B04DD
:1057E000C918030E01D1000202E080231B04C9186E
:1057F000030F01D1000102E08023DB03C918830FEE
:1058000001D1800002E080239B03C918002801DB3E
:10581000400002E080235B03C918C41263184205EC
:10582000101C191C10BDC10F08B5C90700D040429B
:105830008023DB05C918FFF7C7FF08BDF7B50D1CAE
:10584000009201931F1C9C466B000C1C009A011CCB
:10585000184304D17D0015430120002D07D00020FE
:10586000644504D1914202D1014A9A424041FEBDB1
:105870000000E0FFF0B585B00D1C009201931A1CEA
:105880008C46029003911F1C191C2A43164B0ED400
:105890007A0000209A4224D80120AF4221D800206B
:1058A000AF421ED1029A009B9A42804118E06A00E2
:1058B00000209A4215D87C009C4212D8029B1A43C1
:1058C000824203D1009A144384420AD001208C45BD
:1058D00007D800208C4504D1009B029A9342804156
:1058E000404205B0F0BDC0460000E0FFF0B587B013
:1058F000009201930D1C049005910E1C01990498CF
:10590000029203930A1C8446029F2A43144B0CD430
:105910004A0000249A421FD80124A9421CD800241E
:10592000A94219D18742644116E06D0000249D42CE
:1059300012D8019842009A420ED801248E420BD808
:1059400001D1BC4508D2049900240D43A54203D1DE
:10595000029B1A4354425441201C07B0F0BDC0467C
:105960000000E0FFF0B585B0029003910D1C0C1C07
:10597000029900920193181C1F1C28436B008C464F
:10598000009A134D00280CDB0020AB421ED80120EA
:10599000BC421BD80020BC4218D163469342404110
:1059A00014E00020AB4211D87E00AE420ED8012098
:1059B000A7420BD801D1624508D2029900200B43BF
:1059C000834203D1009B33435842584105B0F0BD98
:1059D0000000E0FF10B543435143C918040C130CF9
:1059E0005C43091992B2040C544380B243435043C0
:1059F0002204240C801861411A041B0C80185941A0
:105A000010BD8446830708D18B0706D1131F04D32A
:105A100004C904C0043BFBD21A1D524205D0891AA6
:105A2000801A8B5C83540132FBD1604670478446F8
:105A3000043A09D3830707D109060B0A19430B0C53
:105A40001943043A02C0FCD2043203D00170013081
:105A5000013AFBD1604670478C4671460139095CBA
:105A600049008E4461467047FEE70120404270477E
:105A700001204042704701204042704701204042CF
:105A800070470120404270470120404270470202A7
:105A900002020202020202020202020202026F6318
:105AA0007465740074696D656F75740035005749CD
:105AB0005A35353053324500000000000000000028
:105AC000000000000000000057495A6E6574000095
:105AD0000000004D41433A20253032583A253032FB
