:10000000002000102B010000FD000000FF00000098
:1000100000000000000000000000000000000000E0
:1000200000000000000000000000000001010000CE
:1000300000000000000000000301000005010000B6
:100040000701000007010000070100000701000090
:100050000701000007010000070100000701000080
:100060000701000007010000000000000000000080
:100070000000000000000000070100000701000070
:1000800007010000070100007106000007010000E1
:100090000701000011070000000000000000000040
:1000A0000701000007010000070100000701000030
:1000B0000000000000000000000000000000000040
:1000C000505C0000000000103C000000505C00008C
:1000D0000000002000000000505C000000400020F4
:1000E000000000003C000010701000000000002024
:1000F000000000000040002000000000FEE7FEE7D6
:10010000FEE7FEE7FEE7FEE7002310B5934203D2C9
:100110001C585C500433F9E710BD00238B4203D216
:1001200000221A500433F9E77047C021134A090529
:10013000136810B50B43124C1360124B9C4206D24D
:1001400020686168A268FFF7DFFF0C34F5E70E4B0B
:100150009C4205D220686168FFF7DFFF0834F6E7AC
:100160000A4B0B4A1B681B69196811605A68094BD6
:100170001A6002F03FFB02F0EDFEFEE780800440D3
:10018000C0000000E4000000FC000000F81FFF1F9A
:100190006C09001068090010FFFFFFFFFFFFFFFF61
:1001A000FFFFFFFFFFFFFFFFFFFFFFFFFFFFFFFF5F
:1001B000FFFFFFFFFFFFFFFFFFFFFFFFFFFFFFFF4F
:1001C000FFFFFFFFFFFFFFFFFFFFFFFFFFFFFFFF3F
:1001D000FFFFFFFFFFFFFFFFFFFFFFFFFFFFFFFF2F
:1001E000FFFFFFFFFFFFFFFFFFFFFFFFFFFFFFFF1F
:1001F000FFFFFFFFFFFFFFFFFFFFFFFFFFFFFFFF0F
:10020000FFFFFFFFFFFFFFFFFFFFFFFFFFFFFFFFFE
:10021000FFFFFFFFFFFFFFFFFFFFFFFFFFFFFFFFEE
:10022000FFFFFFFFFFFFFFFFFFFFFFFFFFFFFFFFDE
:10023000FFFFFFFFFFFFFFFFFFFFFFFFFFFFFFFFCE
:10024000FFFFFFFFFFFFFFFFFFFFFFFFFFFFFFFFBE
:10025000FFFFFFFFFFFFFFFFFFFFFFFFFFFFFFFFAE
:10026000FFFFFFFFFFFFFFFFFFFFFFFFFFFFFFFF9E
:10027000FFFFFFFFFFFFFFFFFFFFFFFFFFFFFFFF8E
:10028000FFFFFFFFFFFFFFFFFFFFFFFFFFFFFFFF7E
:10029000FFFFFFFFFFFFFFFFFFFFFFFFFFFFFFFF6E
:1002A000FFFFFFFFFFFFFFFFFFFFFFFFFFFFFFFF5E
:1002B000FFFFFFFFFFFFFFFFFFFFFFFFFFFFFFFF4E
:1002C000FFFFFFFFFFFFFFFFFFFFFFFFFFFFFFFF3E
:1002D000FFFFFFFFFFFFFFFFFFFFFFFFFFFFFFFF2E
:1002E000FFFFFFFFFFFFFFFFFFFFFFFFFFFFFFFF1E
:1002F000FFFFFFFFFFFFFFFFFFFFFFFFFFFFFFFF0E
:1003000000BA704740BA80B2704708B5FFF7F8FFEF
:1003100008BD40BA80B2704708B5FFF7F1FF08BDCD
:1003200000B540238BB0012801D180239B000791A9
:100330003E20FA210693094B05908900186808921F
:1003400002F0CEF9064B099001A905A8984701983B
:1003500043425841C0B20BB000BDC0465C0F001014
:10036000F11FFF1F00B540238BB0012801D180236E
:100370009B0007913D20FA210693094B05908900C7
:100380001868089202F0ACF9064B099001A905A87B
:100390009847019843425841C0B20BB000BDC046D7
:1003A0005C0F0010F11FFF1F08B5014B984708BDF7
:1003B000F11FFF1F70B5C3B28AB0051C0E1C141CC0
:1003C000002B02D00120404231E08B07FAD1531EAE
:1003D000184AFF3B134207D08023DB009C4203D026
:1003E00080235B019C42EDD12B0B72B63222059229
:1003F000220B069305A89B1801A90793FFF7D4FFCA
:10040000019B002BDED1FA21333305930A4B89007F
:10041000186806950796089402F062F901A90990F8
:1004200005A8FFF7C1FF01980028CBD162B60AB03A
:1004300070BDC046FFFEFFFF5C0F001030B5051C0D
:100440008BB00C1C72B632230690079105A801A947
:100450000593FFF7A9FF019B002B02D0012040422A
:1004600012E03423FA210593084B89001868069599
:10047000079402F035F901A9089005A8FFF794FF49
:1004800001980028EAD162B60BB030BD5C0F0010B5
:10049000F8B5061C0C1C012A03D106201721FFF712
:1004A000CDFF114F114D3B68E3183B60104B9C4250
:1004B00011D801331A1BFF21301902F058FD802298
:1004C0002868311C9200FFF775FFC023DB012B6009
:1004D00000233B6007E0221C2868311CFFF76AFFFD
:1004E0002B681C192C60F8BD3C00001000000010A7
:1004F000FF010000A0230022DB059A707047A023B3
:100500000122DB059A70704708B5031C0A1C0248DB
:10051000191C02F05DFB08BD0000044013B56B46DA
:10052000DC1D211C0122024802F052FB207816BD7E
:100530000000044008B5031C0A1C0248191C02F004
:1005400001FB08BD0000044007B56B46D91D0870CB
:100550000122024802F0F6FA07BDC046000004403E
:1005600010B51E4C0021201C0622822302F0A0FAA6
:10057000201C00210822812302F09AFA201C00216D
:100580000922812302F094FA201C00210222102368
:1005900002F08EFAA02280230420D2059B01D158BC
:1005A0000F4C01438020D150D158C0030143D1509A
:1005B000201C02F0A7FBFF222368201C9343F83A7B
:1005C00013432360012102F063FB201C054902F064
:1005D00067FB022263681343636010BD0040044060
:1005E000000004408096980010B586B0102202A842
:1005F000174902F0B8FCA0230122DB059A70002203
:100600009A75FA2292000192019A511E0191002AD4
:10061000FAD101240F489C750F4900F0B7FF0F482D
:100620000F4900F0C7FF0F480F4900F0DDFF201C05
:1006300002A901F051F9431C00D1FEE70B4B0193D5
:10064000019B5A1E0192002BFAD106B010BDC04684
:100650005E5A0000F5040000FF0400001D050000C4
:1006600049050000090500003505000010270000BD
:100670000222104B10B51968114200D01A600E4CBE
:1006800064212368581C206002F02AF8002905D153
:10069000081C02F001F9012002F0FEF8FA2120689E
:1006A000890002F01DF8002902D1216000F0E6FA6D
:1006B00010BDC046004001404000001038B5124C4B
:1006C000201C02F077FB02F0E1F9051C201C02F06F
:1006D0008FFB0822FA216369281C13436361890098
:1006E00001F0FEFF1022E0616369C02113436361E2
:1006F00063680F3A134380226360044BD2024900BF
:100700005A501A6038BDC0460040014000E100E088
:1007100008B503480349044A02F005FC08BDC04679
:1007200000800040540900104009001038B5051C35
:100730006B780078A9781B02034309041A1C0B1C70
:10074000E978134309061943324802F0AFFB2879D0
:100750000538032807D805F067F90A0204080123C1
:1007600006E0022304E008232B71032300E00023AA
:10077000AA79012A06D0022A02D10232134301E0EB
:100780000122AA716A79012A05D0002A08D0022A1A
:1007900004D1182200E00822134301E000226A710C
:1007A0001C4C1D48E36000210722812302F080F9E0
:1007B000194800211122812302F07AF9E8790328EF
:1007C00026D805F031F90C14021D1122802312489D
:1007D000002102F06DF9A0230022DB055A74C22229
:1007E000236993432361E36C913A93430FE03122F1
:1007F000E36C9343E36423698F321343236107E07F
:10080000C222236993432361E36C913A1343E36467
:1008100038BDC046008000400040044038B501F0BB
:100820008BF9051C154C201C02F0EEFA281C4A30EE
:10083000FFF77CFF8025C123ED00A360413B2363CC
:100840000F492B1C01220F4802F038F92B1C0E49CE
:1008500001220E4802F032F90522C52163688900A1
:1008600013430B4A636050580A4B03408020C00179
:100870000343535080239B03136038BD0080004026
:1008800044040010540900104400001040090010F6
:1008900000E100E0FF00FFFF00230A4A13700A4A4C
:1008A00013600A4A13800A4A13800A4A13600A4AEC
:1008B00013800A4A13600A4A13600A4A13600A4AFC
:1008C00013707047480800104408001068080010B2
:1008D0006A0800106C08001060080010740800100E
:1008E000640800107008001062080010054A1368C0
:1008F000002B05D000231360034A1360034A1360E2
:100900007047C0467408001064080010700800109A
:10091000054A1368002B05D101211160034A1360B9
:10092000034A13607047C046740800106408001042
:1009300070080010F0B5294C061CA5440120FFF7F3
:10094000E1FC0E2303AF6B44311C3880181C03F00C
:10095000F5FF301C04F014F80E23214D6B440130D8
:100960001C18291C201C03F0E9FF281C04F008F8BF
:10097000013025181B4C281C216803F0DFFF20687C
:1009800003F0FEFF01302D186168281C03F0D6FF2C
:10099000606803F0F5FF144B01302C181D68134BF1
:1009A000E41B18680290FFF7B0FC4523391C029045
:1009B000A2B20093E8B202AB00F0CAFB01220C4BDA
:1009C000301C1A6003F0DCFF311C421C094802F0A5
:1009D000CAFAFFF79DFF084B9D44F0BD04FAFFFFE4
:1009E0006E5A0000080000100400001044080010B7
:1009F0006C08001048080010FC0500007FB5051CBD
:100A00000420FFF77FFC02AC2080281CFFF77AFC53
:100A10000A4B60801D680A4B18680A4B03901E88B9
:100A2000FFF773FC00960390211CE8B2042203AB8D
:100A300000F08EFBFFF76CFF7FBDC0460400001086
:100A4000440800106808001073B5051C0E1CFFF761
:100A500023FF281C02210C4A012300F0F1FAC4B242
:100A6000AC420AD16B46DD1D201C0A212A1C00F075
:100A7000F3FC2B78222BF5D101E001246442034BD7
:100A80001C60034B1E6073BD38C7000004000010DB
:100A90005C080010F0B5654B89B01B68644D002BF5
:100AA00020D0644B1A681C1C042A1BD9624B1B689B
:100AB000032B07D0052B05D0012B07D15F48FFF78B
:100AC00039FF03E05E4B1888FFF798FF00235D4A6B
:100AD0002360136801331360042B03D9FFF7DCFE96
:100AE00001232B700F26584F0A213B680393574B65
:100AF0001C6802ABE4B2F618201C321C00F0ACFCFF
:100B0000012802D0012464421DE03378222BF9D160
:100B1000122602ABF618201C0921321C00F09CFCA6
:100B20000128EFD13388002BECD006AB0093201CBA
:100B30000399474A07AB00F0A5FB30800798FFF701
:100B4000EBFB3488079002AB1B8A079A0393414B57
:100B50003E681B689A4266D13088FFF7DAFB364F51
:100B60003B685A1E012A03D869463B4A898911808D
:100B700080B205284BD0062838D0032853D13088BE
:100B8000FFF7C7FB30807088FFF7C3FB3B6882B27A
:100B9000A4B27280032B11D0052B01D0012B42D1BE
:100BA000012A09D103233B60254B301D211F1A80E8
:100BB000FFF76EFCFFF79AFE708825E0204980B2AF
:100BC0000B88043C0133984206D10A80301D211C59
:100BD000FFF75EFCFFF78AFE7088FFF70FFF1F4BE1
:100BE0009C4220D8FFF758FE02231BE0012B06D0C1
:100BF000022B18D104233B60FFF778FE13E0052396
:100C00003B60FFF773FE0020FFF7F8FE0BE0308833
:100C1000FFF77FFB30807088FFF77BFB7080FFF76A
:100C20003BFE01232B70287809B0F0BD740800103A
:100C300062080010640800106C08001048080010DA
:100C400060080010700800105C080010040000101C
:100C5000EA0500004408001068080010FF010000C9
:100C6000002208B5034B1860034B081C1A70FFF7ED
:100C700061FE08BD4408001062080010044B1B68A8
:100C8000002B03D0034A1368013313607047C0463A
:100C9000740800106408001037B5164C051CA368D2
:100CA000984723699847FF23226A1B04002A02D031
:100CB000626A002A0BD12B40180CE369984728047C
:100CC000E369000E9847E8B2E369984708E02B40D3
:100CD00001A81B0C03702B0A4370857003219047F9
:100CE000A3699847051C63699847E3689847281CDF
:100CF0003EBDC04614000010F0B51A4C85B0A36884
:100D0000061C0F1C98472369984704210B1C33438A
:100D10000193FF25FF23626A1B042D02002A0FD1D5
:100D20003340180C3540E3699847280AE36998472F
:100D30006B461879E3699847381CE36998470BE0DC
:100D4000334003A81B0C03706B4635401B792D0AFA
:100D500045708370C770904763699847E368984708
:100D600005B0F0BD14000010F7B51A4C171CA368AD
:100D7000061C0D1C984723699847FF23226A1B0411
:100D8000002A02D0626A002A12D13340180CE369AB
:100D900098473004000EE3699847F0B2E36998473A
:100DA000EF19BD4211D0A369984728700135F8E7C3
:100DB000334001A81B0C0370330A43708670032173
:100DC0009047281C391C236A984763699847E36851
:100DD0009847F7BD14000010F0B51F4C85B0A3680C
:100DE000051C171C0E1C9847236998470420FF23F5
:100DF000626A284301901B04002A15D12B40180C6D
:100E0000E3699847FF231B021D40280AE3699847BE
:100E10006B461879E3699847F719BE4216D03078C7
:100E2000E36998470136F8E72B4003A81B0C0370D1
:100E3000FF231B021D406B461B792D0A83704570F2
:100E400003219047301C391C636A984763699847AF
:100E5000E368984705B0F0BD14000010F8B5802392
:100E60000025400108309B01C7180133FF33C41827
:100E7000381CFFF711FF000286B2201CFFF70CFFA1
:100E80003618B6B2002E09D0381CFFF705FF000255
:100E900085B2201CFFF700FF2D18ADB2B542E7D197
:100EA000281CF8BDF8B598230025400108309B01A7
:100EB000C7180133FF33C418381CFFF7EDFE0002DA
:100EC00086B2201CFFF7E8FE3618B6B2002E09D015
:100ED000381CFFF7E1FE000285B2201CFFF7DCFEA4
:100EE0002D18ADB2B542E7D1281CF8BDF7B5002AE0
:100EF00027D090238400651C9B01ED00EF18381C5F
:100F000000920191FFF7C8FE94239B01ED18061C87
:100F1000281CFFF7C1FE36023618B6B20234300282
:100F2000E40000190199009AFFF756FF009B381C56
:100F3000F618B6B2310AFFF7DFFEF1B2281CFFF750
:100F4000DBFEF7BDF7B5002A27D0A0238400651C7F
:100F50009B01ED00EF18381C00920191FFF79CFEF9
:100F6000A4239B01ED18061C281CFFF795FE3602F2
:100F70003618B6B203343002E40000190199009A21
:100F8000FFF7F2FE009B381CF618B6B2310AFFF7E5
:100F9000B3FEF1B2281CFFF7AFFEF7BDF8B5A023F2
:100FA00045019B010835EE18301C0F1CFFF774FE3D
:100FB000A4239B01ED18041C281CFFF76DFE2402DE
:100FC0003F183C19A4B2301C210AFFF795FE281CDB
:100FD000E1B2FFF791FEF8BDF8B5FF23082826D847
:100FE000450108356F1CFF37041C1021381CFFF722
:100FF00083FE381CFFF750FE061EFAD180239B00AB
:10100000E8181F21FFF778FE0122A24009490B884A
:1010100093430B80084B6200D652084B1E55C023E9
:101020009B00E818FFF738FE0028F8D1012358B2DA
:10103000F8BDC0467A080010840800107C08001033
:10104000F7B5051C0191171C1C1CFF20082D6FD83B
:101050000B1C013BDBB20438032B69D801229A40F8
:10106000131C0B22134263D0062301381C425FD1AC
:10107000002C15D0012902D0022905D010E021232F
:10108000FA201C420CD153E0A30603D563B2FA2028
:10109000002B4DDAE30603D563B2FA20002B47DAC2
:1010A000281CFFF799FF0F23211C6E019943019B18
:1010B00008361943301CFFF71FFE002F08D11D4AC8
:1010C0001D4917887B1C9BB28B4200D11B4B1380A0
:1010D0008023DB00390AF018FFF70EFEA023F9B2D7
:1010E000DB00771CF018FF37FFF706FE381C0121E4
:1010F000FFF702FE381CFFF7CFFD0028FAD10123CD
:101100001C40AC40AB400E4A11880C430D49148082
:101110000A889A430A800C4A6B0098520B4B585528
:10112000C0239B00F018FFF7B7FD0028F8D0E8B205
:1011300040B2FEBD10000010F0FF000000C0FFFF35
:10114000780800107A080010840800107C0800104D
:10115000F0B585B01F1C0AAB1B88051C0391161C3B
:10116000019308287BD844010834201CFFF794FD24
:101170000F231840022801D0042872D1002E72D00B
:101180003B68002B71D0019B002B70D0C0239B00CB
:10119000E318181C0293FFF77FFDDF232238184263
:1011A00067D1C0231B010422E018391CFFF714FE8D
:1011B000019B190A80235B01E018FFF79DFD6B4638
:1011C000197988235B01E018FFF796FDF8235B018E
:1011D000E018FFF761FD800280B2031CB04200D925
:1011E000331C9EB20123AB400193281CFFF736FE4F
:1011F000071C0298FFF750FD00283CD0204B019AB5
:101200001B88134203D00020BE4202D935E0BE4203
:10121000EBD8281C651C0399321CFF35FFF766FECE
:10122000281C2021FFF768FD281CFFF735FD00284A
:10123000FAD180239B00E518281CFFF72DFD102113
:10124000084204D0281CFFF757FD301C15E0082188
:101250000842EED0281CFFF74FFD0D200CE00120C6
:101260000AE0052008E00E2006E00C2004E00B2038
:1012700002E0072000E00420404205B0F0BDC04677
:1012800078080010F0B587B0041C0391171C029376
:10129000082800D9CBE043010833181C0093FFF75E
:1012A000FBFC0F23061C0340022B02D0042B00D0B2
:1012B000BFE0002F00D1BEE0624B6200D35A002B8A
:1012C0001AD10133A3400193201CFFF7EBFDC0228C
:1012D000009B9200051C9818FFF7DEFC002800D147
:1012E000ABE0594B019A1B88134202D0281E04D14F
:1012F000A5E0002DE8D000E000250022534B1A5550
:1013000007236200334001924E4E022B02D0042B81
:1013100037D06CE0019BF35A002B30D1201C04A97C
:101320000822FFF70FFE009B40215D1CFF35281CA3
:10133000FFF7E2FC281CFFF7AFFC0028FAD104AB52
:10134000029A1B7804A9137004AB5B78537004AB4A
:101350009B78937004ABDB78D37004AB1B7904AA41
:1013600052791B02D3180C9A138004AB9B79C9796C
:101370001B026200CB18B3528022344B1A55630013
:1013800029E0019BF35A002B24D1201C04A902223E
:10139000FFF7D8FD009B40215D1CFF35281CFFF79F
:1013A000ABFC281CFFF778FC0028FAD104AB1B78B3
:1013B00004AA52781B02D318019A9BB2B352244A52
:1013C000934204D9201CFFF707FE224837E0802211
:1013D0001E4B1A55019BF35A1D1CBB4200D93D1CE4
:1013E000ADB2201C03992A1CFFF7ACFD05E0201CC0
:1013F000291CFFF7D3FD019BF552009F40210137C7
:10140000FF37381CFFF778FC381CFFF745FC002835
:10141000FAD16200B35A5B1B9BB2B352002B04D0CB
:1014200001210A4A135D0B431355281C07E00120D4
:1014300004E0052002E00E2000E00420404207B056
:10144000F0BDC04684080010780800107C08001029
:10145000EA05000017FCFFFF70B5FF2308287AD8C3
:101460000C2977D8041C081C161C04F0DDFA070EA2
:101470001114212973394B5D4F5767006001083003
:10148000FFF70AFC0F23984346E06401334B40E02A
:101490006401334B3DE0902365015B010835E8189A
:1014A000FFF7FAFB98235B01E818FFF7F5FB3070B4
:1014B0002C4B6401E018311C0422FFF755FC3BE083
:1014C000802364015B010834E018FFF7E5FB882303
:1014D0005B01051CE018FFF7DFFB2D0228180FE069
:1014E00064010834201CFFF7D7FB0F2318400128A4
:1014F00001D0FB232FE0BC239B01E018FFF7CCFBBE
:10150000308019E0201CFFF7A9FCF9E7C223640131
:101510009B00E018FFF7C0FB30700DE06001083061
:10152000FFF7BAFB012803D1201CFFF7BBFCE7E75C
:101530000D4B6400E35A338001230CE06001083056
:10154000FFF7AAFB0F230340012BD2D1074A125DFC
:10155000327000E0FE2358B270BDC046081600008D
:1015600008150000080C0000840800107C0800101A
:1015700070477047704770470078C0B2704701707D
:10158000704700207047704770477047064B00282F
:1015900001D0002904D1054A1A61054A5A6101E0C7
:1015A000186159617047C04614000010751500009D
:1015B0007715000010B5094B1C881A1CA40500D42F
:1015C000FEE7002801D0002904D1054B9361054BAB
:1015D000D36101E09861D96110BDC04614000010CC
:1015E000831500008715000010B5094B1C881A1CD4
:1015F000A40500D4FEE7002801D0002904D1054B42
:101600001362054B536201E01862596210BDC04677
:1016100014000010891500008B150000F0B590270C
:101620008026A025F02487B03F01381C04A976004D
:101630000622FFF799FBED00301C01A90422FFF7F9
:1016400093FB2401281C02A90422FFF78DFB04222E
:10165000201C03A9FFF788FB80210020FFF74CFB2B
:101660000020FFF719FB381C04A90622FFF7B4FB82
:10167000301C01A90422FFF7AFFB281C02A9042299
:10168000FFF7AAFB201C03A90422FFF7A5FB07B064
:10169000F0BD000070B5051C0C1CFFF7BFFF002D4E
:1016A00002D1002C1AD130E0291C2A1C0023083159
:1016B00010780132C318DBB28A42F9D15BB200263E
:1016C000102B01DDFF2021E0114B7001A95DC01836
:1016D0000136FFF711FB082EF6D1E2E7211C221C90
:1016E0000023083110780132C318DBB28A42F9D1E5
:1016F0005BB2102BE6DC0025064B6801615DC0186B
:101700000135FFF7F9FA082DF6D1002040B270BD7F
:10171000081F0000081E0000F02110B50140041C45
:10172000A8204001FFF7E8FAB820210A4001FFF79E
:10173000E3FA10BDA82010B54001FFF7ADFA041C74
:10174000B8204001FFF7A8FA000283B2F020204041
:10175000181880B210BD10B5C1B2041CB0204001F1
:10176000FFF7CAFAC020210A4001FFF7C5FA10BDF1
:10177000B02010B54001FFF78FFA041CC0204001D3
:10178000FFF78AFA0002001980B210BDB82008B530
:101790008001FFF781FA0123184008BDB82008B581
:1017A0008001FFF779FA30231840431E984140B278
:1017B00008BD10B5B824A401201CFFF76DFA7F23E3
:1017C000011C201C1940FFF797FA201CFFF764FA50
:1017D000802149420843C1B2201CFFF78DFA10BD99
:1017E00008B5017801394B42594143788901012BF1
:1017F00001D137330CE0C2788378012A05D1012B5F
:1018000001D1173304E0082302E0012B01D10F338B
:101810001943B8208001FFF76FFAFFF7CAFF08BD30
:1018200010B5041CB8208001FFF736FA01238209A5
:101830001A40227038221040202802D0904200D056
:1018400000236370031C103BDBB2102B08D801226D
:10185000111C99400B1C0A490B4201D0A27001E0F7
:101860000023A3700838C0B2182806D801231A1C18
:101870008240101C034A104200D10023E37010BDC7
:10188000010101000100010110B5041CB820800114
:10189000FFF702FAFF2342061BD538218843C0B266
:1018A0000143012C01D130210143B8208001FFF711
:1018B00023FAFFF77EFFB8208001FFF7EDF9302211
:1018C000012C00D03822031C1340584243415B4294
:1018D000DBB258B210BD000038B5031CFF200F2B3F
:1018E00065D8181C0C1C04F09FF8080B1612191D63
:1018F000202C39474A4E6152565DFFF78FFE55E066
:10190000002C00D00831201CFFF7C4FE4FE00888EF
:10191000FFF702FF4AE0FFF70DFF1DE00888FFF721
:101920001AFF43E0FFF724FF16E0982009884001E2
:10193000090AFFF7E1F9A02021784001FFF7DCF95F
:1019400034E098204001FFF7A7F9051CA0204001D2
:10195000FFF7A2F92D022818208027E00020154B60
:101960009A780A70DA784A701A798A705A79CA7045
:101970009B7948710B711AE0FFF71BFF16E0081CFA
:10198000FFF72EFF12E0081CFFF74AFF0EE0087871
:10199000FFF77AFF0BE0FFF701FFC0B2FF2804D189
:1019A000FF2004E0FFF7F2FEF7E72070002040B2CE
:1019B00038BDC0461400001010B5041C9020211C36
:1019C00000010622FFF708FA211C80200E3140009A
:1019D0000422FFF701FA211CA0200A31C0000422D2
:1019E000FFF7FAF9F020A11D00010422FFF7F4F936
:1019F000A27C064B1A70E27C5A70227D9A70627D3E
:101A0000DA70A27D024B1A7010BDC0469508001016
:101A10009408001010B5041C9020211C000106221F
:101A2000FFF7A2F9211C80200E3140000422FFF7AD
:101A30009BF9211CA0200A31C0000422FFF794F971
:101A4000F020A11D00010422FFF78EF9064B1A7841
:101A5000A2745A78E2749A782275DB786375034B26
:101A60001B78A37510BDC04695080010940800109F
:101A700038B53A23051C9D43C533002D09D1041CFC
:101A8000281CFFF709F92043C1B2281CFFF734F9DD
:101A90002B1C58B238BD08B50020FFF7FDF808BD73
:101AA00010B5041C0178D8204001FFF725F9C820A3
:101AB00061884001090AFFF71FF9D020A178400191
:101AC000FFF71AF910BD38B5051CD8204001FFF703
:101AD000E3F82870C8204001FFF7DEF8041CD0208E
:101AE0004001FFF7D9F824022018688038BD10B5EE
:101AF000FF2305281ED80C1C03F096FF03070B10CC
:101B00001418081CFFF758FF13E0081CFFF782FFAA
:101B10000FE00878FFF7ACFF031C0BE0FFF7BBFFFB
:101B2000207006E0081CFFF7BBFF02E0081CFFF76F
:101B3000CAFF002358B210BD004870479908001032
:101B4000F8B55E230025644C5B42601D6349192291
:101B50006570A570E5702571237001F004FA631CAF
:101B6000DD77231CC0210833D977231CA822283312
:101B7000201C1A700B2329300370201C64272A3084
:101B80000770201C2B300170201C2C300270201C90
:101B90002D300370201C633F2E300770271CFF2060
:101BA0002F373870271C30373870271C3137387082
:101BB000201C32300570201C012733300770201C98
:101BC00034300570201C35300170211C36310A700C
:101BD000221C37321370231C652638331E7078217F
:101BE000231C13223933494219705A70231C3B338A
:101BF00019705A70231C3D331D705D70231C2B3AE5
:101C00003F331A701B325A70231C41331D70231C42
:101C100042331D70231C221C43331D702D2344327C
:101C20001370221C4532E577A6771370221C4632CA
:101C30001370221C47321370231C48331D70231C61
:101C400049331D703E22231C52424A331D70DD7001
:101C50005A709F70231C5D3E4E331E70231C4F3301
:101C60001D70231C50331F70231C3A1C201C1B4F5B
:101C700051331A371D70391C0932523001F073F993
:101C8000201C391C0A225C3001F06DF9231C6633DC
:101C90001D70231C67331D70231C68331E70231CAA
:101CA00069331E70231C6A331E70201C231C291CE0
:101CB0006B3332226C301E7001F059F9231C012263
:101CC0009E331A70221C2B239F321370221CA134C6
:101CD000A03213702370F8BD990800107E5A0000DE
:101CE00010B50C4CA2220120211CFEF719FB6378D1
:101CF00022781B02134306D1FFF722FF0120211C8B
:101D0000A222FEF72FFB6523A37700230134A377DC
:101D1000E37710BD9908001008B501200249A222FE
:101D2000FEF720FB08BDC0469908001008B501F079
:101D30001AF908BD10B5194C86B0211C06222131B4
:101D4000684601F010F96B46211C981D27310422CA
:101D500001F009F9211C0E202B310422684401F006
:101D600002F9211C0A202F310422684401F0FBF8FB
:101D7000211C1220683168440422663401F0F3F813
:101D80002378002B01D0022300E001236A46694634
:101D900000209375FFF7ABFE06B010BD9908001048
:101DA000031C303B021CD8B2092805D9073BD8B226
:101DB0000F2801D9573AD0B2704738B50D1CFFF73C
:101DC000EFFF041C281CFFF7EBFF24010019C0B231
:101DD00038BD0000F0B5204C85B0A31CDB7F002B84
:101DE00007D1E31CDB7F082B03D1231DDB7FDC2B1A
:101DF00030D01A4801F01EFE01AE1948311C0122F4
:101E000001F042F83378532BF6D1164801F012FE58
:101E1000351C04AF291C0122114801F035F829783E
:101E20001148013501F006FEBD42F3D100256B00DB
:101E3000F05CF3185978FFF7C0FF2B1C01352133F4
:101E4000E054072DF3D1FFF77BFEFFF765FF07484E
:101E500001F0F0FD05B0F0BD99080010115B000025
:101E6000008000401E5B0000205B0000235B000040
:101E7000BFF34F8F024A034BDA60BFF34F8FFEE789
:101E80000400FA0500ED00E00B1C10B55C1AA4B2CA
:101E9000944204D21C7844401C700133F6E710BD14
:101EA0000B1C10B55C1AA4B2944204D21C784440B6
:101EB0001C700133F6E710BDF0B5DFB0141C061C32
:101EC0000D1CFFF739FE04AF03900B213A1C301CA8
:101ED000FFF7C2FAA379627939881B02134399424A
:101EE00057D10A2302AA9B180093301C05AB06A900
:101EF0000622FFF7C7F9607843B2002B05DA7F238B
:101F00003A88184006A9FFF7CBFF039F06A82137A0
:101F1000391C062201F008FE00283AD158235B4202
:101F20006371AD33A0712371391C062208A801F03A
:101F30001AF81E2002ABC0180399A22201F013F870
:101F4000607843B2002B05DA7F2308A91840A82245
:101F5000FFF79AFF211C072232A801F004F8C720DE
:101F600002ABC01808A9A82200F0FDFFA378002B3F
:101F700004D1281CFF21042200F0F9FF6B792A7993
:101F80001B0213430093301C32A9AF222B1CFFF716
:101F9000DFF85FB0F0BD0000F0B5474C0F1CA54462
:101FA0000290141CFFF7C8FD0B2105AA051C02981E
:101FB000FFF752FAA37902A9627989891B021343B8
:101FC000994274D10E2302AA9B180093029806AB83
:101FD0005DA9B922FFF756F9607843B2002B06DA03
:101FE0007F23184002AB9A895DA9FFF759FF2B1C8C
:101FF00021335DA8191C0622039301F095FD0028EA
:1020000055D17420291C02ABFF30C018523102F0A8
:1020100073FC061E4BD1842102ABFF31C918281C6A
:10202000A222FFF783FE6523AB776B1CEE77DE778A
:10203000FFF772FE58235B426371AD33237103993E
:102040000622A67107A800F08EFF1A2002ABC01866
:10205000291CA22200F087FF607843B2002B05DA2A
:102060007F2307A91840A822FFF70EFF211C072293
:1020700031A800F078FFC32002ABC01807A9A8223E
:1020800000F071FFA378002B04D1381CFF2104223B
:1020900000F06DFF7B793A791B021343009331A95D
:1020A000AF223B1C0298FFF753F8FFF7E1FE8D23A8
:1020B0009B009D44F0BDC046CCFDFFFFF0B59DB038
:1020C000051CFFF739FD071C281CFEF785FF0AAC2D
:1020D00000230221284A281CFEF7B2FF211C4522BA
:1020E0000020FEF71DF92D23062600226B445A70AE
:1020F0001E70391CD2232131E37004A87D3B321CB1
:10210000237100F030FF607843B2002B05DA7F23A3
:1021100004A91840321CFFF7B7FE211C072206A8AD
:1021200000F021FF1F2004A96844062200F01BFFD5
:10213000A378002B06D12F336B44181CFF210422F7
:1021400000F015FF2F236B44191C03A804220A2456
:1021500000F009FF33216C446944201C022200F086
:1021600002FF2388281C009306A90D2203ABFEF76B
:10217000EFFF1DB0F0BDC04696190000F0B50D246C
:10218000B9B002ABE4180A21221C071CFFF764F95E
:102190002378002B00D192E2222B00D094E20E246F
:1021A00002ABE418381C0921221CFFF755F92388DB
:1021B000062B00D888E20CAE09AB08AC0093381CA3
:1021C000231C311C0722FFF75DF83378A52B00D0C4
:1021D0007AE23379AA2B00D076E20F22F378934388
:1021E000C02B00D111E10AD8A02B12D0B02B00D007
:1021F0006AE2381C211C321CFFF75EFE64E2E02B11
:1022000000D1A2E1F02B00D111E2D02B00D05BE293
:1022100001E1FFF791FC07AD2A1C041C0B21381CBF
:10222000FFF71AF973682A881B021B0C9A4200D028
:102230004AE2F078A138042800D945E203F0F4FB23
:102240009F0319708D000AAB0093381C0EAB24A9B4
:102250000722FFF717F8707843B2002B05DA7F23C7
:102260002A88184024A9FFF71BFEA11C24A80322DA
:102270006EE00AAB0093381C0EAB24A90C22FFF7CA
:1022800001F8707843B2002B05DA7F232A881840C2
:1022900024A9FFF705FEA31CDD7F24AB1A78AA4210
:1022A00000D911E2E21CD07F5A78824200D90BE2B9
:1022B000221DD27F02929A7802998A4200D903E2C3
:1022C000621DD27F0392DA7803998A4200D9FBE13A
:1022D000A21DD27F94461A79624500D9F4E1E21D2D
:1022E000D27F5979914200D9EEE19979A94200D281
:1022F000EAE1DD79854200D2E6E1187A0299884266
:1023000000D2E1E15B7A03998B4200D2DCE124AB9D
:10231000997A614500D2D7E1DB7A93422FD2D3E19B
:102320000AAB0093381C0EAB24A92122FEF7AAFFAA
:10233000707843B2002B05DA7F232A88184024A93D
:10234000FFF7AEFD24A802F01BFB611D021C24A8B0
:1023500001F0EAFB002812D0B6E10AAB0093381C6A
:102360000EAB24A93422FEF78DFF707843B2002B08
:1023700005DA7F232A88184024A9FFF791FD2D2331
:1023800002AA9B180C2500221D705A705523A11C0F
:10239000033212A8337100F0E6FD211C432002AB8A
:1023A0001E31C018032200F0DEFD211C462002ABC6
:1023B000C0182131062200F0D6FD707843B2002B00
:1023C00005DA7F2312A918402A1CFFF75DFD311C96
:1023D000072224A800F0C7FD8F2002ABC01812A965
:1023E0000C2200F0C0FDB37808AC002B04D1201CF7
:1023F000FF21042200F0BBFDA388381C009324A910
:102400001322231CFEF7A4FE5EE1381C211C321CA3
:10241000FFF7C2FD58E1FFF78FFB06AD2A1C041C35
:102420000B21381CFFF718F873682A881B021B0C55
:102430009A4200D048E1122302AA9B180093381C4C
:1024400007AB24A94F22FEF71DFFF378D12B00D054
:102450003AE1707843B2002B05DA7F232A881840CE
:1024600024A9FFF71DFD231C213324A8191C0622D3
:10247000039301F059FB002800D025E1211C02AB99
:102480008F305231C01802F037FA0290002800D085
:102490001AE1311C072212A800F065FD472002ABAB
:1024A00008ACC018211C062200F05DFD4D209F21C4
:1024B00002ABC918C018042200F055FD5120A32119
:1024C00002ABC918C018022200F04DFD5320A5210F
:1024D00002ABC918C018322200F045FD12A94522EE
:1024E0000298FDF73FFF2D2302AA9B186A46062596
:1024F000127A1D705A7055230AA803992A1C337149
:1025000000F031FD707843B2002B05DA7F230AA971
:1025100018402A1CFFF7B8FC311C07220EA800F057
:1025200022FD372002ABC0180AA9062200F01BFDCD
:10253000B378002B04D1201CFF21042200F017FDEA
:10254000A388381C00930EA96BE0FFF7F5FA12235D
:1025500002AA9B181A1C051C0B21381CFEF77CFFD5
:10256000736802AA528A1B021B0C9A4200D0ABE08D
:1025700007AB0093381C0AAB24A91722FEF782FE92
:10258000707843B2002B08DA7F2302AA18406D3B13
:102590009B181A8824A9FFF783FC2B1C213324A83D
:1025A000191C0622029301F0BFFA002800D08BE02C
:1025B000291C8F3002AB5231C01802F09DF900285F
:1025C00000D081E02D23062502AA9B181D705870AB
:1025D00055230EA802992A1C337100F0C4FC7078B0
:1025E00043B2002B05DA7F230EA918402A1CFFF7FF
:1025F0004BFC311C072212A800F0B5FC472002ABAF
:10260000C0180EA9062200F0AEFCB378002B04D14E
:10261000201CFF21042200F0AAFC381CA38812A968
:1026200000930D22231CFEF793FDFFF721FCFFF71B
:1026300083FA122302AA9B181A1C051C0B21381CB2
:10264000FEF70AFF736802AA528A1B021B0C9A4209
:102650003AD107AB0093381C0AAB24A91722FEF726
:1026600011FE707843B2002B08DA7F2302AA1840CB
:102670006D3B9B181A8824A9FFF712FC2B1C2133F1
:1026800024A8191C0622029301F04EFA00281BD13F
:10269000291C02AB8F305231C01802F02DF9039083
:1026A000002811D1FFF74CFAFFF736FB2D2302AAC1
:1026B0009B186A460625127B1D705A7088E7381CE5
:1026C0000221024AFEF7BCFC39B0F0BD96190000A9
:1026D00010B5024B1B68984710BDC0466C0900102E
:1026E00010B5024B1B68984710BD00006809001028
:1026F00072B60348006885460248006887467047FE
:10270000006000000460000010B592B0002069462F
:102710004522FDF705FE6B461B780020A52B24D132
:102720006B46587B9B7B00061B0418436B461B7C47
:10273000132118436B46DB7B69441B021843FEF7E9
:102740008FFAFEF7A7F9041EFBD002280CD1012056
:10275000FFF7B4FC00214522684600F008FC002089
:1027600069464522FDF7FEFD201C12B010BD000099
:1027700010B500F021F900F0ABF80020012100F0C5
:1027800079F80120002100F075F8FFF7A9FAFFF7AA
:1027900021FBFEF743F8FDF7E3FEFDF725FFFDF70C
:1027A0008DFFFFF7C7FA02201049FEF74DF9FFF73A
:1027B000ABFF041C00F084F8002808D0012C06D0E0
:1027C000C023DB011B68013301D0FFF791FF084CE8
:1027D0002378002B03D10120FFF7D0FCF7E7FEF7A9
:1027E00059F90028F3D000232370F0E77009001096
:1027F0003B09001008B500F095F808BD07B56B4619
:10280000D91D08700122024800F01FFB07BDC04619
:102810000080004070B5151C0C1C8E18B44204D00A
:102820002078FFF7EBFF0134F8E7281C70BD0000AB
:1028300010B50E4C0021201C1222012300F038F9A3
:10284000201C0B4C13220123002100F031F9201C25
:1028500000F0DAFAE121201C490200F027FB0323F3
:10286000E3607E33A360013B236310BD004004405E
:102870000080004001280AD8054B064A1B5C125C08
:102880005B019B180120A0224140D205995470475A
:102890002A5B0000305B000001280CD8064A074B79
:1028A000115C01228A408C211B5C09015B18A0216C
:1028B0009B00C9055A507047305B00002A5B00003E
:1028C000024B1878431E9841C0B270473700005041
:1028D00038B5A024E405FFF7ABFF201C00F0E0F8BA
:1028E000802280219201A35809040B43A3500023A6
:1028F0008021094DE375625909020A436251221C85
:102900002F32137005480121172200F0D1F86259C7
:10291000034B1340635138BD0420000000400440C5
:10292000FFFF7FFF37B5202000F034FA002301932A
:10293000019BFF2B02DC019B0133F8E7012000F033
:1029400043F8802000F018FA2323164C8020A3605F
:1029500000F020FA0123E2681A42FBD00320022192
:10296000104A00259367104A104C136983430B43A8
:10297000136100F033F88022E36F52021343E367E0
:102980000B4AAB00995CD3185A780A485B8801352A
:1029900000F08EF8142DF3D18022E36FD20413439C
:1029A000E36737BD0080044000C00340048004405A
:1029B000345B00000040044008B500F067F8014BAC
:1029C000186008BD5C0F00100022034B18645A64A5
:1029D00001325A647047C046008004400022034B15
:1029E00018675A6701325A677047C0460080044032
:1029F00008B5074B596A1F23CA05120F1940054B2A
:102A0000920001314900D058FFF76AFE08BDC04668
:102A100000800440845B0000064B1A6C03231340C3
:102A200005D00020012B03D1034B186800E00348B8
:102A30007047C046008004402C5B0000001BB700BC
:102A4000044B10B59C68FFF7E7FF1F2323400133B9
:102A5000584310BD0080044008B50A4B1A6F032389
:102A60001340022B06D0032B07D0012B08D1FFF710
:102A7000D3FF06E0FFF7BCFF03E0FFF7E1FF00E054
:102A8000014808BD00800440001BB70008B5FFF7EF
:102A9000E3FF024B996FFFF723FE08BD008004405F
:102AA0004021024AD36F0B43D36770470480044030
:102AB000002900D018329200135070474360002361
:102AC000016082600361C3600120704738B5041C57
:102AD000C268056863680069121A00209A420CDA1D
:102AE000E068013B1840A368A2684343E81800F07F
:102AF0003AFA0120E3680133E36038BD38B5C568B0
:102B00000369041C026800209D420ED06368081C03
:102B10002169013B0B40A1684B43D118A26800F02A
:102B200022FA012023690133236138BD10B5044B1B
:102B3000046809062340090C19430160026110BDB5
:102B4000FF00FFFF031C70B50420DC68204001D0AB
:102B50009868F9E703241C621D680C342C40051C9E
:102B6000072C01D8041C22E0041C944211D2DE6818
:102B7000B60705D5944203D20E8802349E60023116
:102B80009E69F60723D4DE687607EED59E68023587
:102B9000F9E79542EBD319E0954217D2DE68B60704
:102BA00008D49E69F60712D4DE68760709D49442E9
:102BB000F4D3F1E79442F4D20E7801349E600131EF
:102BC000EFE79542F3D29E680135EDE7201C70BD1A
:102BD000031CF7B501910420DC68204001D09868FF
:102BE000F9E703241C621D680C342C40061C072CDA
:102BF00001D8041C35E0041C96421ED2DD68A907EA
:102C000004D5964202D2214D02369D609D69E907A6
:102C10003BD4251C01992F1BCF19D968490709D529
:102C2000954207D29F680199BC460F1B61467953B4
:102C30000235EFE701972C1CDEE79442DED323E058
:102C4000944221D2DD68A9070ED49D69E9071CD4FE
:102C5000251C01992F1BCF19D96849070AD42C1CB0
:102C600001979642EED3EBE79642EED2FF2501366E
:102C70009D60EAE79542F2D299688C4601990F1B54
:102C8000614679550135E4E7201CFEBDFFFF0000D9
:102C9000042243689343002900D1134343607047E3
:102CA000F7B5061C0191FFF7D7FE134B9E4201D1E9
:102CB000124B00E0124B1968FFF712FD071C0120B0
:102CC000022540420024019B98420ED9631C191C26
:102CD000381C69430093FFF703FD019B9842F2D92A
:102CE000009CFF2CEFD90235ECE7301C2A1C211C7C
:102CF000FFF71CFFF7BDC04600000440948004406D
:102D00009C80044070B5164C0B23A04200D00733C2
:102D10000122161C9E40331C124DE96F0B43EB67DA
:102D2000114BA04203D1114900240A6002E00224A1
:102D30000F490A600122A2405968914359605968BD
:102D40000A435A60042243680A4993434360036874
:102D5000FB329343F83A13430360FFF7A1FF70BDC2
:102D6000000004400480044000800440948004403B
:102D70009C800440A08601008E22054992008B5859
:102D80001843ED23C0B21B02184388507047C04659
:102D9000008004408E21FF2210B5054C8900635845
:102DA000134002409343ED2212021343635010BDBF
:102DB000008004400A4A0A23904209D0094A033B92
:102DC000904205D0084BC018434243410920C31A22
:102DD00001209840031C0549CA6F1343CB67704715
:102DE0000080014000C000400000FFBF048004409C
:102DF0000022436842600132826001324260826890
:102E0000002AFCD14360704710B58024074B640151
:102E1000191DCA6F98332243CA6701221A6007231B
:102E20008360043BC3600D33836210BD00800440A7
:102E3000002310B5934206DA4469A40603D5CC5C9E
:102E400001330460F6E7181C10BDF8B5071C0E1C12
:102E5000141C0025002C08DD311C221C381CFFF737
:102E6000E7FF241A2D183618F4E7281CF8BD0023B4
:102E700010B5934206DA4469E40703D50468CC54DC
:102E80000133F6E7181C10BDF8B5071C0E1C151C05
:102E90000024AC4208DA311C2A1C381CFFF7E7FF7B
:102EA0002D1A24183618F4E7201CF8BD70B50E1C36
:102EB000041CFFF7D1FD3101051CFFF711FC802236
:102EC000011CE3680E1C1343E360FF23000A1E404D
:102ED000034026606360E368281C9343E360FFF7C8
:102EE000FFFB70BD37B5041C0D1C6369DB0707D5FC
:102EF0006A462368D11D281C0B70FFF7E7FDF4E735
:102F000037BD73B5051C0E1C6B699B060AD56B4655
:102F1000DC1D301C211CFFF7F1FD002802D02378B6
:102F20002B60F1E773BDF8B502264368041C0D1C45
:102F3000171C334209D0111CFFF7E3FFFA683B6905
:102F40009A4202D16368B3436360291C201CFFF7D7
:102F5000C9FFF8BD08B50020011C021C00F092FD5D
:102F6000FFF706FC08BD08B502F033FD08BD08B543
:102F700002F045FD08BD41180B78342B01DC002020
:102F80001CE0352B06D10B1C01331A78302AFBD0FC
:102F9000002AF4D00B1C013B1A78392A02D13022C6
:102FA0001A70F8E701321A700378302BE7D00B1A49
:102FB00003D40B7801398B70F9E70120704770B5A5
:102FC000051C0C1C8E1FB4420CD0281C0A21FFF7D4
:102FD0007FFB0A235B4243433035ED18013C6570AB
:102FE000051CF0E770BD00000EB410B591B013AB36
:102FF00004CB041C0021282206A80593FFF7B7FF85
:103000000A230993124B059A0893139B019200938C
:10301000104B06A802930D4B0B4A069400F0A2FD3C
:10302000089B041C013B0893002B03DB069A00233A
:10303000137003E0002006A901F0EEFC201C11B083
:1030400010BC08BC03B01847FFFFFFFFFFFFFF7F66
:10305000FFFFFF7F59300000F0B50E684C68A5B047
:1030600007920A93321C231C0C920D930B900D981F
:1030700043005B0D0F930F9D994B9D422AD1020394
:10308000079C051C0C980023120BE37002436E236F
:10309000002A14D16922637066232270A370002D68
:1030A00003DA904B2A9C236011E00A9DAD0704D4FB
:1030B0000A9C640708D58C4B07E08C4B05E0079C05
:1030C000612223706270A370894B2A9D2B600320BC
:1030D00000F080FC0B9D20239D432B1C0025412BE1
:1030E00000D15AE2301C211C704B6F4A02F0AAFB3F
:1030F000A84205D08020000601252418109500E084
:103100001090301C211C694B674A02F07FFB00289D
:1031100000D021E217AA211C301C01F08DFD179C64
:10312000189019912E20FF30604372494018FA21FF
:103130008900FFF7CDFA021B08905D485D4901F058
:10314000BBFD089C22902391002C05DA5A4A5B4B68
:1031500064421E921F9307E0089D594A594B1E92E4
:103160001F93002D16D02C1CE00709D52298239917
:103170001E9A1F9B01F0E0FF22902391012C09D0A1
:103180001E981F991E9A1F9B01F0D6FF64101E9077
:103190001F91E9E718981999229A239B02F090F859
:1031A0001A901B911A981B99474A484B02F04AFB08
:1031B000002813D01A981B99454A464B01F0BCFFD2
:1031C000434A444B089C1A901B9122982399013C36
:1031D000089402F075F822902391E3E71A981B995E
:1031E0003D4A3E4B02F0A6FB002813D01A981B99CB
:1031F000374A384B02F064F8354A364B089D1A902E
:103200001B91229823990135089501F095FF229092
:103210002391E3E71A981B9902F09AFA089C099007
:1032200063421194002C00DA1193099802F0E3FA3A
:10323000179B089DEA1A01F03FFD1C4B1A4A1A9091
:103240001B911C921D93002D56DA1B481B491E90A2
:103250001F91209221931E9E1F9F1E981F9900264A
:10326000321C3B1C02F0DCF8209C219D021C0B1C34
:10327000201C291C02F0C8F9114A124B2090219100
:103280001E961F971E981F9901F056FF021C0B1CDB
:103290000748084902F0C4F8094A0A4B02F010F83E
:1032A0002090219132E0C0460000000000000000A4
:1032B000000000000000F03F9A9999999999C93F40
:1032C000000000000000144000000000006AF84008
:1032D00000000000000024400000000080842E4117
:1032E000FF070000F45B00001C5B0000C45B0000F3
:1032F000295B000084EAFFFF089CC449C2481E9075
:103300001F9120922193002C00D17FE0119D0E95FA
:103310000E9CE40743D51A981B99209A219B1C9C6C
:103320001D9D129413951E9C1F9D209E219F01F0B0
:1033300003FF321C149015913B1C201C291C02F029
:1033400063F9021C0B1C1298139901F0F5FE021C84
:103350000B1C1498159902F057F91C901D911A989E
:103360001B991E9A1F9B01F0E7FE1A901B911A9E53
:103370001B9F1A981B990026321C3B1C02F050F828
:103380001C9C1D9D021C0B1C201C291C02F03CF9DE
:103390000E9D1C901D911A961B97012D36D0209ED4
:1033A000219F1E9A1F9B101C191C209C219D02F01E
:1033B0002BF9221C2B1C02F027F9021C0B1C301CC1
:1033C000391C01F0B9FE209021911E981F991E9A78
:1033D0001F9B01F0B1FE1E901F911E9E1F9F1E9805
:1033E0001F990026321C3B1C02F01AF8209C219DDC
:1033F000021C0B1C201C291C02F006F90E9C2090BC
:10340000219164101E961F970E9481E71A981B99BC
:10341000189A199B02F052FA002803D1099D013D28
:10342000099502E7189819991A9A1B9B01F0F8FF61
:1034300018901991189819991C9A1D9B01F0F0FF8A
:103440001890199118981999229A239B01F038FF26
:103450006F4A704B189019911898199901F06CFEE9
:10346000189019911898199902F072F9189E199FDD
:10347000041C02F0C0F9021C0B1C301C391C01F0AA
:10348000CFFF634A634B01F057FE189019911898CB
:10349000199902F05DF9061C002E03DA5E48013C22
:1034A0003618F9E75D4B9E4203DD5D49013476181D
:1034B000F8E7002C05DA099D574A013DA418099543
:1034C000F7E79C4205DD099D55480135241809950B
:1034D000F7E7099D534B9D4219DC201C5249FFF729
:1034E000F7F8099B0A277B43051C1B184E49301C23
:1034F0000993FFF7EDF84D4B5D43434364197C435B
:10350000089DF3183E1C24185E43013D22E0434B06
:103510000998984226DD0A21FFF7DAF80A277F4248
:10352000031C7B43EB183C4D09906B43E318181CBC
:103530000A210E93FFF7CCF8041C381C60430E9947
:1035400008186843301805300A21FFF7C1F8089DB4
:10355000061C0135089505E0052300265B4208930B
:10356000341C099607983025011C0570063109980E
:10357000FFF725FD0799201C0C31FFF720FD079967
:10358000301C1231FFF71BFD079C0023E574089DDA
:1035900023750535109CAD002543E80701D5244B64
:1035A0000AE00A9CA40704D40A9C640703D5214BB3
:1035B00002E0214B00E0214B2A9C2B982360012341
:1035C0009D43EB179B0F0B995D19AD1004686129A2
:1035D00011D007DC452900D188E0472967D041296F
:1035E00063D108E00B9A662A00D108E1672A5ED011
:1035F000652A5AD17AE00D9B0F9D1803000B002D10
:1036000020D00F496B1822E0000000000000144099
:103610000000000080842E4140420F003F420F0016
:10362000C0BDF0FF9F860100A08601006079FEFF0B
:10363000F45B00001C5B0000C45B0000295B000021
:1036400001FCFFFF0C9A0F9B024300D0C64B002CDD
:1036500010D10A9D2D070DD40B9C612C01D1C349BB
:1036600000E0C3490F9A501E824130320798FFF79D
:10367000BBFC11E00B9D612D01D1BE4900E0BE49AC
:103680000F9A0190551EAA410C9D0293303200956D
:103690000798231CFFF7A8FC0D99002901DBB74B05
:1036A00000E0B74B2A9C236094E167200B900A99B5
:1036B00080231B0119430A91002C02DC2B9C01235F
:1036C00023602B9C12212368112B00DC591C0798C6
:1036D000FFF751FC2B9C2D1823689D4200DA88E0EF
:1036E0002B9C013B23600B9C023C0B942B9C23687E
:1036F000112B05DD2D9C113B23602B9C1123236096
:103700002B98802600680A99041C360102340E406A
:1037100004D10798211CFFF72EFC2D18079A2B982F
:10372000537813700368002B03D1964B0A99194202
:1037300003D0079A2E23537000E001242D980368CC
:10374000002B03DD07993E230B550134002E10D0CA
:103750000A9A12070DD407980319013B1B78302BE6
:1037600001D1013CF7E73E2BFBD02E3B5A4253419F
:10377000E41A0B9A0799631C0A550234002D04DAE7
:103780002D226D42261CCA5403E007982B22261CCA
:10379000C2547D4B9D420CDDFA21281C8900FEF7A6
:1037A00097FF0799031C30330B55784B661C584321
:1037B0002D18632D0CDD281C6421FEF789FF079C62
:1037C000031C3033A35564235B42584301362D1844
:1037D000281C0A21FEF77CFF0A225242031C504398
:1037E000079C30333035A3552818A3195870B01CE6
:1037F000F0E0281D00DA73E7EA439B1823602B9C56
:10380000802322681B01002D51DA6E42511C8E422A
:1038100009DD079D30232B702E236B7020682D9CB3
:10382000206002243BE05219941C122C03DD2D9CD5
:10383000113A226013240A9818420CD10798211CCF
:10384000FFF799FB002806D0EE430134002E02D189
:10385000079D6B780DE0079D2B19012E0DD1079D5B
:103860005A1B002A03DD1A78013B9A70F7E70134EE
:1038700030232B702E236B7011E0079D5A1B002AFA
:1038800003DD1A78013BDA70F7E730232B702E2323
:103890006B703C23AB702C9D013E02342E602D9D3D
:1038A0002B68002B75DD079D3E232B5527E0AE18B6
:1038B000B41C122C41DD0A981324184207D1079832
:1038C000211CFFF758FB002801D001351424621E8B
:1038D000079B954215DA5A7807991A7001335A1ADC
:1038E000AA42F8DD4B192E225A702B9A2D9B126892
:1038F000AD18113D1D60002D4BD03E230B550134FA
:1039000047E05978079819700133191A9142F8DB8A
:1039100003192D1B2C99013B3C2202351A700D60B6
:103920002E222B9D02552A68631C002A30D02D9D23
:1039300002342A603E22C2542BE00A98184207D172
:103940000798211CFFF717FB002801D00135F41C54
:10395000079B5A7807991A7001335A1AAA42F8DD60
:103960004D192E236B7014E001FCFFFFC65B0000B5
:10397000CE5B0000D65B0000E55B0000295B000029
:10398000F45B000008080000E703000018FCFFFFDC
:103990001C1C0A9D2D0512D50A9D201C2D0719D42B
:1039A000079D2B19013B1878302801D1013CF7E71E
:1039B0003E28FBD02E3843425841201A0AE02B9D66
:1039C000201C2B68002B05D10A9C082323405A4257
:1039D0005341C01A25B0F0BDF0B58FB00C1C071CC8
:1039E000161C0021282204A81D1CFFF7C0FA0A2378
:1039F00007930E4B621E06930D4B00240195029314
:103A00000096231C04A8049700F0ACF8069B051C44
:103A1000013B0693A34202DB049B1C7003E0201CC5
:103A200004A900F0F9FF281C0FB0F0BDFFFFFF7FD5
:103A3000593000000FB473B506AB20CB68460121A6
:103A40002A1C0193FFF7C8FF041E14DD461C301C1E
:103A500001F098F9009000280DD0311C2A1C019B20
:103A6000FFF7BAFF064B0099D86B221CFEF7D2FE77
:103A7000009801F0E9F9201C76BC08BC04B0184796
:103A8000640F001070B5244CA02200215200201CAD
:103A9000FFF76DFAC02001F0EFF9204D0021C022A0
:103AA0002860FFF764FA28680023282218215A4367
:103AB0005943A218411801335162082BF5D1221C39
:103AC0001749002001F052F8802280235B01201C5E
:103AD0000021D20000F0ECFE261C124D2836291CD5
:103AE000321C012001F042F880228023301C5B014F
:103AF00050340021D20000F0DBFE291C221C0220E1
:103B000001F034F880228023201C0021D2005B01C8
:103B100000F0CEFE70BDC046640F0010600F0010B4
:103B2000F65B0000F85B0000031C0B4330B59C07FC
:103B300009D1032A07D903680C68A34203D10430D2
:103B40000431043AF5E70023934208D0C55C013301
:103B5000CC18013C2478A542F6D0281B00E00020B8
:103B600030BD0000F0B5D1B00E920F930024569BEB
:103B7000579D071C079418785C1C0A94002801D1F3
:103B800000F092FE0026252825D0079C079E0F995D
:103B90000134F317994207DC01D000F072FE0E9A4F
:103BA000B24201D800F06DFEBB68013BBB60002B48
:103BB00005DB3B685A1C3A60187000F062FE391C45
:103BC00000F02AFF00F05DFE2B2C0BD92D2C0FD11D
:103BD00001231E430A920A9B0A9A1C7801322B2C5D
:103BE000F2D10AE0202C0AD0232C0AD10823F0E7D6
:103BF000302C06D180239B00EBE70223E9E7042366
:103C0000E7E72A2C0CD12B682A1D002B02DA0121B0
:103C10005B424E400A98151C447802300A9008E036
:103C20000023211C3039C8B20A92092801D800F0BB
:103C30002CFEDA43D217134000210C930B912E2C4B
:103C40001CD10A9A14782A2C06D12C6804350B94BE
:103C5000547802320A9209E00A9B221C303A01335E
:103C6000D1B20A93092901D800F016FE0B9800285A
:103C700002DB10231E4301E000210B916C2C0ED1BE
:103C80000A9A14786C2C05D15478602302321E43B2
:103C90000A9204E00A9B01330A9320231E434C2C12
:103CA00001D0712C04D10A98602304781E431EE0D1
:103CB000682C0FD10A990C78682C05D180235B0001
:103CC0004C781E4302311AE00A9A802301320A928C
:103CD0001E4315E06A2C06D140231E430A9B1C7824
:103CE00001330A930CE07A2C04D10A98047801304D
:103CF0000A9005E0742C03D10A990C7801310A91DD
:103D0000672C1EDC652C00DBAAE2472C00D1A7E261
:103D100009DC412C00D19DE2452C00D1A0E2002C11
:103D200000D1B2E027E0612C00D193E203DC582CF3
:103D300000D187E11FE0632C19D0642C00D138E258
:103D400019E0702C00D1D4E108DC6E2C00D1A2E087
:103D500000DDD8E1692C00D12BE20CE0752C00D1FC
:103D6000FAE1782C00D198E1732C04D1B4E02C1D39
:103D700011942C6800E011950C9801230138334010
:103D80000890109333D120210B91B20501D5302634
:103D90000B96002500260C9A0798023A521B4319ED
:103DA0000892002A22DB0798C117289029910F98C2
:103DB000289A299B52197341984203DC11D10E991C
:103DC00091420ED9BB68013BBB60002B05DB3B6811
:103DD0005A1C3A600B9A1A7003E00B98391C00F0D9
:103DE0001BFE01220023AD185E41D4E70793079E16
:103DF00007990F9A0136CB179A4203DC10D10E9B1C
:103E00008B420DD9BB68013BBB60002B04DB3B68D8
:103E10005A1C3A601C7003E0201C391C00F0FCFDA9
:103E2000109C0796002C01D100F029FD00240025EC
:103E30000899E343CB4221D4F0172A962B900F998F
:103E40002A9A2B9B12196B41994203DC11D10E98CF
:103E500090420ED9BB68013BBB60002B05DB3B6881
:103E60005A1C3A6020221A7003E02020391C00F00E
:103E7000D3FD01220023A4185D41D9E7CB43DB1712
:103E80000B40F318079300F0FAFC0A9C1195013CD3
:103E90000A9400F0F4FC2B1D11932B68700605D5D5
:103EA000079CE2171C605A6000F0E9FCB00603D5DD
:103EB000079C1C6000F0E3FCF00503D5079C1C7018
:103EC00000F0DDFC300603D5079C1C8000F0D7FC19
:103ED000079E1E6000F0D3FC2C1D2D6811941095D8
:103EE000002D01D1BF4C1094109800F049FD041C26
:103EF000F00603D50B998C4200DD0C1C0C9A0123B3
:103F0000121B334008920C9337D120230B93B0053A
:103F100001D530260B9600250026089A013A531B3E
:103F200022D40798C1172C902D910F982C9A2D9B75
:103F300052197341984203DC11D10E9991420ED966
:103F4000BB68013BBB60002B05DB3B685A1C3A6039
:103F50000B9A1A7003E00B98391C00F05DFD0122EA
:103F60000023AD185E41D8E7089EF343DB173340CA
:103F7000079ED21AF6180796089200250026AC4232
:103F800024DD0798C1172E902F910F982E9A2F9B02
:103F900052197341984203DC13D10E99914210D902
:103FA000BA681098013ABA604319002A05DB3A68EA
:103FB000511C39601B78137003E01878391C00F02D
:103FC0002BFD01220023AD185E41D8E7E343079E95
:103FD000DB171C4036190C9C0796002C01D100F011
:103FE0004EFC00240025089EE343F34222D4079EA2
:103FF0000F99F01730963190309A319B12196B411E
:10400000994203DC11D10E9E96420ED9BB68013B4A
:10401000BB60002B05DB3B685A1C3A6020221A70FB
:1040200003E02020391C00F0F7FC01220023A41833
:104030005D41D8E7F343079CDB173340E41807944E
:1040400000F01DFC402333400AD0073507239D4371
:10405000281C083029686A6811900491059204E0D0
:104060002A1D2D681192049505938023334006D0B4
:10407000684610210B5A00220493059206E0F005D1
:1040800004D569461020425C05930492310701D59E
:10409000554D00E0554D564A29E0402333400AD0A3
:1040A000073507239D43281C083029686A6811904A
:1040B0000491059204E02A1D2D6811920495059340
:1040C0008023334006D0684610210B5A0022049307
:1040D000059206E0F00504D569461020425C059380
:1040E0000492310701D5434D00E0404D424A9446C9
:1040F000ABE0281D404A2D680021049511900591E0
:1041000094463C4DC7E0402333400AD0072307358F
:104110009D432B1C0833286869681193049005910E
:1041200004E0291D2D6811910495059380233340E7
:1041300006D06A461020835A00210493059106E0B8
:10414000F20504D5684610210A5C059304923207F3
:1041500000D477E0294D76E0402333400AD007238E
:1041600007359D43291C08312A686B681191049218
:10417000059304E0281D2D68119004950593802374
:10418000334005D069461022535A0493002305E0BA
:10419000F00504D569461020425C04920593102274
:1041A0003240124B944675D0154A002116408C4679
:1041B00070E072060AD5072307359D432B1C083390
:1041C0002868696811931490159105E02B68291DE2
:1041D0001493DB1711911593320613D514A80023FD
:1041E000C35E14E0FA5B0000015C0000295B000084
:1041F000095C0000045C00001A5C0000075C000021
:10420000FFFDFFFFF10505D514AA0023D356149333
:10421000DB171593159B002B08DA149A159B0021C8
:104220005042994104900591C84D0CE0149815999D
:1042300004900591B10703D4720703D5C44D02E081
:10424000C44D00E0C44D00239C46F00623D5C3496D
:104250000E4020E010231E4202D10D211E430B917F
:104260008023DB003343F20601D406260B96072297
:1042700007359543286869682E1C469047910021B0
:1042800000220836049105920022119694461E1CC5
:10429000151C00E01D1C079B4395D81732933390E3
:1042A000329833990E9A0F9B121A8B4108920993F8
:1042B0000B9901235B42449345934291002355207F
:1042C00048A958540133202BF9D18223DB001E4228
:1042D00001D101234293672C16DC652C00DBC9E079
:1042E000472C00D1C6E006DC412C00D1C2E0452CB1
:1042F00000D0CFE0BEE0612C00D1BBE0642C11D037
:10430000582C00D0C6E010E0702C0ED005DC692CD3
:1043100008D000236F2C21D0BCE0752C02D0782C63
:1043200003D0B7E0002410942FE000230499059CEB
:104330000B93214300D1AFE004980F210140624666
:10434000505C48A9585405980499059A040708092F
:1043500004431109049405910133E7E7049A059891
:104360000B93024300D197E00498072101403031BC
:1043700048AA99540599049A059C4807D10808430E
:10438000E208049005920133E8E7109C049B05982D
:104390000B94034300D17FE0049A05999208141C02
:1043A000049A8B071C43520820948808CB07141CDE
:1043B00021901C4348082294239022982399209A04
:1043C000219B12184B4114091907201C0843190995
:1043D000189019911898199912184B41140A190636
:1043E000201C0843190A1A901B911A981B9912183D
:1043F0004B41140C1904201C0843190C1C901D91EE
:104400001C981D9912184B4100212693279126983C
:10441000279912184B41D4085907201C0843D90882
:104420001690179106240025049A059B1698179953
:10443000A4185D410A22002301F0B4FA241A8D4128
:1044400020092B07011C19432A091E911F92169857
:1044500017991E9A1F9B12184B410A20504304992A
:10446000109C3031081A48A9605401341094049209
:1044700005938AE743AB009342AB019344AB0293AD
:1044800045AB0393201C46A948AA331C589CA0475F
:104490000B9001E000240B948023DB003340249335
:1044A0000DD000234293449B002B01DD013B42933E
:1044B000459B002B0BDD4298013BC31803E042995A
:1044C0000B9C0B1B01D4429301E0249C42940B985B
:1044D000429900254418439800F052FA0C9A01239F
:1044E0003340141B25931E4B241A10941E4214D1E2
:1044F0000024002507E00998A84216DC12D001220A
:104500000023A4185D41109B013B1A1BF3D5109C9E
:10451000E543ED1725405B1B109300230024129305
:10452000139434E00899A142E9D9BB68013BBB6010
:10453000002B05DB3B685A1C3A6020221A70DEE72C
:10454000391C202000F068FAD9E7C046F45B00006F
:104550001C5B0000C45B0000295B0000FFFDFFFF47
:1045600001020000E8173495359034983599129A75
:10457000139B12184B410999994216DC12D0012263
:104580000023129813998018594112901391439B5C
:10459000129C5A1C43921B782C190C949C46002B9D
:1045A000E0D112E0089C9442E9D9BB68013BBB60B2
:1045B000002B05DB3B6860465A1C3A601870DEE74A
:1045C0006046391C00F028FAD9E72598002833D135
:1045D0002024B10500D5302400250026109A013A88
:1045E000531B21D40C9A0998D31736923793369AD5
:1045F000379B52197341984203DC10D108999142BC
:104600000DD9BB68013BBB60002B04DB3B685A1C27
:104610003A601C7003E0201C391C00F0FDF90122F7
:104620000023AD185E41D9E7109C0C9EE343DB17D5
:104630002340D21AF4181092249E002E02D1002595
:10464000002698E000260B98864200DBE5E048ABA8
:10465000F05C3C2804D03E2865D10020002145E0D4
:10466000002100220C910D92449B0C99013B65188E
:104670004493002B6DDBE2173992389438983999BE
:104680000C9A0D9B12184B410999994203DC11D1E8
:10469000089890420ED9BB68013BBB60002B05DB3C
:1046A0003B685A1C3A6030221A7003E03020391CF3
:1046B00000F0B2F90C980D9901220023801859419D
:1046C0000C900D91D0E7E2173B923A943A983B99BF
:1046D0000C9A0D9B12184B410999994213DC0FD08B
:1046E000012200230C980D9980185941459B0C908C
:1046F0000D910C99013B65184593002BE3DA28E0F6
:1047000008989042ECD9BB68013BBB60002B05DBED
:104710003B685A1C3A6030221A70E1E7391C30209D
:1047200000F07AF9DCE7099A651CE3179A4203DC8A
:104730000FD1089BA3420CD9BB68013BBB60002B87
:1047400004DB3B685A1C3A60187002E0391C00F028
:1047500063F901362C1C76E7E1173C943D910998EA
:104760003C9A3D9B5219734198420FDC0BD00122B9
:104770000023AD185E41429B6219013B0C924293AB
:10478000002BE9DA12E008999142F0D9BB68013BAD
:10479000BB60002B05DB3B685A1C3A6030221A7064
:1047A000E5E7391C302000F037F9E0E70024002568
:1047B0000B9E211C331B002B2ADD0C9EF0173E960E
:1047C0003F90099E3E9A3F9B12196B419E4203DC2B
:1047D00019D10898904216D9BB68013BBB60002BE9
:1047E00009DB3B680B985A1C48AE3A60C943321843
:1047F0008A5C1A7007E00B9E48AAC9439319C85CEB
:10480000391C00F009F901220023A4185D41CFE70B
:10481000F443E41734400C9E3419259E002E2BD00F
:10482000002500261099EB43CB4221D4E017409499
:1048300041900999409A419B52197341994203DC76
:1048400011D1089890420ED9BB68013BBB60002B88
:1048500005DB3B685A1C3A6020221A7003E02020D6
:10486000391C00F0D9F801220023AD185E41D9E7C8
:10487000CB43DB170B40E418079E36190796119DB2
:10488000079C07940A9BFFF776F90A246343147880
:104890005B180132FFF7C5F90B9C0A2161438A18A6
:1048A0000B921C78FFF7D9F9079851B0F0BDC046BC
:1048B000F0B5C5680124AE071AD08026B600B24212
:1048C0000BD08026F600B24204D08026A640B24229
:1048D0000ED102E0416A231C04E0064E5F1E012453
:1048E000B74205D82A4301610160C361C260002458
:1048F000201CF0BDFEFFFF00031C0B4310B59A0700
:104900000CD103680C68A34208D10A4C1A199A43C7
:10491000094B1A4202D104300431F2E70022835CD1
:104920008C5CA34201D0181B03E00132002BF6D1AE
:10493000181C10BDFFFEFEFE80808080031C0B4310
:1049400030B59A0711D1021C0B680B4C1D190B4C8A
:104950009D43254202D108C20431F5E7D9B2117056
:104960000132002907D01B12F8E70023CA5CC254A9
:104970000133002AFAD130BDFFFEFEFE8080808028
:1049800010B5411C820706D00130431E1B78002B56
:10499000F8D1401A18E003680C4A9C180C4A9C4352
:1049A000144201D10430F6E7DCB2421C002C0AD0DC
:1049B000FF242402821C234205D0FF242404C21CAD
:1049C000234200D0021D501A10BDC046FFFEFEFE5D
:1049D00080808080C26820239A43436A10B5041CFB
:1049E000E2605B6882699A420DD000F0F3F8E268F9
:1049F000074B134010221343626AE3605368A361BC
:104A0000236993602360E268024B1340E36010BDAA
:104A1000EFCFFFFFBFBFFFFFF8B5514ACB68061CC1
:104A20001A400C1CCA60980602D5081CFFF7D2FF7A
:104A3000A268E368511C0EDA98050CD402214942A1
:104A40008A1AA260902252021343E36023685A1C20
:104A500022601E7081E0434A1D1C1A40022A05D0C4
:104A60000022A26080221343E36054E03E490B40E1
:104A7000802109028B420AD10021201C00F05EFA3D
:104A8000E168890602D5201CFFF7A4FFE5689023A2
:104A90005B02F0222B431201E36015421ED16069D4
:104AA00000F0D1FF00280BD06A0509D5636A2361A5
:104AB00023600123E36192235B022B43E3600DE05B
:104AC00080277F01381C00F0D7F99423E2685B024D
:104AD0002B431A4320612060E761E26090210901C5
:104AE000226825690B4219D0636A99688A4200D905
:104AF000111C491B09D1636A6A1C9A602260E26931
:104B0000511EA160DA602E7027E0281C221C00F0E4
:104B100003F90028EFD0012040421FE0511CF0B201
:104B200021601070626A2768916884468F4200D9BC
:104B3000391CE769491BD760580504D463460A2B22
:104B400001D0B94209DB00239560281C2560A360D1
:104B5000221C00F0E1F80028DDD1F0B2F8BDC0461B
:104B6000FFFFF7FF8A10000010A0000070B50D1CB9
:104B7000061C101C141C00F08FF92B78722B06D029
:104B8000772B07D0612B20D10823114A04E00023A2
:104B9000012201E004230222013529782B2905D0C6
:104BA000622908D104210A43012102E003210A43BA
:104BB00002210B43F0E7E26066611A0706D5201C6C
:104BC0000021022200F0BAF900E00024201C70BD90
:104BD0000280000038B5436A041C056902689968C0
:104BE000C36813481840E06082201840022802D0B1
:104BF000012040421AE080204002184016D0914225
:104C000000D2111CA94209D1636AE2689D60094B78
:104C1000002013402560A060E36007E0491B281CCA
:104C2000221C00F079F80028EED0E1E738BDC0463C
:104C3000FFFFF7FFFFFFFEFFF8B5141C194B184AE2
:104C4000061C0F1C00F0E2FD002804D000232360A6
:104C50001449134823E07A00134D520D301C391CBF
:104C60005319002A15D13D032D0B321C6F00D60FAE
:104C70003E43802736033F03360B52003D4205D0AA
:104C80000D0D2D05291C3143101C02E0013B351C84
:104C9000ECE72360054A064B0B40111C1943F8BD95
:104CA000000000000000000002FCFFFF0000E03FE9
:104CB000FFFF0F80C046C046D0B5141C114B104AF0
:104CC000061C0F1C00F0A2FD002802D00D490C4864
:104CD00015E07B005B0D1C190B4B301C9C4206DD64
:104CE0000A4B22221A600A4B1868596807E0002C08
:104CF000ECDD084B64053B406408191C2143D0BD22
:104D00000000000000000000FE0700003C09001049
:104D1000305C0000FFFF0F80F7B5D56801900E1CD6
:104D2000141C5769EA0205D51023381C1D4300F0F6
:104D300087FEA061114B1D4208D0381CA16900F00C
:104D400088FE002813DB0E4B1D40E560321C381C2A
:104D50000199FDF75FFD801B431E984140424300CF
:104D60005B08F61AA3699E19A661002805D0E268BF
:104D7000802313430120E3604042FEBD1000020087
:104D8000EFFFFDFFF8B52F4FC51C3C68AD080028AC
:104D90000FD0002606E0216880235B05994215D0DC
:104DA000261CA468002CF6D10C3000F073F9421CCC
:104DB0003CD1002045E01668802149058E4209D18A
:104DC000516892685B1803336360A260A2686368ED
:104DD000002AF0D1AB4206DBE91C994203DB8023B9
:104DE0009B05236020E0291C0A318B4210D98021C9
:104DF0008905201C21600C30A90041186560A16064
:104E00005B1B80246405033B0C604B608A6018E0E8
:104E1000002AC5D19B00C01A00F03CF90130C8D06F
:104E200080239B0523606560201C09E080239B058F
:104E3000036045608460002E01D1386000E0B060FE
:104E40000C30F8BDA410001010B5002813D080233A
:104E50000C385B0503608368002B0CD01968802236
:104E60005205914207D1596844689B686218033221
:104E700042608360EFE710BD10B5FFF783FF041EAB
:104E800005D104491722FDF7C5FC00F0D5FD201C13
:104E900010BDC046385C0000F0B5436AC5688BB0F1
:104EA000041C476906690193AB0726D02B0716D46B
:104EB00000F02AF8381C00F0C0FD2B0502D5301C8C
:104EC000FFF7C2FF0F4BAD0DAD059D4207D102A804
:104ED000216A202200F0C0FD02A800F0D1F80021D4
:104EE0001822606AFEF743F8201C00212822FEF7F2
:104EF0003EF8019B0020636201E0012040420BB0BC
:104F0000F0BDC046000080AD38B5002803D000F0E9
:104F1000E1F8051C0EE0041C051C0748201800F0F1
:104F2000D9F8002801D001256D42A02328345B0068
:104F30009C42F2D1281C38BD640F0010F7B53B4BE2
:104F40000D1CC168041C161C47690091194269D0E8
:104F5000381C00F078FD0190002863D1012E04D0A8
:104F6000022E07D0002E5DD123E0201C00F062F855
:104F70002D181EE0381C00F063FDE168002804DAFB
:104F800080231943E16001264DE0626A2668936838
:104F90009E4200D9331CA6699B1926699B1B8E066D
:104FA00003D55268934200DA131C834200DA031CD3
:104FB000ED18002D36DB009E636AB60404D5226826
:104FC0009968914200D29A60A1698D420DDB2068F8
:104FD0009A68824200D2021C20695618361AB542DD
:104FE00003DCDF68CE19B54207DB009E00212022DA
:104FF000A160616032435D6010E0009E6D1AB607EB
:1050000001D5EF1BA760009EF60702D5821AAA18E9
:105010006260009A4519202325609A43044B1A4088
:10502000E26001E0022601960198FEBD0300100037
:10503000BFCFF7FFC368990705D1104B212201208C
:105040001A60404218E0202219030BD5134202D007
:10505000436A586804E0036881695A180369D01AE2
:10506000013809E0134202D0436A586804E003683B
:1050700081695A180369D01A7047C0463C0900106C
:1050800010B5041CFFF77CFC011C201C00F0DEFCAA
:1050900010BD000070B50C4C2368002B01D10B4BE8
:1050A0002360C61C256803239E43AE19301C00F004
:1050B00035F8002802D12660281C04E0044B0C229D
:1050C00001201A60404270BDA8100010AC10001002
:1050D0003C090010C36870B5041C032018401AD0A6
:1050E0009A0605D5636A201C5D68FFF773FC04E02F
:1050F0002368A2699D182369ED1AE268064B201CFB
:105100001340E360FFF766FD291C061C0022201CEB
:10511000FFF714FF301C70BDFFCFFFFF044B002BC7
:1051200004D0002298425241101C00E0181C704725
:105130000000000000000000F0B58BB01F1C0092C2
:1051400001934B000D1C049005915B0D00D181E093
:1051500053498B4200D17DE07A00520D7AD08A42C9
:1051600078D0D2183B1C6B40DB0FDB070098039311
:1051700080242B031B0B64031C430892FE02420D88
:10518000802316431B061E430021221C301C0B1CCF
:1051900000F008FC069007910099201CCD02002128
:1051A0002A1C0B1C00F0FEFB09910021041C049A30
:1051B000301C0B1C00F0F6FB009001910021281C14
:1051C000049A0B1C00F0EEFB009A019B8446081C1D
:1051D0000021261C0F1C36184F41B6185F41099A52
:1051E0003C1C0D1C0B1C12196B4164460698079958
:1051F00012184B41A1082B48089C0E4321182A483D
:1052000098420AD329481D1C2118141CA4185D417A
:10521000F00F221C02432B1C7600F40F00251219FC
:105220006B418020141C0006864201D1012084437A
:105230001F48814205D80A050399201C0B43D11849
:1052400027E0002903DB1B4B039C234300E0039B67
:10525000191C1DE03A1C6A401749D20FD2076B0097
:105260008B4204D87800884204D8111C10E01349FE
:105270008B4207D111487900814203D85B0D01D0E0
:10528000490D02D10549044803E00A4B191C11439A
:1052900000200BB0F0BDC046000000000000F87F09
:1052A000FF07000001FCFFFFFFFF0F0000FCFFFFF6
:1052B000FD0700000000F07FFFFFDFFF0000E0FFC0
:1052C000F0B50D1C87B06E00049005910292039317
:1052D000191C760D5FD04C4A96425CD05B005B0D8A
:1052E00059D0934257D00A1C6A40E802049D029F9D
:1052F000CC02F61A80216B0D184309067B0D1C4366
:105300000B1C00920343EA020C43FD029C4202D8AC
:1053100003D1954201D93D4906E0DF0759085008FD
:105320000B1C3A1C3A490243E707680876183843D1
:105330006108352500246400994206D801D19042C5
:1053400003D80127121A8B413C4392185B416F1E10
:10535000212D02D101943D1CEDE73D1EEBD1994278
:1053600008D801D1904205D8019D013463426341C0
:10537000ED1801950099274BCF0FFF079E4204D8E7
:105380003605019DF71979191EE0002E01DB224E2A
:105390003743391C2AE0214F6E00BE4228D84A000C
:1053A000BA4225D80B1C2B435B005B0D5B0503D178
:1053B00012491148181C1DE00B1C6B40DB0F740DCB
:1053C000DB07640502D1191C201C13E0540D640591
:1053D00003D1114A111C1943F6E7BA4203D00E4A11
:1053E000111C194302E0964202D0191C002001E072
:1053F0000348044907B0F0BD000000000000F87F3A
:10540000000000000000F87FFF070000FD0300001F
:10541000FE030000FD0700000000F07F0000E0FF39
:10542000F0B587B002900391039F1D1C0092019379
:10543000049005913A1C9C46049E009B6A4006D548
:1054400080263606AB19009A00F0DEF8C9E0AF42BC
:1054500003D39E420AD8AF4208D180200006039FA2
:1054600012185740049B6A40009E944661460A0DFC
:10547000614862493C0DA21A2140814200D1A3E05B
:105480008A4200D19AE0604601033F038020400336
:105490003F0B090B074301431F2A50D8081CD0407B
:1054A0003F1A2025181CD040AA1A91400843301AF0
:1054B0008642B6417642191CBF1B9140061C00294A
:1054C00005D0013E731C5A4253414942FF1AC02382
:1054D0005B031F4251D1F30FC90F76007F000E43CB
:1054E0001F43331C3B4301D0A31E01E0191C52E0B3
:1054F0007A0B05D1320E3F0217433602083BF7E71D
:105500007A0C04D1320F3F0117433601043BFA0CE9
:1055100004D1B20FBF001743B600023B3A0D04D1CD
:10552000F20F7F0017437600013BE40ADA0A944247
:1055300002D11B05D91953E0E107002051E0352ABB
:105540001BD8151C203D081CE840301A8642B64185
:105550007642BF1B4026B21A91401A1CEA40114302
:105560001B0602D0FF23194302E0061C002904D0C9
:10557000461E434243414942FF1AFB020DD4013CFF
:10558000630507D0F30F7F001F437600CB0F1E4348
:10559000490002E02105181C23E0194B24051F4097
:1055A000002909DA013673427341FF1880231B0674
:1055B000994201D101239E43391911E0114B9A42BE
:1055C00002D8111E09D00AE03B0302D00749064861
:1055D00007E0002A03D106480649101C01E0391CE7
:1055E000301C07B0F0BDC046000000000000F87F8E
:1055F000000000000000F87FFF070000FFF7FFFF3A
:10560000FFFFEFFFFE070000F0B587B002900391A7
:10561000039F1D1C00920193049005913A1C9C4627
:10562000049E009B6A4006D580263606AB19009A78
:10563000FFF7F6FE7DE0AF4205D2039F049B574083
:10564000009E6A4094463E493E4A380D01409142D0
:1056500068D06446220D821A8A425AD021033F0341
:10566000802464033F0B090B274321431F2A10D8D2
:105670000C1CD4403F1920251C1CD440AA1A914070
:10568000214376188E42894149427F18191C914066
:1056900014E0352A12D8141C203C0D1CE540761964
:1056A000AE42AD416D427F194025AA1A91401A1CA5
:1056B000E24011431B0601D0FF231943BB0218D55A
:1056C000013673427341FF18002901D102239E4322
:1056D00002057B089B181C4A5900914205D87608A0
:1056E000FF07301C191C384323E0431C1905002018
:1056F0001FE00138002909DA013673427341FF18AF
:1057000080231B06994201D101239E430305F9180A
:105710000EE00E4B9A4205D8002A08D1FF0FF90778
:10572000101C06E03B0302D00449034801E0391C89
:10573000301C07B0F0BDC046000000000000F87F3C
:10574000FFF7FFFFFF070000FFFFDFFFFE0700007E
:105750000B1C400DC90208438021090610B50B4CF3
:105760000843190D611AC840FF290ED9E024E4004E
:105770004042214209D00020590006D504495C006E
:105780008C4202D8D80F034BC01810BD1E04000075
:105790000000E0FFFFFFFF7F10B5002802D1031CCF
:1057A000021C25E0030C01D1000402E080235B040D
:1057B000C918030E01D1000202E080231B04C9189E
:1057C000030F01D1000102E08023DB03C918830F1E
:1057D00001D1800002E080239B03C918002801DB6F
:1057E000400002E080235B03C918C412631842051D
:1057F000101C191C10BDC10F08B5C90700D04042CC
:105800008023DB05C918FFF7C7FF08BDF7B50D1CDE
:10581000009201931F1C9C466B000C1C009A011CFB
:10582000184304D17D0015430120002D07D000202E
:10583000644504D1914202D1014A9A424041FEBDE1
:105840000000E0FFF0B585B00D1C009201931A1C1A
:105850008C46029003911F1C191C2A43164B0ED430
:105860007A0000209A4224D80120AF4221D800209B
:10587000AF421ED1029A009B9A42804118E06A0012
:1058800000209A4215D87C009C4212D8029B1A43F1
:10589000824203D1009A144384420AD001208C45ED
:1058A00007D800208C4504D1009B029A9342804186
:1058B000404205B0F0BDC0460000E0FFF0B587B043
:1058C000009201930D1C049005910E1C01990498FF
:1058D000029203930A1C8446029F2A43144B0CD461
:1058E0004A0000249A421FD80124A9421CD800244F
:1058F000A94219D18742644116E06D0000249D42FF
:1059000012D8019842009A420ED801248E420BD838
:1059100001D1BC4508D2049900240D43A54203D10E
:10592000029B1A4354425441201C07B0F0BDC046AC
:105930000000E0FFF0B585B0029003910D1C0C1C37
:10594000029900920193181C1F1C28436B008C467F
:10595000009A134D00280CDB0020AB421ED801201A
:10596000BC421BD80020BC4218D163469342404140
:1059700014E00020AB4211D87E00AE420ED80120C8
:10598000A7420BD801D1624508D2029900200B43EF
:10599000834203D1009B33435842584105B0F0BDC8
:1059A0000000E0FF10B543435143C918040C130C29
:1059B0005C43091992B2040C544380B243435043F0
:1059C0002204240C801861411A041B0C80185941D0
:1059D00010BD8446830708D18B0706D1131F04D35B
:1059E00004C904C0043BFBD21A1D524205D0891AD7
:1059F000801A8B5C83540132FBD160467047844629
:105A0000043A09D3830707D109060B0A19430B0C83
:105A10001943043A02C0FCD2043203D001700130B1
:105A2000013AFBD1604670478C4671460139095CEA
:105A300049008E4461467047FEE7012040427047AE
:105A400001204042704701204042704701204042FF
:105A500070470120404270470120404270470202D7
:105A600002020202020202020202020202026F6348
:105A70007465740074696D656F75740035005749FD
:105A80005A35353053324500000000000000000058
:105A9000000000000000000057495A6E65740000C5
:105AA0000000004D41433A20253032583A2530322B
:105AB000583A253032583A253032583A2530325843
:105AC0003A253032580D0A0049503A2025642E25D7
:105AD000642E25642E25640D0A0047573A2025645C
